:400000000080002011000000210700002107000080B500AF00F08EFB80B500AF284B12221A6000F015FE274B180001F029FD012000F01EFE302000F001FC234B234A1A60FA
:40004000234B8022D2051A60224B224A126802210A431A60204B214A1A60214B00221A60204B204A126808218A431A60FA23DB00180000F0D5FC1C4B180000F089FD1B4B9F
:400080008822D2011A601A4B1A4A1A601A4B802212061A60194B8022D2021A60184B40221A60184B1900082000F004FD082000F027FD074B8022D2051A60C046BD4680BD7E
:4000C00030001040001BB70004010B40060000800C020B4078002E407C002E40BCBC000064F02E406CF02E40DC050000000301400000014040FF008008010B4000010B40E6
:4001000004010140C50D000080B582B000AF72B63D4B00221A60FB1D00221A7022E0FB1D1A7813005B009B185B00384A9B183B603B681A78597809020A43997809040A43C0
:40014000DB781B06134318003B681A795B791B0213439BB2190000F0BFFAFB1D1A78FB1D01321A70FB1D1B78012BD8D9284B294A1A60294B902212031A60284B99221204B1
:400180001A60274B992212041A60264B992212041A60254B992212041A60244A234B1B78DBB206210B43DBB21370214B2C221A60204B214A1A60214BA0221A60204B202237
:4001C0001A60204B20221A601F4B204A1A60204B802212011A601F4B02221A601E4B10221A601E4B08221A601D4B40221A601D4BC02252031A60FFF70FFF00F07DFAC0467E
:40020000BD4602B080BDC0466CF02E402836010000000240000090EE0001024000500F4010500F4020500F4030500F4000700F400000044008000440B064DB000C00044030
:40024000180004400001044008010440B61D01000C01044000020440080204400C020440000304400803044010B5064C2378002B07D1054B002B02D0044800E000BF0123DE
:40028000237010BDA81000200000000090350100084B10B5002B03D00749084800E000BF07480368002B00D110BD064B002BFBD09847F9E700000000AC10002090350100C0
:4002C000A80B00200000000080B500AF62B60A4B180000F015FE01F0D1FA084B180000F0D5F8074B1B78022B01D101F0FFFF01F0FDFF00F0B3F9F4E70503000094350100D2
:40030000B022002080B584B000AF786039607B68282B1ED006D8262B1FD000D975E0012B07D075E0422B30D04C2B38D0412B1CD06EE0002000F07CFE012001F079FB0120B7
:4003400001F04EFB344B354A1A60354B354A1A605EE0002000F06CFE5AE0334B1B78042B55D1002000F064FE51E0304A3B681000190002231A0001F074FF2D4B18000BF0E3
:40038000F5FE2C4B01221A7042E02B4B00221A70284B00221A70294B01221A7038E03B68FB60FB689B89162B20D1FB685B681A78234B1A70FB685B685A78214B5A70204B8A
:4003C0001B781A001F4B1100180000F05FF81C4B5B781A001C4B1100180000F057F8FB68181D1A4A402300210EF030FD174B1A785B781B021A4300231204120C1B0C1B04CA
:40040000134318000DF01AFB02E0C04600E0C046C046BD4604B080BD60F02E40310300000800034002030080B02200206822002080220020D4100020C4100020C510002067
:4004400044220020AC350100D4350100B822002080B582B000AF0200FB1D1A70FB1D1B78180001F02BFAC046BD4602B080BDC04680B582B000AF78607A68034BD31818005E
:40048000BD4602B080BDC046FC3501000FB490B595B000AF00233B640123FB636023FB18BB63CCE03B6E1B78252B08D03B6E1B781800FFF7CDFF3B6E01333B66BFE03B6E32
:4004C00001333B663B6E1B78732B18D1FB6B5A1CFA639B00BA6BD3181B68FB6407E0FB6C1B781800FFF7B4FFFB6C0133FB64FB6C1B78002BF3D13B6E01333B669FE03B6E73
:400500001B78642B37D1FB6B5A1CFA639B00BA6BD3181B68BB6400233B643C6C631C3B64BB6C0A21180001F071FD0B0019003B1DA200D150BB6C0A21180001F0E1FC030040
:40054000BB64BB6C002BE8D10EE03B6C013B3B643B1D3A6C9200D3581800FFF789FF03001B781800FFF774FF3B6C002BEDD13B6E01333B6663E03B6E1B78632B13D1FB6B14
:400580005A1CFA639B00BA6BD3181A683723FB181A703723FB181B781800FFF759FF3B6E01333B664BE03B6E1B78782B44D1FB6B5A1CFA639B00BA6BD3181B687B640023D8
:4005C0003B643B6C5A1C3A647A6C0F2111403A1D9B0099507B6C1B097B647B6C002BF0D13B6C0122134006D03B6C5A1C3A643A1D9B00002199503B6C012B16D83B6C5A1C1A
:400600003A643A1D9B00002199500EE03B6C013B3B643B1D3A6C9200D3581800FFF728FF03001B781800FFF713FF3B6C002BEDD13B6E01333B6602E03B6E002B05D03B6EC8
:400640001B78002B00D02DE700E0C046C046BD4615B090BC08BC04B01847C04680B582B000AF1B4B1B781B021AB2194B5B781BB213431AB2BB1D1A80BB1D1B88FF2B11D0E5
:4006800012DDFF221201934210D0F022120293420ED0F022120193420BD10E4B1800FFF7F5FE06E0C04604E0C04602E0C04600E0C046074B5B78102B03D1002001F09CF8DC
:4006C00002E0012001F098F8C046BD4602B080BD442200201036010080B582B000AF786039603A687B680021180001F0C3FDC046BD4602B080BDC04680B500AF054B032264
:400700001A60054B03221A60044B00221A60C046BD4680BD3000304030003140000E3F4080B500AF01F062FD03001B680C2B00D1FEE7FEE780B586B000AF224B7B61224BF5
:400740003B61204B7B6135E03B691B68FB603B695B68BB603B699B683B6000237B600CE0FB681A68BB681A60BB680433BB60FB680433FB607B6804337B607A683B689A420F
:40078000EED13B69DB683B6000237B6008E0BB6800221A60BB680433BB607B6804337B607A683B689A42F2D13B6910333B617B69013B7B617B69002BC6D101F01DFDFFF79F
:4007C00083FDFEE701000000B038010080B582B000AF154B144A126801218A431A6000237B600FE07B68032B04D8104B7A689200D35800E00E4B0F4A796889008B507B6865
:4008000001337B607B682F2BECD9FFF77DFC0A4B00221A60044B044A126801210A431A60C046BD4602B080BD00001040000000002107000000000020C000002090B585B05D
:4008400000AF78600C23FC1801F023F9030023707B68022B00D8AFE07B68302B00D9ABE05C4B1B78DBB21A007B689A420AD35A4A0F23FB1812781A70584A0E23FB18127808
:400880001A703FE0564B1B78DBB21A007B689A420AD3544A0F23FB1812781A70524A0E23FB1812781A702DE0504B1B78DBB21A007B689A420AD34E4A0F23FB1812781A70BE
:4008C0004C4A0E23FB1812781A701BE04A4B1B78DBB21A007B689A420AD3484A0F23FB1812781A70464A0E23FB1812781A7009E0444A0F23FB1812781A70434A0E23FB1830
:4009000012781A707B68DA1E0B23FB183F498A5C1A700B23FB181B782F2B0DD97B682A2B0AD93B4B19221A60052001F0A9F80D23FB1819221A7007E0354B1B68DAB20D23C0
:40094000FB183F210A401A700B23FA180D23FB1812781B789A4208D22D4B7A68033A2B498A5C1A60052001F08BF82A4B7A6826498C4662441278D2B21A60274B0F22BA189B
:4009800012781A60254B0E22BA1812781A60052000F0FEF80B23FA180D23FB1812781B789A420CD91A4B7A68033A18498A5C1A60052001F065F802E0002000F0B7F80C23C9
:4009C000FB181B78180001F068F8C046BD4605B090BDC04640F3FF0F41F3FF0F42F3FF0F43F3FF0F44F3FF0F45F3FF0F46F3FF0F47F3FF0F48F3FF0F49F3FF0F4AF3FF0FD5
:400A00004BF3FF0F4CF3FF0F4DF3FF0F343601002CFF0B4028FF0B401CFF0B4020FF0B4080B584B000AF78600023FB60154B154A126801210A431A60134B144A1A60144B87
:400A4000134A1268802109020A431A607B68002B12D01023FB600CE0012000F099F800F019F8031E02D00023FB6005E07B68013B7B607B68002BEFD1FB681800BD4604B0CF
:400A800080BDC04660F02E4078002E400220000010002E4080B582B000AF054B1B68012213407B607B681800BD4602B080BDC0460C002E4080B584B000AF02003960FB1D3D
:400AC0001A7080239B05FB60FB1D1B781F2B02D9002000F02BF8FB1D1B7810339B00FA68D3181B68BB60FB1D1B7810339B00FA68D3183A681A60BB681800BD4604B080BD36
:400B000080B582B000AF0200FB1D1A70064BFA1D12781F210A40012191400A001A60C046BD4602B080BDC04600E100E080B582B000AF0200FB1D1A7001BEC046BD4602B015
:400B400080BDC04680B582B000AF786009E00D4B1B68180000F094FF7B680B4A944663447B607A6880231B029A42F0D8074B1B687A685343180000F083FFC046BD4602B079
:400B800080BDC046B80B00200080FFFFB00B002080B582B000AF0200BB1D1A80BB1D1B88044A12785343180000F06AFFC046BD4602B080BDB40B002080B500AF0F4B0F4A64
:400BC000126801218A431A600C4B0C4A126802218A431A600A4B0A4A126830218A4310210A431A60064B064A126807218A4301210A431A60C046BD4680BDC04600F02E40A5
:400C000000FF2E4080B500AF0F4B0F4A126802218A431A600D4B0D4A126807218A4302210A431A60094B094A126830218A4320210A431A60044B044A126801210A431A607D
:400C4000C046BD4680BDC04600F02E4000FF2E4080B500AFFFF7B0FF044B044A1268802109060A431A60C046BD4680BD00F02E4080B584B000AF78600C4B1B680122134062
:400C8000FB607B68002B02D0012B03D005E0FFF793FF06E0FFF7B6FF03E00020FFF746FFC046FB681800BD4604B080BD00F02E4090B583B000AFFC1D00F0EBFE030023703C
:400CC000074B074A1268C02109020A431A60FB1D1B78180000F0E1FEC046BD4603B090BD00010B4080B500AF054B1A68C0231B02134001D0012300E000231800BD4680BDE4
:400D000000010B4090B583B000AFFC1D00F0C1FE030023700D4B0D4A12680D490A408021C9010A431A60094B084A126808490A40802109020A431A60FB1D1B78180000F006
:400D4000ACFEC046BD4603B090BDC04600010B40FF3FFFFF90B585B000AF78600B23FC1800F097FE03002370FFF7BCFF031E04D00123FB60FFF7C6FF01E00023FB607B68B2
:400D80000D4A13407B600D4B0C4A12680C4911407A680A431A60094B1B68FB68012B01D1FFF786FF0B23FB181B78180000F075FEC046BD4605B090BD0404040010020B40C1
:400DC000FBFBFBFF80B500AF344B1B68042213401FD0334B1B680422134017D0314B1B6804221340DA432E4B1B681A402C4B1A602C4B1B68042293431A002A4B1A602A4B04
:400E00001B68002B02D0284B1B6898470420FFF7A1FF224B1A688023DB00134022D0204B1A688023DB00134017D01E4B1A688023DB001340DA431A4B1B681A40184B1A6054
:400E4000184B1B68194A1A40164B1A60164B5B68002B02D0144B5B6898478023DB001800FFF778FF0D4B1A688023DB02134011D00B4B1A688023DB02134006D00A4B9B6868
:400E8000002B02D0084B9B6898478023DB021800FFF760FFC046BD4680BDC04610020B40C40B0020EC100020F0100020FFFBFFFF80B500AF094B00221A70094B00221A7063
:400EC000084B00221A7000F013F8074B00221A70064B00221A70C046BD4680BDBB220020B4220020BA220020A0220020A822002080B500AF00F07AFCC046BD4680BDC04666
:400F0000B0B594B004AF78603E23FB1800221A802823FA183D4B1000190014231A0001F0A0F93B4B1B78002B04D1FFF7C1FF384B01221A707B68002B5CD0364B7A681A604E
:400F40003E23FB181B88002B29D11023FB181C22BA185A601023FB182022BA181A601023FB1800221A812023FB181B221A802023FB181B225A802023FB1804221A711C236E
:400F8000FB1800221A703E23FC180E23FA181023FB181100180001F085FA030023803E23FB181B88002B29D13E23FC182823FD18AE231A0118491948194B0293194B019385
:400FC000052300932B0001F0C3F9030023803E23FB181B88002B11D1134B01221A703E23FC18124B08221A2118000DF017FF0300238003E03E23FB1801221A803E23FB18F9
:401000001B881800BD4610B0B0BDC046643601000C110020A4220020C8000020691300007902000000410100B02200208036010090B585B000AF0200FB1D1A70FB1D1B78BF
:40104000022B04D90E23FB1801221A804AE0294B1B78042B41D1284B1B78DBB21A00042313403AD1FB1D1B78002B0BD1234B1E221A82224B5B6820221A80204B5B68302239
:401080005A8010E0FB1D1B78012B0CD11B4B96221A821A4B5B68C822D2001A80174B5B688022D2015A80164BFA1D12781A700E23FC18124B18000BF0E7FA030023800E230D
:4010C000FB181B88002B0DD10B4B1B78DBB204221343DAB2084B1A7004E00E23FB180422FF321A800E23FB181B881800BD4605B090BDC046B0220020BB220020180C002080
:40110000BA22002080B584B000AF78600A00FB1C1A700023BB60BB68002B20D07B689A79BB681A700F23FB1800221A7012E00F23FB181B780133BA68D3180F22BA18127870
:4011400079688A5C1A700F23FB181A780F23FB1801321A700F23FB181B78052BE7D9C046BD4604B080BDC04680B582B000AF78607B681B789AB27B6801331B789BB21B02B9
:401180009BB213439BB21800BD4602B080BDC04690B585B000AF78600F23FB1800221A707B689B890F22934232D17B68181D7A680F23FC18402300210DF048FE0300237090
:4011C0000F23FB181B78002B1AD17B685B681800FFF7CAFF03001A00022313409BB2002B07D00F4B1B687968822252001000984706E00B4B1B6879680622FF321000984715
:40120000084B1B78DBB201229343DAB2054B1A700F23FB181B781800BD4605B090BDC046A4220020BB22002090B585B000AF78600F23FC187B681800FFF7AAFF0300237087
:40124000154B1B78DBB21A00012313401FD10F23FB181B78002B16D00823FB1812229A707B689A890823FB181A800823FB180F22BA181278DA700823FA187B681100186864
:401280000CF064FB03E07B6818680CF0D7FBC046BD4605B090BDC046BB22002080B582B000AF7860C046BD4602B080BD80B500AF044B00225A70034B00221A70C046BD46A9
:4012C00080BDC046B822002080B582B000AF7860C046BD4602B080BD80B500AFC046BD4680BDC04680B584B000AF78600E23FB1800221A707B689B79002B1CD10F23FB1867
:4013000000221A7012E00F23FB181B787A68D35C002B04D00E23FB1801221A700BE00F23FB181A780F23FB1801321A700F23FB181B78052BE7D90E23FB181B781800BD46B8
:4013400004B080BD80B582B000AF0200BB1D1A80C046BD4602B080BD80B582B000AF7860C046BD4602B080BD80B588B000AF02003960FB1D1A70CB4B1B78DBB2012213430C
:40138000DAB2C84B1A70FB1D1B78412B00D1A9E123DC212B00D1EFE00DDC022B00D1C1E002DC012B3BD0F8E1052B00D1BFE0062B00D1C1E0F1E1272B00D117E106DC242BD0
:4013C00000D109E1262B00D11CE1E6E1282B00D114E12A2B00D104E1DFE14F2B00D1CFE10BDC432B00D19CE100DA97E14C2B00D1B4E14E2B00D1C5E1CFE1572B00D1C3E104
:4014000006DC502B00D1C1E1542B00D1ABE1C4E1712B00D140E1FA2B00D1A9E1BDE11023FB1803221A701023FB1800225A701023FB18180002F040FF1023FB1803221A7004
:401440001023FB1801225A701023FB18180002F033FF0B23002B01D000F040FF924B1B681800FFF73FFF031E11D08F4B1B68180000F040FF8C4B1B6800211800FFF742FE43
:40148000894B1B6801211800FFF73CFE36E0874B1B781A003F231A40854B1B789901FC231B010B401A43834B1B781903F8235B020B401A43804B1B785904FE231B040B4057
:4014C0001343BB61BB69DAB27C4B1A70BB691B0ADAB27A4B5A70BB691B0CDAB2774B9A70764B180000F006FF744B00211800FFF709FE724B01211800FFF704FE00200AF0A6
:4015000067FF0C23FB183F221A700C23FB1800225A700C23FB1818000AF078FF684B04221A703AE13B681800FFF7CEFE35E13B681A78644B1A7030E13B687B617B691B7899
:40154000002B00D024E17B695B78002B0BD15E4B0022DA805C4B00229A805B4B5B4A1A607B69594A5A604F4B1B78DBB201229343DAB24C4B1A700BE14A4B1B78DBB21A0084
:401580002023134000D005E1514B1B78102B02D14F4B0522DA704F4B1B784D4A110018000BF034F803001A000A23FB181A800A23FB181B88002B06D0474B1B680A22BA1895
:4015C000110036209847374B1B78DBB201221343DAB2344B1A70DDE03B685A783F4B1A70DBE03B681800FFF7B7FED6E03B681800FFF7B2FE324B02221A70CEE0304B0422FD
:401600001A70CAE02E4B1B78022B00D1C4E0254B1B78DBB21A000123134000D1BCE0214B1B78DBB21A00042313400BD0244B03221A701C4B1B78DBB204229343DAB2194BAE
:401640001A70A9E0174B1B78DBB21A00082313400BD01B4B04221A70124B1B78DBB208229343DAB20F4B1A7096E0154B1B78032B00D091E0124B04221A70194B1B78002B58
:4016800000D089E00120FFF7D3FC031E00D083E00B4B03221A707FE03B681B881800FFF751FE7AE0BB220020340C00207CF2FF0F7DF2FF0F7BF2FF0F78F2FF0F2C0C0020B5
:4016C000B0220020B422002010110020A80B0020E80C0020B8220020A4220020A8220020BA2200203A4A3B681000190002231A0000F0B7FD374B00221A70354B1B789E33CF
:401700009A00354BD3180133344A1000190004231A0000F0A6FDFFF7DFFD3EE0FFF7C6FD3BE03B685B88162B05D81E23FB183A6852881A8003E01E23FB1817221A801E23D8
:40174000FB1819883B681A8800231204120C1B0C1B04134318000CF003F91EE03B681800FFF762FD19E03B681800FFF797FD14E01B4B1B7801221343DAB2194B1A700CE055
:40178000C0460AE0C04608E0C04606E0C04604E0C04602E0C04600E0C046124B1B78DBB21A00112313400ED00E4B1B78DBB201229343DAB20B4B1A700B4B1B68FA1D12784D
:4017C000396810009847C046BD4608B080BDC046B8220020B422002000410100AC220020A0220020BB220020A422002080B500AFC046BD4680BDC04680B584B000AF020026
:40180000FB1D1A700F4B1B68DAB20F23FB1840218A431A70FB1D1B789B01DBB240221340D9B20F23FB180F22BA1812780A431A70044B0F22BA1812781A60C046BD4604B0D0
:4018400080BDC0460003044080B500AF00F04CF8C046BD4680BDC04680B500AF064B064A1268802109060A431A6000F019F800F01DF8C046BD4680BD0000244080B500AF70
:40188000064B1B78002B04D1FFF7DEFF034B01221A70FFF7E1FFC046BD4680BD1811002080B500AFC046BD4680BDC04680B500AF00F07CF8C046BD4680BDC04680B582B0E6
:4018C00000AF7860C046064B1B681F221340082BF9D0044B7A681A60C046BD4602B080BD080224404002244080B500AF1B4B1C4A1A601C4B00221A601B4B1C4A1A601C4B66
:401900001C4A1A601C4B07221A601C4B00221A601B4B01221A601B4B164A1A601A4B00221A601A4B04221A60194B00221A60194B00221A60184B00221A60184B00221A6073
:40194000174B00221A60174B00221A60154B1B689AB2154B1A80C046BD4680BD000024400B000002400024404800244001000A000003244007000080040324401003244060
:4019800044002440000224400402244050002440880E2440C80E2440480F2440080F2440C80F2440880F24401A11002080B500AF074B074A126807490A40902109040A436A
:4019C0001A60054B054A12881A60C046BD4680BD00000240FFFF0FFF880F24401A11002080B584B000AF0200FB1D1A700F4B1B68DAB20F23FB1810218A431A70FB1D1B7843
:401A00001B01DBB210221340D9B20F23FB180F22BA1812780A431A70044B0F22BA1812781A60C046BD4604B080BDC0460000044080B584B000AF0200FB1D1A700F4B1B6811
:401A4000DAB20F23FB1802218A431A70FB1D1B78DB18DBB202221340D9B20F23FB180F22BA1812780A431A70044B0F22BA1812781A60C046BD4604B080BDC04600000440AB
:401A80000230800803D00138FDD1C046C046C0467047EFF3108072B6704780F31088704790B583B000AFFC1DFFF7F3FF03002370074B074A126804218A431A6030BFFB1D68
:401AC0001B781800FFF7E9FFC046BD4603B090BD10ED00E080B582B000AF78600A00BB1C1A80BB1C1A887B681A60C046BD4602B080BDC04680B582B000AF78600A00BB1C6B
:401B00001A80BB1C1A887B681A60C046BD4602B080BDC04680B584B000AF494B1B78DBB21B02484A1278D2B21343FB60464B1B78DBB21B02454A1278D2B21343BB60BB68FE
:401B4000434A934207D1FB68072B04D1414BBB600423FB6009E0BA68D4231B019A4204D1FB68042B01D13B4BBB603B4BBA681A603A4BFA681A603A4B1B78DBB21B02394AFC
:401B80001278D2B21343FB60FA6880239B019A4202D0FB68002B01D1334BFB60334BFA681A60334B1B78DBB21B02324A1278D2B21343FB60FB68304A934206D0FB682F4A2A
:401BC000934202D0FB68052B01D12D4BFB602D4BFA681A602C4B1B681B097B602B4B1B68AA2B29D17B68012B26D9214B1B78DBB20E2B21D1264B1B78DBB29BB21B0299B2E6
:401C0000244B1B78DBB29AB2BB1C0A431A80224BBA1C12881A60214B1B78DBB29BB21B0299B21F4B1B78DBB29AB23B000A431A801C4B3A0012881A60C046BD4604B080BDCC
:401C400059F1FF0F58F1FF0F5FF1FF0F5EF1FF0F580B0000580D00006C002E4074002E405BF1FF0F5AF1FF0F0220000078002E405DF1FF0F5CF1FF0F0F0F000005050000DC
:401C8000050F000080002E40EC0F00F0E00F00F06DF2FF0F6CF2FF0F84002E406FF2FF0F6EF2FF0F94002E4080B582B000AF0200BB1D1A80BB1D1B881800FEF769FFC0462E
:401CC000BD4602B080BDC04680B582B000AF78607B681800FEF736FFC046BD4602B080BD80B500AF00F0ECF8C046BD4680BDC04680B500AF00F0F0F8C046BD4680BDC046D5
:401D000080B500AF00F0E8F8044B180000F0A2F8032000F0ADF8C046BD4680BDF11E000080B500AF034B180000F080F8C046BD4680BDC046F11E000080B500AF014B18009C
:401D4000BD4680BD0102000080B582B000AF78602B231800BD4602B080BDC04680B582B000AF78602B231800BD4602B080BDC04680B582B000AF78602B231800BD4602B07F
:401D800080BDC04680B582B000AF78602B231800BD4602B080BDC04680B582B000AF78602B231800BD4602B080BDC04680B582B000AF78602B231800BD4602B080BDC046FC
:401DC00080B582B000AF78602B231800BD4602B080BDC04680B582B000AF78602B231800BD4602B080BDC04680B500AF2B231800BD4680BD80B582B000AF0200FB1D1A7007
:401E00002B231800BD4602B080BDC04680B582B000AF786039602B231800BD4602B080BD80B500AFC046BD4680BDC04680B582B000AF786000F050F87B68180000F00AF822
:401E4000032000F015F800F03BF8C046BD4602B080BDC04680B582B000AF7860034B7A681A67C046BD4602B080BDC0460000002090B585B000AF0200FB1D1A700623FB6013
:401E80000B23FC18FFF705FE030023700B4B0B4A1268C0218A431100FA1D1078FA68904002000A431A600B23FB181B781800FFF7F4FDC046BD4605B090BDC0460CE400E01F
:401EC00080B500AF034B802252011A60C046BD4680BDC04600E100E080B500AF034B802252011A60C046BD4680BDC04680E100E080B500AF11F038FBC046BD4680BDC046A2
:401F0000002243088B4274D303098B425FD3030A8B4244D3030B8B4228D3030C8B420DD3FF22090212BA030C8B4202D31212090265D0030B8B4219D300E0090AC30B8B4230
:401F400001D3CB03C01A5241830B8B4201D38B03C01A5241430B8B4201D34B03C01A5241030B8B4201D30B03C01A5241C30A8B4201D3CB02C01A5241830A8B4201D38B02F1
:401F8000C01A5241430A8B4201D34B02C01A5241030A8B4201D30B02C01A5241CDD2C3098B4201D3CB01C01A524183098B4201D38B01C01A524143098B4201D34B01C01A66
:401FC000524103098B4201D30B01C01A5241C3088B4201D3CB00C01A524183088B4201D38B00C01A524143088B4201D34B00C01A5241411A00D20146524110467047FFE7C2
:4020000001B5002000F0F0F802BDC0460029F7D076E7704703460B437FD4002243088B4274D303098B425FD3030A8B4244D3030B8B4228D3030C8B420DD3FF22090212BA38
:40204000030C8B4202D31212090265D0030B8B4219D300E0090AC30B8B4201D3CB03C01A5241830B8B4201D38B03C01A5241430B8B4201D34B03C01A5241030B8B4201D364
:402080000B03C01A5241C30A8B4201D3CB02C01A5241830A8B4201D38B02C01A5241430A8B4201D34B02C01A5241030A8B4201D30B02C01A5241CDD2C3098B4201D3CB012D
:4020C000C01A524183098B4201D38B01C01A524143098B4201D34B01C01A524103098B4201D30B01C01A5241C3088B4201D3CB00C01A524183088B4201D38B00C01A5241B9
:4021000043088B4201D34B00C01A5241411A00D201465241104670475DE0CA0F00D04942031000D34042534000229C4603098B422DD3030A8B4212D3FC22890112BA030A5E
:402140008B420CD3890192118B4208D3890192118B4204D389013AD0921100E08909C3098B4201D3CB01C01A524183098B4201D38B01C01A524143098B4201D34B01C01A85
:40218000524103098B4201D30B01C01A5241C3088B4201D3CB00C01A524183088B4201D38B00C01A5241D9D243088B4201D34B00C01A5241411A00D20146634652415B1034
:4021C000104601D34042002B00D54942704763465B1000D3404201B5002000F005F802BD0029F8D016E770477047C046014B18687047C046A41000200E4B70B500251E0086
:402200000D4CE41AA410A54204D0AB00F35898470135F8E711F03AFB084B00251E00084CE41AA410A54204D0AB00F35898470135F8E770BD983801009838010098380100D7
:40224000A038010030B50024A24208D0035D651C0C5DA34201D0181B02E02C00F4E7002030BD002310B59A4203D0CC5CC4540133F9E710BD03008218934202D019700133DE
:40228000FAE77047134A1088810703D08107890F401A001D11791030484381B25088820703D08207920F801A001D800040180A494030098980B2CA0701D0503080B28907BF
:4022C00006D504495422091F09785143081880B270470000F40C00202811002010B501F00BFF10BD10B501F00DFF10BD10B500F05BFA10BD10B50749044609780220002963
:4023000007D1204601F04EFF002802D120460AF063F910BD900E002070B504460120002C12D02368002B0FD0616800290CD0074D06222889208118462968FFF792FF6968C9
:40234000606809780170002070BD000028110020FFB585B0002768460E9D07734F481C460078002802D0082009B0F0BD10990F9801900095029105A807C800F007F9002884
:40238000F2D16946264603AB84460873002C19D0002115E08A00B75A082F09D990198078002805D0083FB7521878401C187005E0002914D00027B75290198770491CC9B269
:4023C000A942E7D360460028CED10F98002809D0109901F041FA002804D00120C4E701208446EFE701F08EFE2D480021416081600599016021888180022D07D3A179817172
:40240000A17AC171A1890181218A418100211EE0481C19E082008B00A75AE65ABE46BE4211D26F463E80B4461E190296B678BE7001967646E6521719029EBB78B370664690
:40244000A652019EBE70401CA842E3D3491CA942DED3134822460C3000906846037B0799069800F01BF90028B8D168460B4C007B60700B480C3001F075FE0028AED10849B1
:4024800007480C3107F07EF90028A7D107F098F90028A3D10121217066E70000EE0C00201C110020F8B5054636480F460078002802D002242046F8BD002F60D0002432497B
:4024C000002D16D02A89D0070DD02868002808D003881B3BE12B04D24088FB2801D81B2801D2012409E0900707D56868002804D1F7E70020088108604860002CDAD122480F
:402500002E8906811F481B21801D01804180042101711C490020891C0870F00705D019480622801D2968FFF79CFE1749B00703D56A68144812788270124D0E46AD1D281F32
:402540000D60486001F054FE284601F043FE30890DF08CFD30890CF075FF28880CF078FF30890DF0EDFE03461033FFF78BFE1F21C018890140183880A91F88809AE7012404
:4025800098E70000EE0C002028110020FFB58446384F1C460020BB883F78054602460646002F11D100290ED0029999420BD36146002908D0002C06D00A99002906D02E4B98
:4025C0000B99994202D2012004B0F0BD002144E0AB001F19BF78002F3BD0E35A002B38D07B43591889B22B0000F04AF8050410161C253100A7782388BC46FF27233BEB3723
:40260000BB4222D26346032B1FD322E0A388002B1FD0302B19D31CE02389002B19D0282B13D316E0A289002A13D01346134F233BBB420AD20DE0268A002A0AD033460F4FC5
:40264000233BBB4201D2964203D901200EE0002001E000280AD16D1CEDB2099B9D42B7D31C2463435B1802998B42ACD89642AAD8AAE70000EE0C002079020000BAFF0000B2
:4026800030B47446641E2578641CAB4200D21D46635D5B00E31830BC18470000FFB583B0002469460C801F4606468C80002806D00598002803D004983043800701D0012435
:4026C00066E0002FFBD03449049809888842F6D3FFF726FBFFF70CFB00F012FC002855D100F07AFD002851D12C49084601F0E8F805042D0C4AD12A480499066081800021C4
:40270000C18007810C98007AC00704D0684601F012FD040007D10C98007A800703D501A801F012FD0446BF1DFEB2002C20D13146059800F05DF804001AD10DF00FFE04001E
:4027400016D16A461088928808368518144AF1B29088D288AEB29319984207D3401B801A80B201F09DFB050007D000E0FF25012400F05EFA002D04D008E0F8B200F01CF96D
:40278000F6E700F081FA07490120087000F0CAFB204607B0F0BD0000F20C0020DD28000034110020FA0C002010B503480078012801D101F017FA10BDFA0C002070B5084BCB
:4027C0000446DA889E8803205518B54206D8186880182060D8884018D880002070BD000034110020014800897047000034110020F0B587B007460D4600208900009006910E
:402800006846FFF7DBFF844600285DD1304800990160002117E02E4B88001A680629115406D22C4C0419667882185670628805E0C419203CA67A8218567022891B68C01820
:40284000491C4280C9B2A942E5D300242DE0601CC2B2059025E01E4FA30039689600581840887118039604904E88B04217D938466F46FE80B6464F786E4677710297049F1F
:402880004F800168039F5E18767879184E700168764659184E800068029F18184770521CD2B2AA42D7D30598C4B2AC42CFD36046002809D168460699FFF780FF84460028B0
:4028C00002D1054900980860604607B0F0BD0000FC0C0020C0380100000D00207047000010B5002809D005494A68002A05D0011F08788000105801F081FA10BDFC0C0020FA
:4029000010B50446FFF76EFFC0B2801DA0420CD307484068002808D0A100405801F0E0F9002801D00470001D10BD002010BD0000FC0C0020F8B516460D460446FFF752FF02
:40294000C0B2801DA04203D20020C0430090F8BDB2B2E9B2684601F0E9F90099481C03D0024AA000526811500098F8BDFC0C0020F8B50746FFF736FF801DC6B20A490020B0
:4029800005460C680DE06178002907D06188B94202D32078FFF7B4FF002804D1241D6D1CEDB2B542EFD3F8BDFC0C002010B5002801D0FFF795FF10BD70B5064609480025A0
:4029C00004680BE06178002905D062882078121D0023FFF7AFFF241D6D1CEDB2B542F1D370BD0000FC0C0020FFB581B00A9F16000C4620D000F0F2F8054604281BD0002F67
:402A00000CD03846FFF7B4FF20492A0151184860002810D03A460499FFF723FC1B4928010E504618778101980570200406D47D20C000444304E0FF2005B0F0BD6404640C46
:402A400000F0BAF80746042807D000F04FFAA0420BD800F04BFA201A03E0204600F0AAFA0020F06035720020E6E700F03FFA009000F0B6FA00980121001B009000F0ECF884
:402A800002493A0151180098C860E6E740110020F8B5060116483418217A042903D0E068002802D017E00020F8BD00F01FFA054600F096FA00F0A0F804280CD001010C4868
:402AC0000F18F8680021451900F0C6F80020F860284600F06FFA6068054D002801D0FFF765FF042020720020A8516081E060DAE740110020FEB500266A46304601232549C3
:402B0000050169180D7A042D02D0C96800291BD000211154401CC0B20428F0D300246846005D002830D01B4821010818418947680568029100210160416004224181027208
:402B4000C160002E02D015E01354E3E700F054F804280ED001010F4808180190C6680021304600F079F801980021C160304600F021FA0126002D07D038460299A847002FDA
:402B800002D03846FFF712FF641CE4B2042CC6D3FEBD0000401100200EB5002005216A460090118150810348694600680EF03BFA0EBD0000040D0020074A00200101891862
:402BC0000B7A042B02D0C968002903D0401CC0B20428F3D370470000401100200549002002015218127A042A03D0401CC0B20428F6D370474011002030B50A4B04200A4C33
:402C000000210A011219157A042D06D0D268002A03D09A4201D808461346491CC9B20429EFD330BDFFFF0000401100207047000030B50020074C05460423020111190B72BE
:402C4000A5504D60401C4D81C0B2CD600428F4D330BD00004011002030B5094C00231A011219157A042D04D0D568002906D02D18D5605B1CDBB2042BF1D330BD2D1AF7E7A2
:402C800040110020002070471CB5002469460C70142001902346054A05480EF0C9F904480068401C00D1FF2420461CBD052D0000040D00203EB5124A0146FF20002301247F
:402CC000126800290DD0012914D0042908D104206946009308814B8110460EF0A4F980B23EBD6846009304814381694610460EF095F9F4E768460093048143816946EBE766
:402D0000040D002070B545890468416800890300FFF7B6FC08280509091E22282628002005F0ECFB1EE0022908D0C8B22A4621460CF0DCFA2046FFF739FE13E002202A46F1
:402D400021460CF0D3FA2946204600F00DF809E000200DF067FE05E02046FFF7CBFE01E0FFF75EF8002070BD014B0022DB681847080D002070B5448905680089022803D040
:402D8000032809D0FF2070BD2246094C0023A46829460120A04708E0FFF7A4FA241DA2B200232946022006F0A0FB002070BD0000080D002070470000024800214160018044
:402DC00041807047080D002070B50C46002186B016460391012802D0022859D116E003A9012006F0D7FB01281BD1039D324621462846FFF736FA00952878019002206946CF
:402E000008814E816846FFF7B5FF41E0214D002B686809D0049004A9022006F0BBFB01281DD0022006B070BD002812D0298840182146FFF716FA28880024801980B228808E
:402E40006988091D884206D12C801348FFF792FF03E00320E6E788421AD96C6018E004986860E278A378110219430B4A698000231060E3565360032313815181A17881701D
:402E8000E178C1706178417021780170042028800020C7E7080D0020801100203EB515460C46022803D004280CD000203EBD0091019002206946088107484A8100680EF0B8
:402EC000B2F807E00CF012FA044B0022DB6829462046984701203EBD040D0020080D0020014AD16090607047080D0020034801688068081A0A214843000970478C11002006
:402F000010B5FEF7FDFE482204490548FFF7A9F903490120C870002010BD0000DC3801009015002010B5FEF7DBFE10BD70B5134C2368002B08D0207B1149C20705D0400887
:402F4000400020738868A08070BD88680B4AA18880B29268814203D90A4D691A091802E0814202D2411A5118A160A080A0689842EAD30EF075F800F013F870BD8C110020C0
:402F8000C0102E40FFFF000010B508461946FFF7A7FF10BD704710B5FFF780FF10BD000003480021016041608160C160704700008C110020024610B5FF20002A0CD0FFF730
:402FC000EFFF064C0321207B0843207310010A21FFF71CF82060002010BD00008C11002000B504480A21806848430209FFF7D8FF104600BD8C1100200248007B8007C00F22
:40300000704700008C11002010B54B490868002802DA4A4B01221A70022290430860484800694549C00B4031096A0246C907C90F0A4259D0012000F097FA3F480E216C301F
:40304000FEF758FD3E4820218430FEF753FD3C4814219C30FEF74EFD3948FF21C131A430FEF748FD3648FF212F31B030FEF742FD33483449BC30FEF73DFD31483249AC30EB
:40308000FEF738FD30492E48491CB430FEF732FD2B482E49B830FEF72DFD29482C49CC30FEF728FD26482B490830FEF723FD24482949A830FEF71EFD214828498830FEF721
:4030C00019FD1F4826498C30FEF714FD1C481921C9029030FEF70EFDFEF71CFDFEF72CFEC0B2022812D01FE000290BD0002101420AD0114801216030FEF7FCFC0120FEF7FF
:40310000E3FD97E70121F2E7FF2010BD15491648FEF7F0FC14481549001DFEF7EBFC124800210830FEF7E6FC54200449C043891C0870002010BD000000F02E40180D0020FF
:4031400000002E40320300002F3F00003102000010520000EC160000FA12000031D000003AE300009956000080012E40F80F000070B50646581C80B245086D00002408E0BB
:40318000304600F0C1F81055000A1119A41C4870A4B2AC42F4D3D80705D0D0182038D15CC47FD454C17770BD30B50A4C002100195B1E07E0541864782502545C2C430480FC
:4031C000891C89B29942F5DB994201D1515C018030BD000000102E4010B5FF2000F0C4F90F49FF2048700E481021801D41800121417001700A490020C91C4870FFF704FF0C
:4032000004000AD100F010F907210648FEF762FC044807211830FEF75DFC204610BD0000180D0020CC112E4070B5002405465B1E0AE0284600F068F8010A161971702D1D06
:403240001055A41CADB2A4B29C42F2DB9C4203D1284600F059F8105570BD000070B500210A4D5B1E0AE0541864782602545C344346193480001D891C80B289B29942F2DB55
:40328000994202D1515C4019018070BD00102E40F0B50599091FCFB200217E1E0BE0541864782502545C2C43164D45192C80001D891C80B289B2B142F1DBFC0712D01C7838
:4032C000515C24020F4A0C4381180C809C785D78001D210280B2294384182180001D80B2D9780CE059781A7809021143054A84182180001DD9789B78090280B2194380189E
:403300000180F0BD00102E40014940180088704700102E4010B50B490020487000F084F8002000F047F9002000F034F907210648FEF7D0FB044807211830FEF7CBFB0020CB
:4033400010BD00001B0D0020CC112E4010B50B46062812D006DC01280CD0032801D1FFF7D9FF10BD0A28FCD00B28FAD105480078107010BDFFF730FF10BD1146184600F0A3
:4033800035F910BD1E0D0020F8B5244DAC6A0127A007234E002816DA307806280ED1286A384328621F480069F903084381B21D481030FEF79FFB042000F0D6F8174802210D
:4033C0002830FEF787FBE00718D000F01DFF01280FD1002000F06AFF062000F0C5F81049FF20C91E48707078002802D1686B384368630A4801212830FEF76CFBE0050BD5CE
:403400003078042802D1052000F0AEF80348FF2101312830FEF75EFBF8BD000040F02E401B0D002000002E4010B503212348FEF761FB0120FEF738FC20483038406A204C09
:4034400080076178800F890001431C480C38FEF751FB6078002808D0401E022181401820FEF7BEFEC000083800E0B82081B21548FEF740FB1348032109021438FEF73AFB2C
:4034800010481149B830FEF735FB612189010F48FEF730FB0D480321001FFEF72BFB0C490C48FEF727FB0B480B496038FEF722FB084801218838FEF71DFB10BD70F02E402C
:4034C0001E0D0020D8102E4090890000041E2E40FF0F000058122E40209000000848017806290BD140780749002803D1486B400840004863C86A01221043C86270470000A5
:403500001B0D002040F02E4001480078704700001B0D002000B50300FFF7B2F8080D050D0B070507090D012000BD032000BD042000BD022000BDFF2000BD0000074A91688E
:40354000D26889B2064B92B2994204D105498A4201D1012100E000210170704780002E4033D000003FE3000010B50446FEF7C0FB072C01D9FF2C01D102480470FEF7B0FB20
:4035800010BD00001B0D00200149487070470000180D002010B5064A012805D01921C9021046FEF7A7FA10BD1D21C902F8E7000090002E4010B50A4A141D012808D00949A4
:4035C0001046FEF797FA08492046FEF793FA10BD04491046891CFEF78DFA0349491DF3E788002E4031D000003AE3000070B50C460546FEF7A1FBC0B202280E49287804D0CB
:40360000FF2810D04C280CD810E0FF2809D10A4AD0680004800F032801D0087807E09069000A553803E00878207070BD4F382070087070BD1A0D002000002E40F0B50122CF
:40364000002834D0002932D00424420600D00524792342065B06D21800D0641C034600221EE00C2516466E43124D00277519AF72104F002ABB51696007D0661EB24209D1A8
:403680000D4E86197606760E05E05E06760E8027BE1B00E080269B198919521C2E81D2B2A242DED303480549006B002288611046F0BD00001814002079020000240D002087
:4036C00018B50020694608700A48006900280ED0132149014018047E684604704F21C900054800F059F8A04201D0012018BD002018BD0000240D00209C1100200749002088
:403700000C2242435218927A012A05D0401CC0B20628F5D3002070470120704718140020F8B50E000446154609D0194F19497868A04202D94018A04201D38D4201D9012029
:40374000F8BD31462046FEF77DFD00281ED02A4631462046FEF785FDE8B200210C224A43D21913895568EE18A6420BD90126641B1B1B9672834209DA1469C01A044AC0B23F
:4037800020329676491CC9B20629E7D30020F8BD1814002079020000034610B50020024604E09C5C2018521CC0B292B28A42F8D310BD000070B500F05FF8084C064A21699A
:4037C00007480D46FEF74DFD05492846FFF736FFFFF776FF207070BD79020000240D00209C110020002070470020054A002902D0012902D002E0906000E0D060002070474A
:40380000240D002070B5084C154608460549E26889182A46FEF725FDE0684019E06028B270BD00009C110020240D00203EB50A226946FFF7E7FF044606480A2200686946CA
:40384000FEF700FD002802D00020C0433EBD20463EBD0000280D0020002802D0044A914201D2FF20704703494A6108610020704779020000240D0020024800218160C16054
:4038800070470000240D002070B5074C15460548A26880182A46FFF743FFA0684019A06028B270BD9C110020240D002010B503490A220968FFF7E8FF10BD0000280D002063
:4038C00010B50F4A002313600E4A13600E4B18600E4801600E49012008600E490860000290600E490C4808600D4914300860FF381538506000F0BCF800F0CAF9002010BDA3
:40390000580D0020400D00206C0D0020700D00205C0D00204C0D002060150020500D0020640D0020014610B50020002910D0094B1A689C685118A14209D2586819608018B3
:403940008A0704D08A07920F891A091D196010BD002010BD400D0020F8B50024164E671E321F3D463168136806E01422624310328A58521C1BD0641C9C42F6D36A1C14D0D6
:403980002C461422544322460C3288500C214843FFF7C8FF3168002808510AD031680020103408517068401C70602846F8BD2546E4E73846F8BD0000500D0020F3B50026B0
:4039C000F64381B000281BDB1E490968884217D80299002914D01B4F142204463F1D54432546396810354859401C09D0FEF780F938682F1F4159C359994203DBFEF770F9D9
:403A00003046FEBD214608310091465801590C20704308180C220299FEF723FC0948761C001D0068C159B14200D100260549009A091D865008684159491C4151FEF750F9C1
:403A40000020FEBD4C0D0020002803DB07490968884202D90020C043704704491422091D0968504310300858704700004C0D0020F0B500200D4A451E0346171F50600FE092
:403A800014260146714314680E1DA3510C461668083433511668083435511468401C635039688842ECD30020F0BD0000500D0020F3B50026F64381B0002841DB234909680E
:403AC00088423DD8029900293AD0204F142204463F1D54432546396810354859401C2FD0FEF706F93868415900292BD0211D009146580C21005971430F46C1190C220298FA
:403B0000FEF7AFFB11480021001D0068761C00590C34C0190160416081600C48001D00680159B14200D100260849009A091D865008684159491E4151FEF7D2F80020FEBD5F
:403B40003046FEBDFEF7CCF8FAE700004C0D0020FEB504460D4600201E49089E0860471E009001900290002C11D0486885420ED2002A0CD0002E0AD0642E08D808460C3096
:403B800001681C2068430C18207A002801D03846FEBD0120226020721846FFF7DDFE6060401C13D06681A6810A4827610C3067610179A94200D205710021684601810A4628
:403BC0002846029B00F040F82846FEBD00202072DDE70000580D002038B50124009400F039F838BDFEB50027164EFF433D4600240EE01C20316860430818017A002906D08B
:403C00004068FFF721FF002801D0254603E0641C3079A042EDDA681C12D01C2130684D434419FEF765F869466068FFF741FF0546FEF756F8002DD9D1216868468847D5E75F
:403C4000FEBD0000640D002038B50024009400F001F838BD1FB500220C49541E0A60002811DB496888420ED808491C220C31096850430818406801A9FFF7A0FE401C02D0D5
:403C8000002004B010BD2046FBE70000580D0020F0B50021114A4D1E174611710C3F0B46BD6016E008461C2460431668041D355114680646235014680836A3551468361D6A
:403CC000A353044616680A34335318301468491C255078688142E5D30020F0BD640D002038B500210091002811DB0F49097888420DDA0D4D04010C3529680859002807D01D
:403D0000201D0818694600F06FF9002801D0002038BDFDF7EDFF28680F34015D491E0155FDF7DEFF009838BD740D0020F7B582B0002502986E1E06602E48D21C02401746B2
:403D40002D4A2C4610460C380178106805E02301C358002B0FD0641CE4B28C42F7D3711C28D03401211D40180191039900F02AF900281FD101E02646F1E71F4801682046EF
:403D80000C300F521C480399026820460E30115419480399026820460F3011540398784300F0A0F8144900280968085102D00024009011E001251AE00F4801680198081845
:403DC000009900F02CF9002801D0012502E00098C0190090641CE4B203988442ECD3002D05D10298066004480179491C0171284605B0F0BDFCFF0000800D0020F8B50D46C5
:403E000000216A468C461180002839DB23490978884235DA214B04010C3319680A59002A2ED020460C300B5A801C0E5C184670438018954224D3854222D2002006E00746FE
:403E40005F43BF18AF4206D0401CC0B2B042F6D36046002814D0114E271DC8190C366A46294600F006F900280AD168460088012808D030682946C01900F0D1F8002803D025
:403E80000120F8BD0020F8BDFDF732FF30680F34015D491C0155FDF723FFF3E7740D0020F8B50F46002400F031F8002817D10C4900220B460C334A600EE021011D680E46C4
:403EC0006A501D680C36AA53B61C1D680F31AA551D68641C6A54E4B2BC42EED31A71F8BD740D002000280BD0C01C074A81085068890053884118994203D8936851601818F5
:403F00007047002070470000740D0020F8B5064600200F4D009029700C0121466846FEF74DFC00280CD129460C3100980860301B001F84B221466846FEF740FC002801D0C4
:403F4000FF20F8BD6C800098A8600020F8BD0000740D0020F8B5002827DB19490978884223DA174C05010C342168485900281CD028460C30085A009028460E300E5C401CF5
:403F80000E5420682F1DC01900F064F800280CD12068002445590EE0094829460C300068C01900F03CF8002801D00120F8BD00982D18641CE4B2B442EED30020F8BD0000BA
:403FC000740D002030B50D4604000BD0A800FFF789FF6060002805D000202570C0436080002030BD012030BD70B50D46040005D0002D03D00220205E002801DA012070BD31
:40400000FDF776FE0221615E60688900405828606088401E6080FDF763FE002070BD70B50D46040007D0002D05D002212078615E401E814201DB012070BDFDF759FE6088B0
:40404000401C00B26080616880000D50FDF748FE002070BD10B5040009D0227800216068FEF708F90020C0436080002010BD012010BDF0B500231D46002802D00224045F7E
:404080000AE00120F0BD46689F00F6598E4201D1012503E05B1CDBB29C42F4DA15700020F0BD00000148007870470000880D00207CB505460024FEF715F9A87969460870E7
:4040C00000A8062229460130FEF7CBF80021684604F0DAFC0C2806D0072806D01F2806D0122806D006E0022404E0042402E0272400E0012420467CBD014801214172704705
:404100009816002010B500F05FF9FFF7FDF9FFF701FA10BD70B504460025FEF7E3F8002C06D0A079012803D8214602F073FC00E00125284670BD01460120002902D050203B
:40414000088000207047000001460120002905D0034854220078504308800020704700008A0D002010B502460D49FE204870032410460DF07BFA002810D10DF01FFA002829
:404180000CD105F063FA002808D100F013FB002804D104F01FFF002800D10024204610BD880D002070B50025044600280ED0A07901280BD8FEF796F8A0790028204602D002
:4041C00002F0B6FF03E002F08BFF00E00125284670BD0000014610B50120002904D006220248FEF73EF8002010BD0000940D002001460120002903D00878024908700020DC
:40420000704700008A0D00200148007A704700009816002038B504460120002C20D0617801291DD800290BD0FF25E535FEF75AF80C4828180088C0B22070072803D00EE0C5
:40424000FF25CD35F2E70020694608706846FFF775F969460878012801D108202070002038BD000000102E40014A002192681047880D002008B500226B461A7026280CD0BB
:40428000094A342852680BD0352805D1900703D50021352005F0B6FA08BD19462620F9E7D007F9D03420F5E7880D0020014908727047000098160020F8B504460120002CA1
:4042C00026D06178012902D92278092A20D8002905D0FF25E5352078092803D004E0FF25CD35F8E708202070FDF7FCFF2078114F114E08280DD00020FFF75CF970780128DD
:40430000207810D00D4969180880FE2070700020F8BD0120FFF74EF90720B8810549203188800120F2E7B8810248217820308180EBE70000C0112E40880D002000102E40C3
:4043400070B50E46050001D0002400E00C4C002C11D0E28A500609D5D107C90F022002F07BFFE08A40218843E08204E0D107C90F012002F071FF3146284602F059FC70BD3F
:40438000F8150020F8B50546002004460D4E009013E022466946284600F0D2FF0098002801D00DF045F9A878214602F09BFAA878214602F089FA641CE4B2308AA042E8D802
:4043C000F8BD0000C416002038B51E4CFFF79CF8042813D0052811D0062812D003282AD007280AD100206946087002460120FEF7ADFFFFF789F80128FBD138BD00F077FBBD
:4044000038BD02F0C5FA00F072FB02F025FB8007800F0228F4D10C4841880029F0D05B21095D0029ECD101210170A07D0140022002F012FF38BD02F0AFFA0120FFF794F84B
:4044400038BD0000F8150020AE0D0020F8B50646002402F06FFF0546304602F085FF03460A480021068A0DE001228A401046174628401F40002803D0002F01D1224394B244
:40448000491CC9B28E42EFD82046F8BDC41600201CB50020694648706846FFF7BBFE01AA69460A20FEF752FF6946042008561CBD70B50D4601F02AFB04000BD020790028B9
:4044C00008D0FDF70FFFE178A0782A4602F036FC002070BD022070BD0148007870470000D01500204030C07E002800D00120704700B500F001F800BD902148430749084A0D
:4045000040186030417F491CC9B24177D289914201D300214177C8B270470000D8150020C416002013B501F0F1FA04000BD001F08EFE002807D0214601AA0A310620FEF7C1
:4045400005FF00201CBD02201CBD000010B50C4601F0DCFA00280AD001F079FE002806D0224604490A20FEF7F1FE002010BD022010BD0000B9150020F3B581B00746014603
:404580000026029802F0CEFE0446002F01D0002500E0154D002D21D0284601F0EDFA032C04D13946029802F019FF06463846029902F08AF9032C06D0002C10D001213846B6
:4045C00001F0E0FB03E03146384603F00DF9284602F06EF80221284602F084F8FEBD3846029902F071F9FEBDF815002010B5044600F066FA002804D103F0C4FD002801D038
:404600000C2010BD2078611C02F09AFCFF2801D01F2010BD02F0E0FCFF280AD02178621C02F0E0F8044821780068026B601C904710BD072010BD0000D40D002010B503F0A9
:40464000A1FD002801D00C2010BD02F05BFC03480068C06A8047002010BD0000D40D002070B50D46044610210CF022FF1021601806460CF01DFF334610221946204603F04F
:40468000AFFD102130460CF013FF02202870204604F0D6FB70BD0000F8B504464078217802028006870FE0781143A67809050002090D0643084601F029FA00210546F2B274
:4046C000002812D0002C10D0022F0ED0032F0CD0002A0AD00279092A07D0002A05D0134A5A23527E1B5C9A4207D82889002104F0DCFA20460CF09CFFFF21002914D10C4808
:40470000224600682946436930469847C0B2FF280AD128464030817EF2B2491C8176FF232146284600F0E3F8F8BD000090150020F00D00200020704710B5044603F022FD97
:40474000002801D00C2010BD2078611C02F0F8FBFF2808D002F030FB044821780068426B601C904710BD1F2010BD0000D40D002010B500F06BF904F02DFC002010BD10B522
:40478000044600786178E2780843A17811430843217908436179084305D003F0E5FC002803D00C2010BD122010BD204602F0C0FC002010BD10B5FDF7BFFA02F0DDFD0448D0
:4047C00003F04CFD02F002FB012000F003F810BDA0150020F1B586B003A8009005A8019028489F22817A114081726846FDF794FD002845D169460989C90705D022480699BB
:404800000068C2686846904769460989890706D5002835D11D480068816A0698884700282ED11B4E0025757075737571F575357675767575B570F570B5713746F57301205A
:40484000D03738731F20F880FF2130467972A0300176457600F0BCFA00242046069901F0A1FC002803D1641C2406240EF5D0FD720749BD72B573C0310D704D704D600D72E5
:4048800007B0F0BD90150020F00D0020D40D0020D815002070B505460E46084602F04AFD0446304602F060FD0121A9400A46224001400A4301D0012070BD002070BD10B5CE
:4048C0000446084602F050FD0121A140014201D0012010BD002010BD10B5FEF715FE032804D102F059F80120FEF73EFE10BDFEB51C4616460F46054601F0DAFEA878FFF7D0
:40490000F7FD02460190334639460094284600F00DF8002808D1A8780199FFF711FDFF2C02D138460CF084FEFEBD0000FFB585B005460E980C46FF2810D02B49C00009686F
:404940000A5840180179C0795278814201D9012601E09006860F6846038108E06078A1788006860FE0780002014368460181284601F078FC070007D021462846079A00F025
:4049800073FC384609B0F0BD304600F021FD04AE0346039002AA29460096204600F0ADFB3C20405D002818D0284601F05BFC012813D0684600890096C0B20190A878231DE8
:4049C000FF22079902F0E8F868460089039BC2B2A878079902F028FCD3E7684600890021C0B20091E9E70000EC0D0020F8B5002600253046FFF72AFD07001DD0902011497E
:404A0000704340186030447F12E0601CFDF7FEFACCB23846E040C007C00F07D02146304601F04AFF21463046FFF7A6FD6D1CEDB20548018AA942E8D8761C3606360ED7D044
:404A4000F8BD0000D8150020C416002010B502F0BDF90020FFF7BEFE0CF080FE002010BDF8B5002400F0B2F80123012800D10124104F00203E4620360425082203E000286F
:404A800001D0002100E031460979002907D001290BD002290BD0114681402143CCB2401C0006000EEBD07C70F8BD1C43F7E72C43F5E70000D815002010B5FFF7D1FF10BD6D
:404AC00010B5044604F0D8FB002802D1601C00F001F810BD1CB500240094062269460194FDF7B0FB002800D1122420461CBD10B5FCF7CFFF0446FEF707FD012809D0FEF7F1
:404B000003FD022805D0FCF7CBFF2046FCF7C5FFEEE72046FCF7C1FF10BD10B50B4681791943817103D08078114602F04BFB10BD10B582798A43827102D1807802F056FBCE
:404B400010BD000030B50C4C0220A28A0B4B9978002901D0022906D11D785B78EB18282B01D9032002E0032900D101205105490DC0020143A18230BDC0112E40A40D0020ED
:404B800000B500F029F8002807D0012805D0032801D0042801D0002000BD012000BD014600B50020C90701D000F010F800BD014600B50020C90701D000F008F800BD0000A2
:404BC00001480068704700009C0D002001480088000A704720102E400448008B410501D5042070474007800F7047000000102E4001484068704700009C0D002038B50446D3
:404C0000000610D5FFF7E8FF01280CD1684601F0C9FE6846007800F02BFB012001F0B0FD0220FFF749FF600708D507480179012904D1002101712620FFF71CFB0348006840
:404C400001692046884738BDA80D0020D40D002010B501460A4A007800241070FFF7B6FF0128084603D002F0CFF9204610BD00F0E7F80400F9D1034801210170F5E7000015
:404C8000A40D00209816002070B50446FFF79EFF002801D00C2070BDA27B01211F48002A827801D00A4301E05208520082706279012A14D0C17849084900C170184D2868B7
:404CC000016820468847207901280CD06188208803F00AF82080207904280FD015E0C2780A43C270EAE72868C168E01D8847E01D02F00AFA0B48808C208006E02868C16819
:404D0000E01D8847E01D02F0FFF9074920798870204602F087F9002070BD0000D8150020D40D002090150020A40D002008B50178FFF74CFF814201D10C2008BD002914D00C
:404D4000072069460870FFF71BFF012807D10121684600F0E5F8012801D0092008BDFFF7F1FE02F093F9012011E0FFF709FF012806D1684601F016FE6846007800F0ACFA6D
:404D800002F07AF9FFF722FF0028FBD10220FFF793FE002008BD000010B501460A4A007800245070FFF712FF0128084603D002F0E9F9204610BD00F065F80400F9D103487B
:404DC00001214170F5E70000A40D00209816002038B568460CF0C2FB002801D01F2038BD01210098C90201804180002505714571857107214173857302F014F9009C202225
:404E000000212046FDF736FA25702A460021601CFDF730FA204602F0F7F8204602F0B2F900980CF005FC062200210448FDF722FA02480C388560002038BD0000A80D002026
:404E4000F8B5044600250D4800950078012806D068460CF083FB002803D007250CE00C250AE0074E009830602278611C401CFDF7F8F93168207808702846F8BD98160020F0
:404E80009C0D0020F8B5044600250D4800954078012806D068460CF061FB002803D007250CE00C250AE0074E009870602278611C401CFDF7D6F97168207808702846F8BD39
:404EC000981600209C0D00200346084800B5834209D8184600F01AFE002804D00089984201D1012000BD002000BD0000FF0E0000074A9179491C8906890E917138220A403C
:404F000092014907090E11430843024908407047D8150020FF0E0000C006C00E70470000F8B507460E4600240D4803E0002C01D0002500E005462979002905D0641C2406E8
:404F4000240EF3D00020F8BD0021204601F02AF92E712046FFF7CCFF28813C700120F8BDF815002010B503F06FF90222002100F003F801F0D7FE10BD10B5094B400749071B
:404F8000000F090F185A595A40185043C0086421FDF73CF8002800D1012080B210BD000024390100F7B53D20405C88B015460C46002802D02878042802D200200BB0F0BD22
:404FC0006946087200262046FFF78CFA012800D00126204603A938300191009023460327A17E34333246206A03F052F902A8089900900B46019120463A4603A9243003F0D4
:40500000CFF802466846007A2870204601F0B6F81046D3E7FFB587B00C4605461078694608723D20005D1746002826D000262046FFF758FA012800D00126204603A93830B0
:40504000019100902346A17E34333246206A03F01FF902A80090291D019120462B1D03A924300A9A03F09CF802006846007A388002D1204601F082F810460BB0F0BDF0B53E
:4050800005463C20405C89B016460C4600280CD0307869460873002806D000272046FFF721FA012803D003E01F2009B0F0BD012703200890204604A93830019100902346E7
:4050C000E17E34333A46E06903F0E2F86846007B03A928180290009120462B46019504A92430089A03F090F802466846007B3070204601F04DF81046D7E7FFB505463C2075
:40510000405C89B016460C46002810D0084601F0A9F801280BD0308869468883002809D000272046FFF7DEF9012805D005E000200DB0F0BD0220FBE70127204603A9383020
:40514000019100902346E17E34333A46E06903F09FF8291D2B1D07A8129A6D4607C5204603A924300C9A03F04FF802466846808B3080204601F00CF81046D9E770B50D4643
:405180000446FFF7AFF901280AD0E87AA97A00020143A07801F0C2FC012808D0002070BD00222421204602F0F1FC242070BD28214C200155204600F0B1FB282070BD000085
:4051C000002801D0002000E003484030C07F012800D0002070470000F81500200146002049070ED50021084B03E0002901D0002200E01A461279022A04D0491C0906090E5C
:40520000F3D0704701207047F81500200146002049070ED50021084B03E0002901D0002200E01A461279022A04D0491C0906090EF3D0704701207047F815002010B50446FE
:4052400080346068002803D00CF006FA0020606010BD4030417070474030817070474030017070470171704792001018C166704770B53C2501F09CF9040004D0204600215A
:40528000433001F0FFFBFF222946204600F0E8FB002C02D0A07801F00DF970BD10B5002801D0002000E00348002802D0008903F043FD10BDF815002010B5002801D00020F6
:4052C00000E00448002804D00179072901D100F047F810BDF815002010B501F069F9002802D0807801F0E6F810BD00207047000070B50546008A00281ED01049F122897AE5
:405300001140C90618D5294640314A8A098A521C4A4392B2D10800D10121540801E0621A94B2A042FBD9FEF7BDFE012804D1298AA878224601F0B8FC70BD000090150020D9
:4053400010B50023054C0B60248A944204D992001018C26E0A60C36610BD0000C416002038B5044600200090A079002814D14020015D052901D00E290ED168460CF0FEF864
:40538000002809D12046009902F0DEFB03481021C28A2046FFF7C1FB38BD00009015002010B50B4604460146184602F04BF8002802D020460CF046F910BD13B5044601AA28
:4053C00011460620FDF7C2FF6846818861811CBD002800D10220704770470000F8B504462346401D543300909A1EA078911E01F0F5FA25464035A88A298A8000FCF706FE11
:40540000401E81B2688A884203D96982A07801F05DFF698A8C20015120460021433001F031FB27480088E88102F00EFFE989891C8AB26179FFF7A0FD01F074FC02F004FF76
:405440002A8A6179FFF798FD074601F05FFC688A002806D01B49088A032212021043088202E0002001F026FF1648803801886E8A002E0CD0304648431349FCF7B1FE0004C2
:40548000000C01D0401C80B21049488002E00F4800214180288A704381B2A07801F080FEFF2228374932B9B21346204602F020FCE98AA07801F0F4FDA07801F025FAF8BDA9
:4054C00080102E40E0112E4071020000AE0D00207FB504468034616805460E46183108226846FCF7BEFE31462031082202A8FCF7B8FE102168460BF0DBFF6068102108306D
:405500000BF0D6FF60682B46083024331022694602F066FE7FBD10B504460821FFF708FB10212046FFF704FB207905281FD006281DD008281AD12189002003F075FB072064
:4055400020712046FEF7CEFF014620464030012913D00E21017000210176204600F0BCFF2046FFF76BFE2046FFF7C2FE10BD20890122002103F03CFBE1E70521EAE700007B
:40558000FFB581B01F4604460821FFF7D1FA10212046FFF7CDFA2079082803D0092804D0042203E00422012501E009220025204600F044FE264600204036307022712046BF
:4055C000FFF73CFE0398002D02D0012808D00BE001280AD120890022029903F009FB04E02189029803F020FB012700203076012F04D0204600F070FF05B0F0BD0298307308
:40560000204602F0EFFA054605480121C28A2046FFF783FA002DEFD109202071ECE700009015002070B50C460546FEF75BFF012809D108212846FFF77BFA00230122214648
:405640002846FFF79DFF70BD10B5044600F0F6FD2046FFF7F3FD00214034217010BD70B505461A24FEF73EFF012809D108212846FFF75EFA0023012221462846FFF780FF74
:4056800070BD0000F8B50446002000900E4668460BF074FF002801D00D20F8BD8420005908212030009D00F02CFA20460421383000F027FA002E02D1204600F0FBFD2946E0
:4056C000204602F0D0F90E480821C28A2046FFF724FA204600F071FF25464035002808D0204600F023F8002801D0092028700020F8BD08202870204600F0DAFFF7E70000D1
:4057000090150020014610B540310A460978082906D0092907D00A2901D100F091F810BD0B20107010BD00F001F810BD70B50446007925464035052805D0062803D00828D2
:405740000FD00C2070BD03220621204602F01EFA0D480821C28A2046FFF7DFF91120287010E006202873204602F03CFA0646AA8A0A20424301212046FFF7CFF9002E01D1BA
:4057800009202071002070BD9015002038B504460020009068460BF0F1FE002801D00D2038BD2046009D00F0C3F908202071204600F080FD2946204602F088F900213D2082
:4057C00001550F2040210855204600F071FF002038BD00B5024600F031FD10214032117000BD10B50446FEF77DFE012809D04020005D112805D100231A4606212046FFF73C
:40580000BFFE10BD10B5FFF786FE10BD38B504460021684600910BF0B1FE00280CD12046009902F0D4F905480821C28A2046FFF774F90D204034207038BD00009015002058
:4058400038B504460021684600910BF097FE002801D00D2038BD2046009902F0ADF905480821C28A2046FFF758F90C2040342070002038BD9015002000787047F8B50025D5
:4058800069460D70002801D0002400E01F4C002C18D0204600F0DBFC002813D0207903280BD005280CD026464036B18AA07801F081FCB078012806D01DE0042020711DE0E7
:4058C00006202071F8BD0021204601F0D8FD274680373868002802D00BF0BEFE3D600020B0702079072802D12046FFF701FD0221204600F0F7FE20790428E3D1207A694678
:4059000008703420FEF7B6FCF8BD0000F815002010B54C22115400F052F810BD10B50446FF21FFF705F909202071A07801F068FC10BD000038B5FF216A461180002801D015
:40594000002400E00B4C002C12D011460620FDF7FDFC684601882046FFF72FFD204600F087FC002804D104480068C1692046884738BD0000F8150020F00D002010B504465E
:405980008079002809D022214C200155FF212046FFF7CEF8204600F012F810BD10B5037902464032002B03D01173092B02D003E0002100E02221117300F001F810BDFEB5E2
:4059C00004460089002700902781207926464036002817D0012815D002280AD112E002AA01A9204601F01CFD002807D101980BF029FE204601F03CFD0028F0D02046FEF792
:405A0000C1FCB776254680352868002802D00BF023FE2F606868002802D00BF01DFE6F60317B002919D0009800F064F8A078002100F086FF2046FFF795FAA07801F058F8E4
:405A4000A07800F037FDFF212046FFF771F80B20FFF732F800F068FCFEBD1F213173E2E7F8B517460E46054602F0EAFB04003CD020460C3000F0F6FF2046062200211830F0
:405A8000FCF7F8FB2046062200211230FCF7F2FB1648224600683946436A28469847074626702846FEF71EFD012148406070002D10D02889608028464030C1782171002E38
:405AC0000FD169796171018AE180418A2181808A608106E00648008BC005C00F2071002060803946204603F022F8F8BDD40D002000102E400A4610B50146002003F034F928
:405B000010BD10B50BF0B0FA10BD000000B50146FFF702FA002801D0002000E00348002802D002898A4200D0002000BDF815002038B5044680346068002806D168460BF0A9
:405B40002DFD002801D100986060606838BD000010B5014600F086FB0128887802D0FEF7CBFC10BD90214843024940186030007F10BD0000D815002070B5054604464035F4
:405B8000A87F012811D1A1789020084A484380186030067F3046FEF77DFE002805D10220A877A078314601F04DF870BDD815002010B50C4CA07A002813D0FEF717FF0A489D
:405BC000027F417F408B00F0B7FB012809D10020A07200F0FDFE05498989090B01D000F03BFA10BDA8160020D8150020A0102E4070477047490510B5490F0B00FCF740FD83
:405C0000060704080C0C0F073E21FFF781FE10BD0821FFF7C3FE10BDFFF7D1FE10BDFFF7ADFE10BDF8B507460025002D01D0002600E0204E00F09AFE3046403044890021E2
:405C4000418100F09DFE304600F001FB01282BD1A00702D52846FFF711FEE00602D52846FFF768FEA00601D5FEF7C0FE600601D500F014FB200602D5284600F01DF8600797
:405C800002D5284600F02CFA380402D52846FFF713FB780402D52846FFF700FBE00703D021463046FFF7A6FF6D1C2D062D0EBCD0F8BD0000F8150020F8B5002801D00024F1
:405CC00000E0284C002C4BD025464035A878012846D1FF278820493700593E46002805D02149897A890601D5878AC68A2046FEF7F9FB012834D002F0A7FA2A8A6179FFF7DB
:405D00003BF9009001F002F800983346283081B23A46204601F0ECFFE98AA07801F0C0F912480188688A124E002810D048431149FCF756FA0004000C01D0401C80B270805D
:405D4000A07DC107C90F002001F086FA01E000207080288A698A484381B2A07801F020FAF8BD0000F81500209015002060112E40AE0D00207102000001490968096808470F
:405D8000F00D002070B50D460026194A0146002801D0002401E014462034002C26D0204600F060FA01280AD19020484380186030007FFEF76FFD002801D101F093FE0D48E8
:405DC000006881692046884700280CD020464030817EA94202D3491B817600E086762089294602F062FF204600F062FC70BD0000D8150020F00D002070B503460088FFF7EA
:405E000085FE040013D000F022FA00280FD02079092819D02546997840352973204601F0E1FE0646A878012803D0AA8A02E0022070BDEA880A20424301212046FEF76DFE99
:405E4000002E01D109202071002070BD0EB5002217216B460292198100905A810120029B00990BF099FC0EBDF8B518480024807A002822D1164E0025B089000B22E0204687
:405E800000F010FE1249A039401807882A462146384600F051FA012810D00E480122478305770A4944778A72002D01D0002000E02030002801D000F0FBFBF8BDB089000B41
:405EC000641CE4B20028DAD1F8BD0000A8160020A0102E40D815002010B50088FFF716FE002809D0014640310C460978082905D00B2903D00C2010BD022010BDFFF716FC1B
:405F0000002801D009202070002010BD70B503460088FFF7FBFD040008D0254640352878082805D00B2803D00C2070BD022070BD8420005910220830991CFCF792F92046CF
:405F4000FFF7C6FA2878082804D02046FFF778FC002801D00A202870204600F0A9FB002070BD000010B50C46002121700088FFF7CDFD03000BD000F06AF9002807D0094863
:405F8000F121807A0840C00603D4112010BD022010BD022020701A8A1889002102F000FF002010BD90150020F8B50F46002100910088FFF7ABFD040012D000F048F900282F
:405FC0000ED0E079410641D4617E02264A07002A08DB8907402500291ADA2843E07135E00220F8BD02F02CF90021017021894180A1898180217E4170E189C1803E700546BC
:406000000178134802F0A6FB284602F06DFE1DE0204600F02DF9012806D068460BF0AEFA002803D00720F8BD2A20F8BDE07900992843E071204601F0FFFD607E0421304318
:4060400060760448C28A2046FEF767FD0020F8BD1D040000901500203EB500220F236C460292238100910190628169460EC900200BF092FB3EBD0000F8B50F46054600F09C
:4060800097FA040025D003202071254600264035EE76E6702046FFF7A1F900F0EDFF0920FEF70AFDA07800F011FD0121204600F019FB2E706E70AE703A4600212046FFF7B2
:4060C000CFFC0649887B401C8873A078FFF754FEF8BD284601F094F8F8BD0000D815002010B5002801D0002000E0094800280DD0014640310A464978022901D100215170AE
:40610000807DC107C90F002001F0A6F810BD0000F815002070B503460D460088FFF7F6FC04000BD000F093F8002807D01248F121807A0840C00603D4112070BD022070BD97
:4061400020464030418A008A491C41430804C10C5888884201D2122070BD20822079072802D12046FFF7C4F8022028702089002102F03EFE002070BD90150020016A491C6D
:40618000016204D1817E491C4906490E81767047C169491CC16104D1C17E491C4906490EC1767047F0B5074687B003A8009005A800260D460190002F01D0002400E01B4CAB
:4061C000002C05D06846FCF7A7F8002803D00BE0022007B0F0BD68460089C00704D1902200212046FCF746F8114829460068826820469047050016D1A7706676274626717B
:4062000040373E70204600F019F8204601F02CF9084820820848BE77807AF121084000D001202075E682E8B2D3E70000F8150020F00D0020B80B00009015002000210162F3
:406240008176C161C17620300177417770470079002805D0012803D0022801D001207047002070474030807F002800D00120704740300078002807D0012805D0052803D057
:406280000E2801D0012070470020704710B5807801F06AF8002800D0012010BD10B500F097FB03498989090B01D0FFF7D5FE10BDA0102E4070B5054604464035A87F002876
:4062C00025D1FF206075A0789021154A484380186030417F9023491CC9B24177A0785843104B8018DB896030994201D300214177A0789021484380186030467F0677A178D5
:406300003046FEF7C7FA002802D00120A87770BD0220A877A078314600F094FC70BD0000D8150020C41600200020401C0006000EFBD0002070470000F0B515468207920FEA
:4063400085B0000A02926A469080002D01D0002400E0564C002C28D0084600F0A3FB07466846808800280BD00298012843D0022841D003280BD03D20005D012879D08FE02E
:406380004B48381801882046FFF717F888E00020029002A80BF0D2F8002807D03D20005D012802D12046FFF7E9FE7CE06846029E8388324600213846FCF7DAFE3C4838181A
:4063C00001882046FEF7F9FF284600F0A9FA01AA21463046FEF7E6FD002806D030460BF01DF93D204C21085531E0F5773146204601F0A2F957E000200090208903906846FD
:406400000BF08CF8002802D0002005B0F0BD6846009E8388321D00213846FCF7A9FE2448381801882046FEF7C8FF284600F078FA2046FFF70CFF002805D025464035287E61
:40644000002810D107E030460BF0DEF82BE02046FFF764FA27E001AA21463046029BFEF7D9FD002806D030460BF0CEF83D202873EDE712E00298FEF7AFFF03993170039920
:406480000001090A0143717068468088B070000AF0703046FFF7DAFC05E02046FFF76EFE284600F03DFA0120AFE70000F815002000102E4010B5074A917B002901D0491EFA
:4064C00091730021FFF76EFE002801D0002010BD012010BDD8150020F8B5074606464037B87F00282DD0B078902100904843234945186035287F0099FEF7E1F901281ED0A3
:40650000287F401CC4B21E48C089A04200D800240020B877FF276F772F77A87702460146009800F0FBFC717DFF2903D0304600F05CFF777501F0D6FA0025114F19E003202F
:40654000B877F8BD00200090224669463046FEF7F7FE0099002904D0FF231A463046FEF7C6F9641CF889E4B2A04200D800246D1CEDB2F889A842E5D8F8BD0000D815002047
:40658000C416002010B502460021084B03E0002901D0002000E018460479944204D0491C0906090EF3D0002010BD0000F815002000B50120FFF7E6FF00BD10B5044601F028
:4065C0003FFE2189018080346168416061682831816002F043FB10BDF7B50646087982B00C46092807D0A078F0770846FFF73AFE012806D010E030460BF024F8022005B0C2
:40660000F0BDA1789020294A484380186030007FFEF740F9012810D0A078FEF7D1FD01280BD037780121304601F008FA25462035062F38D00B2F0FD107E06846027C21465E
:406640003046FEF7ADFE0D20D9E72046FDF74AFF012801D1002028772046FFF779FA054604AA21463046FEF70AFD01205F2108556946097C002001910090A07833463A4694
:40668000294600F089FA69460A7CA0780323294600F0CAFDA0782946FDF752FE30460AF0D1FF0020ABE70120D5E70000D815002010B502464032937F0021002B03D1927EF7
:4066C000002A00D00121064A927A002A00D000210279092A00D10121807800F0DDFD10BDA816002070B50C460546FDF7FBFE00280BD1012C06D92879092806D02846FFF72E
:40670000C5FD0446002C02D004E0012402E0A87DC007FAD1A87DC107C90F204600F09CFD70BD0000012807D0082804D104480282034808300180704701488038FAE700005A
:40674000A0102E40014908817047000000102E4010B50446FF20F130012C01D1FF20D530002200F0CBFD044A108A044980B2A0430880108210BD000000102E40B20D002019
:40678000034B198A034A89B2814311801982704700102E40B20D002010B50446012802D0082C07D102E0FF20D53001E0FF20F13000F09CFD0348018A034A89B22143118043
:4067C000018210BD00102E40B20D0020034B198A034A89B2014311801982704700102E40B20D0020F8B505460120A84086B214460F46012231467C2000F080FD3A4631466D
:40680000782000F07BFD6078267800020643E078A2780002024360792379000203430C2045430D2080010549281844182680001D44182280001D40180380F8BD00102E40E9
:40684000CB065B0E0343480901021943D00108430121C902084301490881704780142E404278037812021343084A1382C37880781B021843908248780B78000203431383A4
:40688000C8788978000201439183704700142E40024A1080000C90801181704700142E40044A002180180288491C89B21029FAD37047000000102E40024A108201488030FE
:4068C00081817047A0102E4010B5054A1082084600F038FD024A0021A03A8018018010BDA0102E4010B50B46044600F005F819462046FFF7E1FF10BD024A108201488030D1
:4069000001817047A0102E4010B504490882FF20002220211D3000F0F1FC10BDA0102E40000202494D3008807047000000102E400249888A0422904388827047C0112E40F0
:4069400010B5084B074C0202A03B0029208202D075321A8010BD04490020088088807632F7E70000A0102E40201A2E4000B5034908884880FFF704FF00BD0000B20D0020EB
:4069800000B502484088FFF721FF00BDB20D002010B5FCF7A3FD10BD014952200880704700102E4000210170704700000748808806492039098B884201D8081A03E000221A
:4069C000D243101A401880B27047000020112E400148008AC0B27047A0102E4070B5084C049D2082074804890548603006880E8001891180808818806007400F287070BD97
:406A0000A0102E40E0112E400148008970470000C0102E4000280FD00D4A108B0870000A4870908B8870000AC8700948203000880871000A48717047064A10880870000A04
:406A4000487090888870000AC8701089F0E7000040102E40C0112E400148008A70470000001A2E40064B1A8999891B8A0270120A42708170090AC1700371190A417170475D
:406A800060102E40012904D00549098BC90B017070470349403109898907C90FF7E7000000102E400148408970470000C4160020044A10820448028980894843101880B2A1
:406AC00070470000A0102E40C41600209021074B414300B5C918FF2260314A770A7700228A77114600F01AFA00BD0000D815002090225043074A10B58018FF216030417713
:406B00000177002181770448418EFF201D3000F0EDFB10BDD81500209015002000B5044A1082034880308088022200F003F800BDA0102E4010B50023884201D8081A03E0B4
:406B40000024E443201A4018044980B2884201D8824200D90123184610BD0000FF7F000070B55478157824022543D47888232602947834435679127936023243002900D0FE
:406B80009823044908820348A038181805808480028170BDA0102E40FFB581B014460D4607460A9E0B9BFFF783FF002E0AD0009333460021049AFCF76BFB05484019C45509
:406BC00005B0F0BD0021049AFCF748FBF5E70000B60D002070B502460448054D808808242C800B460021FCF739FB70BDC4160020A0142E4010B5212402466401044953203B
:406C00000880102300212046FCF728FB10BD000000102E40417802780902044B0A431A83C1788078090208439883704760142E40034A10828020014301488030018170470A
:406C4000A0102E40054A1082044A6032908B0009000108439115084390837047A0102E4030B500210F4B0A46012809D0032802D005280AD107E04021198102210A2204E020
:406C800004210C2201E004210D221882054C20342088C0B205460D42FAD022800021198230BD000080142E4010B5044607480482074801808280032189030820FFF76CFD55
:406CC000200202497530A039088010BDA0102E40201A2E40054A1082044A60321183000202494B30A039088070470000A0102E40054A491E1082044A603211830002024932
:406D00004C30A03908807047A0102E400349884200D908460249088070470000FF0F000060112E400349884200D908460249888070470000FF0F000060112E4088230029E5
:406D400000D09823084908820748A038191808881070000A507088889070000AD07008891071000A50717047A0102E4010B51446024606480B46C0880021FCF755FA012C91
:406D800002D103495420088010BD0000C416002000102E40064A11880170090A417091888170090AC1700349542008807047000080142E4000102E400121814010B589B2A5
:406DC00000227C2000F09AFA10BD0000FEB5FF210120FFF7BDFCFF210820FFF7B9FC3020FFF7CEFC3F48802101803F483F4D00784007400F02286FD001286BD1002028807E
:406E0000002211460320FCF7A1FA394E3949B08D8882384F002420373248A0300482308F38822046FFF764FE641C2406240EF3D0B08F38832E48103000F052F971693069D2
:406E40000191009069464879C021084369464871684600F06DF900F055F82548214C40304188A03421838188A1831E49C088C0318880708E38802048002606823920FFF730
:406E8000A5FC184F532038801C490720088354203880E020FFF704FDE820FFF701FDF020FFF7FEFC0020FEF75DF813488682282101838015A0810F48403086815B20388018
:406EC000094800784007400F022807D0012801D10B482880FEBDFFE7032090E70848C01CF7E7000000102E40C4160020001F2E4090150020C0112E40001A2E4080142E4064
:406F0000E0230000044800218183018302497420603908807047000060102E40074B1882064B6033988B00090001084399158843002A01D11021484098837047A0102E405E
:406F4000F3B50D2284B0920100924A780B78120213430393CA788B78120213434A790979FF20120211431A4A8C46918B9E460291118B01911649742260390A801549002292
:406F80000F7821E00121124B9140009C603BE3181D8889B21C881B88039E6E407546654064462E435C4026430CD1029B194209D00199D140CB070499DB0F8B4202D1104629
:406FC00006B0F0BD521CD2B29742DBD8F8E7000060102E40D015002030B50949FF208C8B084A00210125137805E02A468A40224204D0491CC9B28B42F7D830BD084630BD62
:4070000060102E40D015002010B50446E020FFF747FC20782246401CC3B20021E020FCF7C3F810BD42790021012A02D901214171090342790A430179042914D049001143C6
:40704000827B032A01D8D2001143427B52010A43817909021143012252031143054A118300889083704711460122920211430222E5E7000000102E4000B50120FFF780FB19
:4070800001494120088000BD00102E4000B50120FFF79CFB01494020088000BD00102E40024A10820148603081817047A0102E4010B5044C208204488180028183815143E5
:4070C000018210BDA0102E40A0132E40034B1882024820388180028070470000A0102E404178027809020A4306490A80C2788378120213438B8042790079120210430881ED
:4071000070470000C0112E404178027809020A4306490A81C2788378120213438B81427900791202104308827047000060102E40417802780902084B0A431A83C1788278E1
:4071400009020A439A8341790079090208430249203108807047000040102E404178027809020A4306498A80C2788378120213430B8142790079120210438881704700000E
:40718000001F2E4010B50446E820FFF789FB20782246401CC3B20021E820FCF705F810BD024A10820248818370470000A0102E40001A2E40024A1082014860308180704702
:4071C000A0102E4010B5044688000521FAF71EFF04490C8204498880200202497230A039088010BDA0102E40001A2E4003490882000202497330A03908807047A0102E4097
:4072000003490882000202497030A03908807047A0102E4003490882000202497130A03908807047A0102E40F8B505461C4617460E46084600F086F8054AB9002143158291
