:400000000080002011000000C9080000C908000010B500F061FCC04670B51222274B1A6001F076F8264801F02FFB012001F090F8302000F087FF234A234B1A60234C80255F
:40004000ED052560224A116802230B431360214A214B1A600022214B1A60214A136808218B431360FA20C00001F01EF81D4800F05FFFBE22D2011C4B1A601C4B1C4A1A6026
:40008000882189011B4A11601B4A1A60802212061A4B1A608022D202194B1A604122194B1A60013A184B1A601849082000F016FF082000F0F7FE256070BDC046300010403F
:4000C000001BB7000600008004010B400C020B4078002E40555500007C002E4064F02E406CF02E40DC050000040301400000014041FF00800003014040FF008008010B4078
:4001000000010B402C010140040101406912000010B572B60022314B1A6000240FE030486200131959000B00411889881A5AC31858880004104300F0C1FB0134E4B2012C2E
:40014000EDD927490C312748343000F08DFB264A264B1A60C0229202254B1A6099231B04244A1360244A1360244A136080214904234A1160234A136023490B783C229343B9
:4001800014221343DBB20B70204A117816230B43DBB2137020231E4A13601E491E4A11601E4A13601E4A1F4B1A6012221E4B1A601E4A1F4B1A6008221E4B1A6008321E4B89
:4001C0001A601E4A1E4B1A60802292001D4B1A60FFF722FF00F062FB10BDC0466CF02E40DC3101005C320100000099EE000002400002024000500F4010500F4020500F406C
:4002000028500F4030500F4001700F4000700F40000004400010DB000800044018000440D8860100080104400002044010600000080204400C020440000304403620030030
:40024000080304400C03044010B5064C2378002B07D1054B002B02D0044800E000BF0123237010BD5011002000000000942F0100084B10B5002B03D00749084800E000BFD1
:4002800007480368002B00D110BD064B002BFBD09847F9E70000000054110020942F0100180C002000000000024A1368013313607047C0466C110020014B18687047C046D7
:4002C0006C11002010B501F061F900F0EDF910BD10B501F02FF8134800F066FB12490F2000F0ECFD114A124B536012490B6A1B021B0AC020000603430B620023936007335C
:40030000136001F09BF962B6FFF7DCFF0A4C200000F038F8094800F035F8200000F032F810BDC046DD040000A902000010E000E07FBB000000ED00E0982F0100B42F0100BC
:4003400010B5FFF7C5FF0121322000F0DFF902219620C00000F0DAF90021FA20C00000F0D5F901F0C5FC00F025F900F0ABF8F8E7014BC0187047C046E82F010010B500F0CD
:40038000E9FF10BD0FB4F0B58DB001248AE0252805D0FFF7F3FF129B0133129382E05A1C12925B78732B11D1651CA40012AB9C466444246802E0FFF7E1FF01342078002850
:4003C000F9D1129B013312932C006BE0642B27D1671CA40012AB9C466444266800256C1C0A21300001F014FBAD006B46E9500A21300001F087FA060025000028EFD108E04C
:40040000013CA3006A469858FFF7B2FF0078FFF7B5FF002CF4D1129B013312933C0041E0632B0CD1651CA40012AB9C4664442078FFF7A4FF129B013312932C0032E0782B30
:400440002ED1651CA40012AB9C4664442368002000E02000441C0F21194082006E4691511B09F6D1E30703D5A4000023A351841C012C0ED8A300002269465A50013408E00F
:40048000013CA3006A469858FFF772FF0078FFF775FF002CF4D1129B013312932C0001E0002A04D0129B1878002800D06FE70DB0F0BC08BC04B01847014B18707047C04695
:4004C00070110020014B18787047C04670110020014B58707047C0467011002010B5282811D005D8262812D028D8012807D04DE042281FD04C2828D0412847D10FE000202A
:4005000000F0A8FA42E0002000F0A4FA3EE0204B1B78042B3AD1002000F09CFA36E002221C4801F0A0FB1C480BF022FB01221B4B9A702BE01A48FFF725FF27E01948FFF73F
:4005400021FF0120FFF7B8FF20E08B89122B16D149680B78114A137148785071052B02D100F032F805E00020FFF7B2FF0E48FFF709FF0A4B19795A790C48FFF703FF0C4A48
:4005800013785078000218430CF05AFF10BDC0463C230020082300200C23002070110020FC2F01001430010028300100383001004423002010B5FFF77FFE00F09BF8FFF73E
:4005C0007BFE00F031F910BD10B50A2852D88000294B1B589F462948FFF7D4FE012000F031FF47E02648FFF7CDFE012000F036FF40E02448FFF7C6FE012000F03BFF39E06E
:400600002148FFF7BFFE012000F040FF32E01F48FFF7B8FE002000F015FF2BE01C48FFF7B1FE002000F01AFF24E01A48FFF7AAFE002000F01FFF1DE01748FFF7A3FE002083
:4006400000F024FF16E01548FFF79CFE12E01448FFF798FE0EE01348FFF794FE002000F0F1FE002000F006FF002000F0F7FE002000F00CFF002010BD703001009C3001004A
:40068000B4300100D0300100E8300100003101001C3101003C310100583101007831010098310100BC31010010B500F005FF024B00221A725A7210BD7811002010B5FFF7B0
:4006C000FBFD0B4B18605B7A012B10D1084B1B7A012B05D10022064B1A7200F0EDFE06E0002B04D10122024B1A7200F04FFF10BD7811002010B5044B1A68801A5B6898422B
:4007000001D9FFF7DBFF10BD7811002010B500290BD1154C2060FFF7CFFD6060012000F051FF0123237263721CE001290BD10E4CE060FFF7C1FD2061012000F04FFF012329
:40074000237563750EE002290CD1074CA061FFF7B3FDE061012000F029FF01232022A3540132A35410BDC0468411002010B500281AD1FFF7A1FD2B4B58605B7A012B4FD1D5
:40078000284B1B7A012B06D10022264B1A72002000F018FF44E0002B42D10122214B1A72012000F00FFF3BE001281AD1FFF784FD1C4B18615B7D012B32D11A4B1B7D012B96
:4007C00006D10022174B1A75002000F007FF27E0002B25D10122134B1A75012000F0FEFE1EE002281CD1FFF767FD0E4BD86121229B5C012B14D11F330A4AD35C012B06D190
:4008000000211F33D154002000F0D0FE08E0002B06D101212033034AD154012000F0C6FE10BDC0468411002010B504000D4AD369C31A9269934202D90220FFF797FF094A2F
:400840001369E31AD268934202D90120FFF78EFF044B5A68A41A1B689C4202D90020FFF785FF10BD84110020F0B50025002711E0BB00C658F3B2FF22964308E06A008A18FC
:400880001478A419527822700135013BDBB2002BF4D10137042FEBD9F0BDC0460323044A1360044A13600022034B1A607047C0463000304030003140000E3F4010B50A00D6
:4008C000002101F0D9F910BD10B501F091F903680C2B00D1FEE7FEE770B50F4E0F4D13E029686B68AC68002202E001C901C30432A242FAD1E868002202E0002102C304329A
:400900008242FAD11035013E002EE9D101F076F9FFF716FDFEE7C046010000002835010010B50E4A136801218B43136000230AE0032B03D89A000A49505800E00948990099
:40094000094A885001332F2BF2D9FFF7E1FB034A116801230B43136010BDC0460000104000000000C90800000000002010B500F08FFA10BD10B50024064B1C70064B1C70B4
:40098000064B1C70FFF7F2FF054B1C70054B1C7010BDC0464723002040230020462300202C2300203423002010B590B0040014221F490BA801F057F91E4B1B78002B04D1D5
:4009C000FFF7D8FF01221B4B1A70002C2DD01A4B1C6008A805AA426006AB0893002101811B311980598017391971002313701231694401F059FA002818D1104B0293104B4F
:400A00000193052300930BABAE2212010D490E4801F0A0F9002809D101220C4B1A70373217210B480DF0FCFE00E0012010B010BDA4320100A611002030230020790200007D
:400A4000003E0100C0000020B90B00003C230020B832010010B5022833D81E4B1B78042B31D11D4B1B785B0730D400280BD11B4B1A0040321E2111822022596C0A805B6C81
:400A800010325A800EE001280CD1144B1A00403296211182C822D200596C0A805B6C8022D2015A800E4B18700C4840300BF0EEFA00280DD1084A117804230B43DBB21370E2
:400AC00006E0012004E00420FF3001E00420FF3010BDC0463C230020472300201C0C0020462300207047C04603784078000218437047C04670B5050083890F2B1FD1043039
:400B000031332A0000210DF0A3FE041E11D16868FFF7EAFF830706D50A4B1B68290082204000984705E0074B1B6829000620FF309847054A137801218B43137000E0002426
:400B4000200070BD3023002047230020024B00225A701A707047C0464423002010B582B00400FFF7C7FF0A4B1B78DB070ED4002809D001A912238B70A3890B80C87020686F
:400B80000CF0E6FB02E020680CF05AFC02B010BD472300208379002B07D000200BE0C25C002A07D10133DBB200E00023052BF6D9002000E001207047F0B583B004000D00E6
:400BC000A04A117801230B43DBB21370272800D1C3E012D8062800D185E004D8012821D005287CD01DE1242800D1B2E0262800D1BBE0212800D014E18AE0422800D1FCE08A
:400C000006D8282800D1ACE0412800D1E1E008E14C2800D1FCE0FA2800D1FDE0432800D0FFE0EDE001AE0827377000237370300003F044F8377001237370300003F03EF87C
:400C400001F04EF8804B1E683000FFF7A3FF00280CD0300001F050F87B4E00213068FFF741FF30680121FFF73DFF2AE0774B1F78774B18788001FC263601020032403F21B0
:400C800039401143734B1B781B03F822520213401943714B1B785B04FE22120413400B436E4E33701A0A72701B0CB370300001F023F800213000FFF715FF01213000FFF7C8
:400CC00011FF00200BF086F801A83F230370002343700BF09DF80422614B1A70A1E02A78604B1A709DE02B78002B00D099E06B78002B07D15C4B0422DA8034329A805B4AED
:400D00001A606B604F4A137801218B43137088E04C4B1B789B0600D583E0554B1B78102B02D10522524BDA70524B187850490BF06FF901AB1880002804D04F4B1B6801A9ED
:400D4000362098473F4A117801230B43DBB2137067E06A78494B1A7063E00222404B1A705FE004223E4B1A705BE03D4B1B78022B57D0344A1278D20753D5324A127852075D
:400D800008D50322364B1A702E4A137804218B43137046E02B4A1278120708D50422304B1A70284A137808218B43137039E0032B37D104222A4B1A70314B1B78002B30D141
:400DC0000120FFF747FE00282BD10322244B1A7027E0284E02222900300000F044FF0022204B1A7031789E318900264B591801310432254800F037FF13E0FFF7A7FE10E0B5
:400E00006988162900D9172128880CF0ABFA08E02800FFF7A3FE04E01C4A117801230B431370084B1A7811231A4209D0054A137801218B431370104B1B6829002000984710
:400E400003B0F0BD47230020700C00207CF2FF0F7DF2FF0F7BF2FF0F78F2FF0F740C00203C23002040230020A8110020A00B0020700D0020442300203023002034230020AC
:400E800046230020003E0100382300202C2300207047C046024B1B68012018407047C0460C002E401F2318401E3B8340014A13607047C04600E100E001BE704770B50400B2
:400EC0000D000F2802D90020FFF7F6FFA40080239B059C4664442068256070BD70B504000D001F2802D90020FFF7E6FF1034A40080239B059C4664442068256070BDC046D5
:400F000010B5040006E0084B586800F0BDFB074B9C46644480231B029C42F4D8024B9868604300F0B1FB10BD780D00200080FFFF10B5034B1B7B584300F0A6FB10BDC046DD
:400F4000780D0020F0B557464E46C0B483B0040000F0A3FB0190E71E2D2F74D83F4B1B78DBB29C4208D83E4B1B78DBB29A463D4B1B78DBB2994631E03B4B1B78DBB29C4272
:400F800008D83A4B1B78DBB29A46394B1B78DBB2994623E0374B1B78DBB29C4208D8364B1B78DBB29A46354B1B78DBB2994615E0334B1B78DBB29C4208D8324B1B78DBB2F8
:400FC0009A46314B1B78DBB2994607E02F4B1B78DBB29A462E4B1B78DBB299462D4BDE5D2F2E09D92A2C07D919222B4B1A60052000F04AFB192503E0274B1D683F231D4039
:40100000B54206D9234BDA5D234B1A60052000F03BFB1F4B9C4664442378DBB21F4A13601F4B52461A601F4B4A461A600520FFF77FFFB5420AD2174BDA5D174B1A60052014
:4010400000F022FB02E00020FFF736FF019800F028FB03B00CBC91469A46F0BD40F3FF0F41F3FF0F42F3FF0F43F3FF0F44F3FF0F45F3FF0F46F3FF0F47F3FF0F48F3FF0F3E
:4010800049F3FF0F4AF3FF0F4BF3FF0F4CF3FF0F4DF3FF0FBC3401002CFF0B4028FF0B401CFF0B4020FF0B4010B504000F4A116801230B4313600E4A0E4B1A600E4A13688D
:4010C000802109020B431360002809D100200CE00120FFF72DFFFFF7DDFE002804D1013C002CF5D1102000E0002010BD60F02E400220000078002E4010002E40034B186826
:40110000C0231B02184000D00120704700010B4010B50D4B1A6801218A431A601A68022082431A60094A10683024A043203C204310601068093CA043014311601A688021CF
:4011400009060A431A6010BD00F02E4000FF2E4070B51D4B1B6801241C40002802D0012816D02BE0184B19680122914319601968022081431960154B19682E3081432038CD
:40118000014319601968093881430A431A6018E00D4B1A6802218A431A600C4A10680725A84301431160116830208143103801431160196801220A431A6002E00020FFF762
:4011C0007BFE200070BDC04600F02E4000FF2E4010B500F062FA044A1368C02109020B43136000F05EFA10BD00010B4010B500F054FA08490A68084B1A408024E40122430F
:401200000A600A6813408022120213430B6000F048FA10BD00010B40FF3FFFFF70B5050000F03BFA0400FFF769FF002803D0FFF7DDFF012100E0002108482840084A156859
:40124000084B2B40184310601368012901D1FFF7BFFF200000F025FA70BDC0460404040010020B40FBFBFBFF10B5244B1B685B0715D5234B5B685B070ED5224B596A042032
:4012800001401F4C62688A4362605A6A82435A629B69002B00D098470420FFF7BFFF174B1B685B0518D5164B5B685B0510D5154B596A8022D2001140114842688A43426039
:4012C000596A114A0A405A62DB69002B00D098478020C000FFF7A2FF084B1B685B030CD5074B5B685B0304D5064B1B6A002B00D098478020C002FFF791FF10BD10020B4092
:401300008C0D0020B0110020FFFBFFFF10B500F083F810BD10B500F02BF810BD10B5044A1368802109060B431360FFF7EFFF10BD0000244010B5064B1B78002B04D1FFF7C6
:40134000E9FF0122024B1A70FFF7E8FF10BDC046D8110020044B1B681F221340082BF9D0024B18607047C0460802244040022440154A164B1A600023154A13601549164AED
:401380001160164A16490A6007201649086016490B6006381549086015490A60154A13600421154A1160154A1360154A1360154A1360154A1360154A1360154A13601268E2
:4013C000144B1A807047C0460B000002000024404000244001000A00480024400700008000032440040324401003244044002440000224400402244050002440880E244075
:40140000C80E2440480F2440080F2440C80F2440880F2440DA110020064A1168064B0B40902109040B431360044B1A88044B1A607047C04600000240FFFF0FFFDA11002047
:40144000880F244004490A68D2B208239A43C00018401043086070470001044004490A68D2B220239A43400118401043086070470001044004490A68D2B202239A4340001F
:4014800018401043086070470001044004490A68D2B204239A438000184010430860704700010440034A117880235B420B43DBB21370704770000F40024A11787F230B409B
:4014C0001370704770000F40014B18707047C04600000F40014B18707047C04640000F40014B18707047C04620000F40014B18707047C04630000F40014B18707047C04652
:4015000080000F40014B1878C0B2704760000F40014B1878C0B2704750000F4010B501E0FFF7F6FFFFF7EEFFC306F9D410BDC04610B514490B783F22934309221343DBB2BD
:401540000B70114C227801231343DBB22370FF20FFF7BAFFFF20FFF7BDFF7F20FFF7C0FF3F20FFF7C3FF0020FFF7C6FF00F095F8227810231343DBB2237000F092F8FFF74A
:40158000CDFF10BD70000F4090000F4010B5064B1B78002B04D1FFF7CBFF0122024B1A70FFF780FF10BDC046DC11002004490A68D2B202239A4340001840104308607047ED
:4015C00000030440044A1368DBB201218B430840184310607047C0460003044004490A68D2B220239A434001184010430860704700030440014B98647047C046000000206D
:4016000010B5040000F049F8044A1168044B0B40A4051C43146000F044F810BD00E400E0FFFF3FFF0422014B1A60704700E100E00422014B1A60704780E100E010B5FFF7D7
:40164000F7FF0448FFF7D6FF0320FFF7D9FFFFF7E9FF10BD651600000422014B1A60704780E200E010B50648FEF78CFEFFF7F4FF00F01AF8FA208000FFF742FC10BDC04643
:40168000EC340100000000000230800803D00138FDD1C046C046C0467047EFF3108072B6704780F310887047034A10680223184010604008C0B27047100204400160704708
:4016C00001607047324B1A781202324B1B781A43314B1B781B02314909780B4330498B4201D1072A06D0D42109018B4206D1042A04D102E02B4B042200E02A4B2A490B6057
:401700002A4B1A602A4B1B781B022A4A1278134380229201934202D0002B02D002E0264B00E0254B254A1360254B1B781B02254A12781343244A934205D0244A934204D045
:40174000052B05D103E0224B02E0214B00E0204B204A1360204B1B681B09204A1268AA2A15D1012B13D9164B1B780E2B0FD11C4B1B781B021B4A127813431B4A13601B4B2E
:401780001B781B021A4A127813431A4A1360704759F1FF0F58F1FF0F5FF1FF0F5EF1FF0F580B0000580D00006C002E4074002E405BF1FF0F5AF1FF0F0220000078002E40FE
:4017C0005DF1FF0F5CF1FF0F0F0F000005050000050F000080002E40EC0F00F0E00F00F06DF2FF0F6CF2FF0F84002E406FF2FF0F6EF2FF0F94002E4010B5FFF799FB10BD78
:4018000010B5FFF77DFB10BD10B500F04BF810BD10B500F04FF810BD10B500F04BF8034800F02AF8032000F02DF810BDFD18000010B5024800F046F810BDC046FD18000086
:4018400000487047010200002B2070472B2070472B2070472B2070472B2070472B2070472B2070472B2070472B2070472B2070472B2070477047C046014B18677047C0460B
:401880000000002010B50400FFF707FF044A1368C0218B43A4011C431460FFF702FF10BD0CE400E080225201014B1A607047C04600E100E080225201014B1A607047C0460E
:4018C00080E100E010B50400FFF7F4FF2000FFF7D3FF0320FFF7D6FFFFF7E4FF10BDC04610B5FFF7DAFE044A136804218B43136030BFFFF7D6FE10BD10ED00E010B511F088
:4019000035FB10BD002243088B4274D303098B425FD3030A8B4244D3030B8B4228D3030C8B420DD3FF22090212BA030C8B4202D31212090265D0030B8B4219D300E0090AD4
:40194000C30B8B4201D3CB03C01A5241830B8B4201D38B03C01A5241430B8B4201D34B03C01A5241030B8B4201D30B03C01A5241C30A8B4201D3CB02C01A5241830A8B42BD
:4019800001D38B02C01A5241430A8B4201D34B02C01A5241030A8B4201D30B02C01A5241CDD2C3098B4201D3CB01C01A524183098B4201D38B01C01A524143098B4201D331
:4019C0004B01C01A524103098B4201D30B01C01A5241C3088B4201D3CB00C01A524183088B4201D38B00C01A524143088B4201D34B00C01A5241411A00D20146524110463F
:401A00007047FFE701B5002000F0F0F802BDC0460029F7D076E7704703460B437FD4002243088B4274D303098B425FD3030A8B4244D3030B8B4228D3030C8B420DD3FF2278
:401A4000090212BA030C8B4202D31212090265D0030B8B4219D300E0090AC30B8B4201D3CB03C01A5241830B8B4201D38B03C01A5241430B8B4201D34B03C01A5241030B34
:401A80008B4201D30B03C01A5241C30A8B4201D3CB02C01A5241830A8B4201D38B02C01A5241430A8B4201D34B02C01A5241030A8B4201D30B02C01A5241CDD2C3098B4232
:401AC00001D3CB01C01A524183098B4201D38B01C01A524143098B4201D34B01C01A524103098B4201D30B01C01A5241C3088B4201D3CB00C01A524183088B4201D38B008C
:401B0000C01A524143088B4201D34B00C01A5241411A00D201465241104670475DE0CA0F00D04942031000D34042534000229C4603098B422DD3030A8B4212D3FC228901D0
:401B400012BA030A8B420CD3890192118B4208D3890192118B4204D389013AD0921100E08909C3098B4201D3CB01C01A524183098B4201D38B01C01A524143098B4201D3D8
:401B80004B01C01A524103098B4201D30B01C01A5241C3088B4201D3CB00C01A524183088B4201D38B00C01A5241D9D243088B4201D34B00C01A5241411A00D20146634612
:401BC00052415B10104601D34042002B00D54942704763465B1000D3404201B5002000F005F802BD0029F8D016E770477047C046014B18687047C0464C1100200E4B70B528
:401C000000251E000D4CE41AA410A54204D0AB00F35898470135F8E711F074FC084B00251E00084CE41AA410A54204D0AB00F35898470135F8E770BD103501001035010046
:401C4000103501001835010030B50024A24208D0035D651C0C5DA34201D0181B02E02C00F4E7002030BD002310B59A4203D0CC5CC4540133F9E710BD03008218934202D0E6
:401C800019700133FAE77047134A1088810703D08107890F401A001D11791030484381B25088820703D08207920F801A001D800040180A494030098980B2CA0701D05030CA
:401CC00080B2890706D504495422091F09785143081880B2704700009A0D0020EC11002010B501F00BFF10BD10B501F00DFF10BD10B500F05BFA10BD10B507490446097887
:401D00000220002907D1204601F04EFF002802D120460AF063F910BD380F002070B504460120002C12D02368002B0FD0616800290CD0074D06222889208118462968FFF73D
:401D400092FF6968606809780170002070BD0000EC110020FFB585B0002768460E9D07734F481C460078002802D0082009B0F0BD10990F9801900095029105A807C800F08C
:401D800007F90028F2D16946264603AB84460873002C19D0002115E08A00B75A082F09D990198078002805D0083FB7521878401C187005E0002914D00027B7529019877027
:401DC000491CC9B2A942E7D360460028CED10F98002809D0109901F041FA002804D00120C4E701208446EFE701F08EFE2D480021416081600599016021888180022D07D3A4
:401E0000A1798171A17AC171A1890181218A418100211EE0481C19E082008B00A75AE65ABE46BE4211D26F463E80B4461E190296B678BE7001967646E6521719029EBB7859
:401E4000B3706646A652019EBE70401CA842E3D3491CA942DED3134822460C3000906846037B0799069800F01BF90028B8D168460B4C007B60700B480C3001F075FE0028B8
:401E8000AED1084907480C3107F07EF90028A7D107F098F90028A3D10121217066E70000940D0020E0110020F8B5054636480F460078002802D002242046F8BD002F60D0E5
:401EC00000243249002D16D02A89D0070DD02868002808D003881B3BE12B04D24088FB2801D81B2801D2012409E0900707D56868002804D1F7E70020088108604860002C8B
:401F0000DAD122482E8906811F481B21801D01804180042101711C490020891C0870F00705D019480622801D2968FFF79CFE1749B00703D56A68144812788270124D0E4634
:401F4000AD1D281F0D60486001F054FE284601F043FE30890DF08CFD30890CF075FF28880CF078FF30890DF0EDFE03461033FFF78BFE1F21C018890140183880A91F88809F
:401F80009AE7012498E70000940D0020EC110020FFB58446384F1C460020BB883F78054602460646002F11D100290ED0029999420BD36146002908D0002C06D00A990029DC
:401FC00006D02E4B0B99994202D2012004B0F0BD002144E0AB001F19BF78002F3BD0E35A002B38D07B43591889B22B0000F04AF8050410161C253100A7782388BC46FF275A
:40200000233BEB37BB4222D26346032B1FD322E0A388002B1FD0302B19D31CE02389002B19D0282B13D316E0A289002A13D01346134F233BBB420AD20DE0268A002A0AD022
:4020400033460F4F233BBB4201D2964203D901200EE0002001E000280AD16D1CEDB2099B9D42B7D31C2463435B1802998B42ACD89642AAD8AAE70000940D002079020000F3
:40208000BAFF000030B47446641E2578641CAB4200D21D46635D5B00E31830BC18470000FFB583B0002469460C801F4606468C80002806D00598002803D004983043800778
:4020C00001D0012466E0002FFBD03449049809888842F6D3FFF7ACFBFFF79AFB00F012FC002855D100F07AFD002851D12C49084601F0E8F805042D0C4AD12A4804990660E2
:4021000081800021C18007810C98007AC00704D0684601F012FD040007D10C98007A800703D501A801F012FD0446BF1DFEB2002C20D13146059800F05DF804001AD10DF013
:402140000FFE040016D16A461088928808368518144AF1B29088D288AEB29319984207D3401B801A80B201F09DFB050007D000E0FF25012400F05EFA002D04D008E0F8B267
:4021800000F01CF9F6E700F081FA07490120087000F0CAFB204607B0F0BD0000980D0020E1220000F8110020A00D002010B503480078012801D101F017FA10BDA00D00208D
:4021C00070B5084B0446DA889E8803205518B54206D8186880182060D8884018D880002070BD0000F81100200148008970470000F8110020F0B587B007460D46002089003B
:40220000009006916846FFF7DBFF844600285DD1304800990160002117E02E4B88001A680629115406D22C4C0419667882185670628805E0C419203CA67A8218567022895A
:402240001B68C018491C4280C9B2A942E5D300242DE0601CC2B2059025E01E4FA30039689600581840887118039604904E88B04217D938466F46FE80B6464F786E46777106
:402280000297049F4F800168039F5E18767879184E700168764659184E800068029F18184770521CD2B2AA42D7D30598C4B2AC42CFD36046002809D168460699FFF780FF6C
:4022C0008446002802D1054900980860604607B0F0BD0000A40D002038350100A80D00207047000010B5002809D005494A68002A05D0011F08788000105801F081FA10BD70
:40230000A40D002010B50446FFF76EFFC0B2801DA0420CD307484068002808D0A100405801F0E0F9002801D00470001D10BD002010BD0000A40D0020F8B516460D460446D5
:40234000FFF752FFC0B2801DA04203D20020C0430090F8BDB2B2E9B2684601F0E9F90099481C03D0024AA000526811500098F8BDA40D0020F8B50746FFF736FF801DC6B239
:402380000A49002005460C680DE06178002907D06188B94202D32078FFF7B4FF002804D1241D6D1CEDB2B542EFD3F8BDA40D002010B5002801D0FFF795FF10BD70B5064600
:4023C0000948002504680BE06178002905D062882078121D0023FFF7AFFF241D6D1CEDB2B542F1D370BD0000A40D0020FFB581B00A9F16000C4620D000F0F2F80546042868
:402400001BD0002F0CD03846FFF7B4FF20492A0151184860002810D03A460499FFF723FC1B4928010E504618778101980570200406D47D20C000444304E0FF2005B0F0BD0A
:402440006404640C00F0BAF80746042807D000F04FFAA0420BD800F04BFA201A03E0204600F0AAFA0020F06035720020E6E700F03FFA009000F0B6FA00980121001B009086
:4024800000F0ECF802493A0151180098C860E6E704120020F8B5060116483418217A042903D0E068002802D017E00020F8BD00F01FFA054600F096FA00F0A0F804280CD02B
:4024C00001010C480F18F8680021451900F0C6F80020F860284600F06FFA6068054D002801D0FFF765FF042020720020A8516081E060DAE704120020FEB500266A46304640
:4025000001232549050169180D7A042D02D0C96800291BD000211154401CC0B20428F0D300246846005D002830D01B482101081841894768056802910021016041600422B2
:4025400041810272C160002E02D015E01354E3E700F054F804280ED001010F4808180190C6680021304600F079F801980021C160304600F021FA0126002D07D038460299C8
:40258000A847002F02D03846FFF712FF641CE4B2042CC6D3FEBD0000041200200EB5002005216A460090118150810348694600680EF03BFA0EBD0000AC0D0020074A002080
:4025C000010189180B7A042B02D0C968002903D0401CC0B20428F3D370470000041200200549002002015218127A042A03D0401CC0B20428F6D370470412002030B50A4B86
:4026000004200A4C00210A011219157A042D06D0D268002A03D09A4201D808461346491CC9B20429EFD330BDFFFF0000041200207047000030B50020074C0546042302012C
:4026400011190B72A5504D60401C4D81C0B2CD600428F4D330BD00000412002030B5094C00231A011219157A042D04D0D568002906D02D18D5605B1CDBB2042BF1D330BD61
:402680002D1AF7E704120020002070471CB5002469460C70142001902346054A05480EF0C9F904480068401C00D1FF2420461CBD09270000AC0D00203EB5124A0146FF203D
:4026C00000230124126800290DD0012914D0042908D104206946009308814B8110460EF0A4F980B23EBD6846009304814381694610460EF095F9F4E76846009304814381A5
:402700006946EBE7AC0D002070B545890468416800890300FFF7B6FC08280509091E22282628002005F0ECFB1EE0022908D0C8B22A4621460CF0DCFA2046FFF739FE13E060
:4027400002202A4621460CF0D3FA2946204600F00DF809E000200DF067FE05E02046FFF7CBFE01E0FFF786F8002070BD014B0022DB681847B00D002070B5448905680089E1
:40278000022803D0032809D0FF2070BD2246094C0023A46829460120A04708E0FFF7A4FA241DA2B200232946022006F0A0FB002070BD0000B00D00207047000002480021C7
:4027C0004160018041807047B00D002070B50C46002186B016460391012802D0022859D116E003A9012006F0D7FB01281BD1039D324621462846FFF736FA009528780190DC
:402800000220694608814E816846FFF7B5FF41E0214D002B686809D0049004A9022006F0BBFB01281DD0022006B070BD002812D0298840182146FFF716FA2888002480199D
:4028400080B228806988091D884206D12C801348FFF792FF03E00320E6E788421AD96C6018E004986860E278A378110219430B4A698000231060E356536003231381518153
:40288000A1788170E178C1706178417021780170042028800020C7E7B00D0020441200203EB515460C46022803D004280CD000203EBD0091019002206946088107484A81AD
:4028C00000680EF0B2F807E00CF012FA044B0022DB6829462046984701203EBDAC0D0020B00D0020014AD16090607047B00D0020034801688068081A0A214843000970476B
:402900005012002010B5FEF787FF482204490548FFF7A9F903490120C870002010BD0000543501005416002010B5FEF76DFF10BD70B5134C2368002B08D0207B1149C207D0
:4029400005D04008400020738868A08070BD88680B4AA18880B29268814203D90A4D691A091802E0814202D2411A5118A160A080A0689842EAD30EF075F800F013F870BD66
:4029800050120020C0102E40FFFF000010B508461946FFF7A7FF10BD704710B5FFF780FF10BD000003480021016041608160C1607047000050120020024610B5FF20002AC1
:4029C0000CD0FFF7EFFF064C0321207B0843207310010A21FFF71CF82060002010BD00005012002000B504480A21806848430209FFF7D8FF104600BD501200200248007B22
:402A00008007C00F704700005012002010B54B490868002802DA4A4B01221A70022290430860484800694549C00B4031096A0246C907C90F0A4259D0012000F097FA3F48D5
:402A40000E216C30FEF73CFE3E4820218430FEF737FE3C4814219C30FEF732FE3948FF21C131A430FEF72CFE3648FF212F31B030FEF726FE33483449BC30FEF721FE31481F
:402A80003249AC30FEF71CFE30492E48491CB430FEF716FE2B482E49B830FEF711FE29482C49CC30FEF70CFE26482B490830FEF707FE24482949A830FEF702FE214828491F
:402AC0008830FEF7FDFD1F4826498C30FEF7F8FD1C481921C9029030FEF7F2FDFEF7F2FDFEF7AEFEC0B2022812D01FE000290BD0002101420AD0114801216030FEF7E0FD85
:402B00000120FEF77DFE97E70121F2E7FF2010BD15491648FEF7D4FD14481549001DFEF7CFFD124800210830FEF7CAFD54200449C043891C0870002010BD000000F02E40EA
:402B4000C00D002000002E40320300002F3F00003102000010520000EC160000FA12000031D000003AE300009956000080012E40F80F000070B50646581C80B245086D00E0
:402B8000002408E0304600F0C1F81055000A1119A41C4870A4B2AC42F4D3D80705D0D0182038D15CC47FD454C17770BD30B50A4C002100195B1E07E0541864782502545CE9
:402BC0002C430480891C89B29942F5DB994201D1515C018030BD000000102E4010B5FF2000F0C4F90F49FF2048700E481021801D41800121417001700A490020C91C487018
:402C0000FFF704FF04000AD100F010F907210648FEF754FD044807211830FEF74FFD204610BD0000C00D0020CC112E4070B5002405465B1E0AE0284600F068F8010A1619B0
:402C400071702D1D1055A41CADB2A4B29C42F2DB9C4203D1284600F059F8105570BD000070B500210A4D5B1E0AE0541864782602545C344346193480001D891C80B289B2D8
:402C80009942F2DB994202D1515C4019018070BD00102E40F0B50599091FCFB200217E1E0BE0541864782502545C2C43164D45192C80001D891C80B289B2B142F1DBFC070C
:402CC00012D01C78515C24020F4A0C4381180C809C785D78001D210280B2294384182180001D80B2D9780CE059781A7809021143054A84182180001DD9789B78090280B222
:402D0000194380180180F0BD00102E40014940180088704700102E4010B50B490020487000F084F8002000F047F9002000F034F907210648FEF7C2FC044807211830FEF7D0
:402D4000BDFC002010BD0000C30D0020CC112E4010B50B46062812D006DC01280CD0032801D1FFF7D9FF10BD0A28FCD00B28FAD105480078107010BDFFF730FF10BD114676
:402D8000184600F035F910BDC60D0020F8B5244DAC6A0127A007234E002816DA307806280ED1286A384328621F480069F903084381B21D481030FEF783FC042000F0D6F8BA
:402DC000174802212830FEF779FCE00718D000F01DFF01280FD1002000F06AFF062000F0C5F81049FF20C91E48707078002802D1686B384368630A4801212830FEF75EFC31
:402E0000E0050BD53078042802D1052000F0AEF80348FF2101312830FEF750FCF8BD000040F02E40C30D002000002E4010B503212348FEF745FC0120FEF7DEFC204830383A
:402E4000406A204C80076178800F890001431C480C38FEF735FC6078002808D0401E022181401820FEF7BEFEC000083800E0B82081B21548FEF724FC13480321090214387C
:402E8000FEF71EFC10481149B830FEF719FC612189010F48FEF714FC0D480321001FFEF70FFC0C490C48FEF70BFC0B480B496038FEF706FC084801218838FEF701FC10BD93
:402EC00070F02E40C60D0020D8102E4090890000041E2E40FF0F000058122E40209000000848017806290BD140780749002803D1486B400840004863C86A01221043C862EC
:402F000070470000C30D002040F02E400148007870470000C30D002000B50300FFF7B2F8080D050D0B070507090D012000BD032000BD042000BD022000BDFF2000BD0000D7
:402F4000074A9168D26889B2064B92B2994204D105498A4201D1012100E000210170704780002E4033D000003FE3000010B50446FEF74EFC072C01D9FF2C01D102480470ED
:402F8000FEF742FC10BD0000C30D00200149487070470000C00D002010B5064A012805D01921C9021046FEF78BFB10BD1D21C902F8E7000090002E4010B50A4A141D01286C
:402FC00008D009491046FEF77BFB08492046FEF777FB10BD04491046891CFEF771FB0349491DF3E788002E4031D000003AE3000070B50C460546FEF723FCC0B202280E49E9
:40300000287804D0FF2810D04C280CD810E0FF2809D10A4AD0680004800F032801D0087807E09069000A553803E00878207070BD4F382070087070BDC20D002000002E4081
:40304000F0B50122002834D0002932D00424420600D00524792342065B06D21800D0641C034600221EE00C2516466E43124D00277519AF72104F002ABB51696007D0661EB4
:40308000B24209D10D4E86197606760E05E05E06760E8027BE1B00E080269B198919521C2E81D2B2A242DED303480549006B002288611046F0BD0000DC140020790200004C
:4030C000CC0D002018B50020694608700A48006900280ED0132149014018047E684604704F21C900054800F059F8A04201D0012018BD002018BD0000CC0D00206012002098
:40310000074900200C2242435218927A012A05D0401CC0B20628F5D30020704701207047DC140020F8B50E000446154609D0194F19497868A04202D94018A04201D38D42F6
:4031400001D90120F8BD31462046FEF77DFD00281ED02A4631462046FEF785FDE8B200210C224A43D21913895568EE18A6420BD90126641B1B1B9672834209DA1469C01A0A
:40318000044AC0B220329676491CC9B20629E7D30020F8BDDC14002079020000034610B50020024604E09C5C2018521CC0B292B28A42F8D310BD000070B500F05FF8084CF6
:4031C000064A216907480D46FEF74DFD05492846FFF736FFFFF776FF207070BD79020000CC0D002060120020002070470020054A002902D0012902D002E0906000E0D060E0
:4032000000207047CC0D002070B5084C154608460549E26889182A46FEF725FDE0684019E06028B270BD000060120020CC0D00203EB50A226946FFF7E7FF044606480A22FB
:4032400000686946FEF700FD002802D00020C0433EBD20463EBD0000D00D0020002802D0044A914201D2FF20704703494A6108610020704779020000CC0D002002480021F5
:403280008160C16070470000CC0D002070B5074C15460548A26880182A46FFF743FFA0684019A06028B270BD60120020CC0D002010B503490A220968FFF7E8FF10BD0000A7
:4032C000D00D002010B50F4A002313600E4A13600E4B18600E4801600E49012008600E490860000290600E490C4808600D4914300860FF381538506000F0BCF800F0CAF999
:40330000002010BD000E0020E80D0020140E0020180E0020040E0020F40D002024160020F80D00200C0E0020014610B50020002910D0094B1A689C685118A14209D25868D3
:40334000196080188A0704D08A07920F891A091D196010BD002010BDE80D0020F8B50024164E671E321F3D463168136806E01422624310328A58521C1BD0641C9C42F6D38D
:403380006A1C14D02C461422544322460C3288500C214843FFF7C8FF3168002808510AD031680020103408517068401C70602846F8BD2546E4E73846F8BD0000F80D002072
:4033C000F3B50026F64381B000281BDB1E490968884217D80299002914D01B4F142204463F1D54432546396810354859401C09D0FEF70EFA38682F1F4159C359994203DBE0
:40340000FEF702FA3046FEBD214608310091465801590C20704308180C220299FEF723FC0948761C001D0068C159B14200D100260549009A091D865008684159491C415114
:40344000FEF7E2F90020FEBDF40D0020002803DB07490968884202D90020C043704704491422091D096850431030085870470000F40D0020F0B500200D4A451E0346171F17
:4034800050600FE014260146714314680E1DA3510C461668083433511668083435511468401C635039688842ECD30020F0BD0000F80D0020F3B50026F64381B0002841DBAA
:4034C0002349096888423DD8029900293AD0204F142204463F1D54432546396810354859401C2FD0FEF794F93868415900292BD0211D009146580C21005971430F46C1195D
:403500000C220298FEF7AFFB11480021001D0068761C00590C34C0190160416081600C48001D00680159B14200D100260849009A091D865008684159491E4151FEF764F9E5
:403540000020FEBD3046FEBDFEF75EF9FAE70000F40D0020FEB504460D4600201E49089E0860471E009001900290002C11D0486885420ED2002A0CD0002E0AD0642E08D810
:4035800008460C3001681C2068430C18207A002801D03846FEBD0120226020721846FFF7DDFE6060401C13D06681A6810A4827610C3067610179A94200D205710021684676
:4035C00001810A462846029B00F040F82846FEBD00202072DDE70000000E002038B50124009400F039F838BDFEB50027164EFF433D4600240EE01C20316860430818017A15
:40360000002906D04068FFF721FF002801D0254603E0641C3079A042EDDA681C12D01C2130684D434419FEF7F3F869466068FFF741FF0546FEF7E8F8002DD9D121686846D1
:403640008847D5E7FEBD00000C0E002038B50024009400F001F838BD1FB500220C49541E0A60002811DB496888420ED808491C220C31096850430818406801A9FFF7A0FED5
:40368000401C02D0002004B010BD2046FBE70000000E0020F0B50021114A4D1E174611710C3F0B46BD6016E008461C2460431668041D355114680646235014680836A35568
:4036C0001468361DA353044616680A34335318301468491C255078688142E5D30020F0BD0C0E002038B500210091002811DB0F49097888420DDA0D4D04010C3529680859AA
:40370000002807D0201D0818694600F06FF9002801D0002038BDFEF77BF828680F34015D491E0155FEF770F8009838BD1C0E0020F7B582B0002502986E1E06602E48D21C9B
:40374000024017462D4A2C4610460C380178106805E02301C358002B0FD0641CE4B28C42F7D3711C28D03401211D40180191039900F02AF900281FD101E02646F1E71F4825
:40378000016820460C300F521C480399026820460E30115419480399026820460F3011540398784300F0A0F8144900280968085102D00024009011E001251AE00F48016835
:4037C00001980818009900F02CF9002801D0012502E00098C0190090641CE4B203988442ECD3002D05D10298066004480179491C0171284605B0F0BDFCFF0000280E002069
:40380000F8B50D4600216A468C461180002839DB23490978884235DA214B04010C3319680A59002A2ED020460C300B5A801C0E5C184670438018954224D3854222D2002037
:4038400006E007465F43BF18AF4206D0401CC0B2B042F6D36046002814D0114E271DC8190C366A46294600F006F900280AD168460088012808D030682946C01900F0D1F8F3
:40388000002803D00120F8BD0020F8BDFDF7C0FF30680F34015D491C0155FDF7B5FFF3E71C0E0020F8B50F46002400F031F8002817D10C4900220B460C334A600EE02101DF
:4038C0001D680E466A501D680C36AA53B61C1D680F31AA551D68641C6A54E4B2BC42EED31A71F8BD1C0E002000280BD0C01C074A81085068890053884118994203D893685A
:403900005160181870470020704700001C0E0020F8B5064600200F4D009029700C0121466846FEF74DFC00280CD129460C3100980860301B001F84B221466846FEF740FC39
:40394000002801D0FF20F8BD6C800098A8600020F8BD00001C0E0020F8B5002827DB19490978884223DA174C05010C342168485900281CD028460C30085A009028460E301F
:403980000E5C401C0E5420682F1DC01900F064F800280CD12068002445590EE0094829460C300068C01900F03CF8002801D00120F8BD00982D18641CE4B2B442EED30020AF
:4039C000F8BD00001C0E002030B50D4604000BD0A800FFF789FF6060002805D000202570C0436080002030BD012030BD70B50D46040005D0002D03D00220205E002801DA27
:403A0000012070BDFDF704FF0221615E60688900405828606088401E6080FDF7F5FE002070BD70B50D46040007D0002D05D002212078615E401E814201DB012070BDFDF786
:403A4000E7FE6088401C00B26080616880000D50FDF7DAFE002070BD10B5040009D0227800216068FEF708F90020C0436080002010BD012010BDF0B500231D46002802D0AE
:403A80000224045F0AE00120F0BD46689F00F6598E4201D1012503E05B1CDBB29C42F4DA15700020F0BD00000148007870470000300E00207CB505460024FEF715F9A879E2
:403AC0006946087000A8062229460130FEF7CBF80021684604F0DAFC0C2806D0072806D01F2806D0122806D006E0022404E0042402E0272400E0012420467CBD014801214E
:403B0000417270475C17002010B500F05FF9FFF7FDF9FFF701FA10BD70B504460025FEF7E3F8002C06D0A079012803D8214602F073FC00E00125284670BD01460120002954
:403B400002D05020088000207047000001460120002905D003485422007850430880002070470000320E002010B502460D49FE204870032410460DF07BFA002810D10DF085
:403B80001FFA00280CD105F063FA002808D100F013FB002804D104F01FFF002800D10024204610BD300E002070B50025044600280ED0A07901280BD8FEF796F8A079002856
:403BC000204602D002F0B6FF03E002F08BFF00E00125284670BD0000014610B50120002904D006220248FEF73EF8002010BD00003C0E002001460120002903D00878024999
:403C00000870002070470000320E00200148007A704700005C17002038B504460120002C20D0617801291DD800290BD0FF25E535FEF75AF80C4828180088C0B22070072886
:403C400003D00EE0FF25CD35F2E70020694608706846FFF775F969460878012801D108202070002038BD000000102E40014A002192681047300E002008B500226B461A7081
:403C800026280CD0094A342852680BD0352805D1900703D50021352005F0B6FA08BD19462620F9E7D007F9D03420F5E7300E002001490872704700005C170020F8B504465C
:403CC0000120002C26D06178012902D92278092A20D8002905D0FF25E5352078092803D004E0FF25CD35F8E708202070FDF7FCFF2078114F114E08280DD00020FFF75CF9A7
:403D000070780128207810D00D4969180880FE2070700020F8BD0120FFF74EF90720B8810549203188800120F2E7B8810248217820308180EBE70000C0112E40300E00208D
:403D400000102E4070B50E46050001D0002400E00C4C002C11D0E28A500609D5D107C90F022002F07BFFE08A40218843E08204E0D107C90F012002F071FF3146284602F049
:403D800059FC70BDBC160020F8B50546002004460D4E009013E022466946284600F0D2FF0098002801D00DF045F9A878214602F09BFAA878214602F089FA641CE4B2308A63
:403DC000A042E8D8F8BD00008817002038B51E4CFFF79CF8042813D0052811D0062812D003282AD007280AD100206946087002460120FEF7ADFFFFF789F80128FBD138BDBE
:403E000000F077FB38BD02F0C5FA00F072FB02F025FB8007800F0228F4D10C4841880029F0D05B21095D0029ECD101210170A07D0140022002F012FF38BD02F0AFFA012071
:403E4000FFF794F838BD0000BC160020560E0020F8B50646002402F06FFF0546304602F085FF03460A480021068A0DE001228A401046174628401F40002803D0002F01D105
:403E8000224394B2491CC9B28E42EFD82046F8BD881700201CB50020694648706846FFF7BBFE01AA69460A20FEF752FF6946042008561CBD70B50D4601F02AFB04000BD010
:403EC0002079002808D0FDF70FFFE178A0782A4602F036FC002070BD022070BD0148007870470000941600204030C07E002800D00120704700B500F001F800BD902148432F
:403F00000749084A40186030417F491CC9B24177D289914201D300214177C8B2704700009C1600208817002013B501F0F1FA04000BD001F08EFE002807D0214601AA0A31B6
:403F40000620FEF705FF00201CBD02201CBD000010B50C4601F0DCFA00280AD001F079FE002806D0224604490A20FEF7F1FE002010BD022010BD00007D160020F3B581B0BD
:403F8000074601460026029802F0CEFE0446002F01D0002500E0154D002D21D0284601F0EDFA032C04D13946029802F019FF06463846029902F08AF9032C06D0002C10D0C8
:403FC0000121384601F0E0FB03E03146384603F00DF9284602F06EF80221284602F084F8FEBD3846029902F071F9FEBDBC16002010B5044600F066FA002804D103F0C4FDD2
:40400000002801D00C2010BD2078611C02F09AFCFF2801D01F2010BD02F0E0FCFF280AD02178621C02F0E0F8044821780068026B601C904710BD072010BD00007C0E0020C5
:4040400010B503F0A1FD002801D00C2010BD02F05BFC03480068C06A8047002010BD00007C0E002070B50D46044610210CF022FF1021601806460CF01DFF3346102219464D
:40408000204603F0AFFD102130460CF013FF02202870204604F0D6FB70BD0000F8B504464078217802028006870FE0781143A67809050002090D0643084601F029FA002110
:4040C0000546F2B2002812D0002C10D0022F0ED0032F0CD0002A0AD00279092A07D0002A05D0134A5A23527E1B5C9A4207D82889002104F0DCFA20460CF09CFFFF21002958
:4041000014D10C48224600682946436930469847C0B2FF280AD128464030817EF2B2491C8176FF232146284600F0E3F8F8BD000054160020980E00200020704710B5044608
:4041400003F022FD002801D00C2010BD2078611C02F0F8FBFF2808D002F030FB044821780068426B601C904710BD1F2010BD00007C0E002010B500F06BF904F02DFC0020FF
:4041800010BD10B5044600786178E2780843A17811430843217908436179084305D003F0E5FC002803D00C2010BD122010BD204602F0C0FC002010BD10B5FDF741FB02F0E7
:4041C000DDFD044803F04CFD02F002FB012000F003F810BD64160020F1B586B003A8009005A8019028489F22817A114081726846FDF794FD002845D169460989C90705D0DF
:40420000224806990068C2686846904769460989890706D5002835D11D480068816A0698884700282ED11B4E0025757075737571F575357675767575B570F570B5713746E0
:40424000F5730120D03738731F20F880FF2130467972A0300176457600F0BCFA00242046069901F0A1FC002803D1641C2406240EF5D0FD720749BD72B573C0310D704D708E
:404280004D600D7207B0F0BD54160020980E00207C0E00209C16002070B505460E46084602F04AFD0446304602F060FD0121A9400A46224001400A4301D0012070BD0020BE
:4042C00070BD10B50446084602F050FD0121A140014201D0012010BD002010BD10B5FEF715FE032804D102F059F80120FEF73EFE10BDFEB51C4616460F46054601F0DAFEFA
:40430000A878FFF7F7FD02460190334639460094284600F00DF8002808D1A8780199FFF711FDFF2C02D138460CF084FEFEBD0000FFB585B005460E980C46FF2810D02B4990
:40434000C00009680A5840180179C0795278814201D9012601E09006860F6846038108E06078A1788006860FE0780002014368460181284601F078FC070007D0214628468B
:40438000079A00F073FC384609B0F0BD304600F021FD04AE0346039002AA29460096204600F0ADFB3C20405D002818D0284601F05BFC012813D0684600890096C0B20190BD
:4043C000A878231DFF22079902F0E8F868460089039BC2B2A878079902F028FCD3E7684600890021C0B20091E9E70000940E0020F8B5002600253046FFF72AFD07001DD085
:4044000090201149704340186030447F12E0601CFDF7FEFACCB23846E040C007C00F07D02146304601F04AFF21463046FFF7A6FD6D1CEDB20548018AA942E8D8761C36062B
:40444000360ED7D0F8BD00009C1600208817002010B502F0BDF90020FFF7BEFE0CF080FE002010BDF8B5002400F0B2F80123012800D10124104F00203E462036042508220B
:4044800003E0002801D0002100E031460979002907D001290BD002290BD0114681402143CCB2401C0006000EEBD07C70F8BD1C43F7E72C43F5E700009C16002010B5FFF740
:4044C000D1FF10BD10B5044604F0D8FB002802D1601C00F001F810BD1CB500240094062269460194FDF7B0FB002800D1122420461CBD10B5FDF7D1F80446FEF707FD01282C
:4045000009D0FEF703FD022805D0FDF7E9F92046FDF7C7F8EEE72046FDF7C3F810BD10B50B4681791943817103D08078114602F04BFB10BD10B582798A43827102D1807838
:4045400002F056FB10BD000030B50C4C0220A28A0B4B9978002901D0022906D11D785B78EB18282B01D9032002E0032900D101205105490DC0020143A18230BDC0112E4081
:404580004C0E002000B500F029F8002807D0012805D0032801D0042801D0002000BD012000BD014600B50020C90701D000F010F800BD014600B50020C90701D000F008F8EB
:4045C00000BD00000148006870470000440E002001480088000A704720102E400448008B410501D5042070474007800F7047000000102E400148406870470000440E002001
:4046000038B50446000610D5FFF7E8FF01280CD1684601F0C9FE6846007800F02BFB012001F0B0FD0220FFF749FF600708D507480179012904D1002101712620FFF71CFBC2
:404640000348006801692046884738BD500E00207C0E002010B501460A4A007800241070FFF7B6FF0128084603D002F0CFF9204610BD00F0E7F80400F9D1034801210170F2
:40468000F5E700004C0E00205C17002070B50446FFF79EFF002801D00C2070BDA27B01211F48002A827801D00A4301E05208520082706279012A14D0C17849084900C17068
:4046C000184D2868016820468847207901280CD06188208803F00AF82080207904280FD015E0C2780A43C270EAE72868C168E01D8847E01D02F00AFA0B48808C208006E0E3
:404700002868C168E01D8847E01D02F0FFF9074920798870204602F087F9002070BD00009C1600207C0E0020541600204C0E002008B50178FFF74CFF814201D10C2008BD8A
:40474000002914D0072069460870FFF71BFF012807D10121684600F0E5F8012801D0092008BDFFF7F1FE02F093F9012011E0FFF709FF012806D1684601F016FE68460078FC
:4047800000F0ACFA02F07AF9FFF722FF0028FBD10220FFF793FE002008BD000010B501460A4A007800245070FFF712FF0128084603D002F0E9F9204610BD00F065F8040000
:4047C000F9D1034801214170F5E700004C0E00205C17002038B568460CF0C2FB002801D01F2038BD01210098C90201804180002505714571857107214173857302F014F986
:40480000009C202200212046FDF736FA25702A460021601CFDF730FA204602F0F7F8204602F0B2F900980CF005FC062200210448FDF722FA02480C388560002038BD000023
:40484000500E0020F8B5044600250D4800950078012806D068460CF083FB002803D007250CE00C250AE0074E009830602278611C401CFDF7F8F93168207808702846F8BD46
:404880005C170020440E0020F8B5044600250D4800954078012806D068460CF061FB002803D007250CE00C250AE0074E009870602278611C401CFDF7D6F971682078087026
:4048C0002846F8BD5C170020440E00200346084800B5834209D8184600F01AFE002804D00089984201D1012000BD002000BD0000FF0E0000074A9179491C8906890E917155
:4049000038220A4092014907090E114308430249084070479C160020FF0E0000C006C00E70470000F8B507460E4600240D4803E0002C01D0002500E005462979002905D02F
:40494000641C2406240EF3D00020F8BD0021204601F02AF92E712046FFF7CCFF28813C700120F8BDBC16002010B503F06FF90222002100F003F801F0D7FE10BD10B5094B49
:4049800040074907000F090F185A595A40185043C0086421FDF73CF8002800D1012080B210BD00009C350100F7B53D20405C88B015460C46002802D02878042802D2002085
:4049C0000BB0F0BD6946087200262046FFF78CFA012800D00126204603A938300191009023460327A17E34333246206A03F052F902A8089900900B46019120463A4603A9B9
:404A0000243003F0CFF802466846007A2870204601F0B6F81046D3E7FFB587B00C4605461078694608723D20005D1746002826D000262046FFF758FA012800D00126204683
:404A400003A93830019100902346A17E34333246206A03F01FF902A80090291D019120462B1D03A924300A9A03F09CF802006846007A388002D1204601F082F810460BB082
:404A8000F0BDF0B505463C20405C89B016460C4600280CD0307869460873002806D000272046FFF721FA012803D003E01F2009B0F0BD012703200890204604A93830019194
:404AC00000902346E17E34333A46E06903F0E2F86846007B03A928180290009120462B46019504A92430089A03F090F802466846007B3070204601F04DF81046D7E7FFB529
:404B000005463C20405C89B016460C46002810D0084601F0A9F801280BD0308869468883002809D000272046FFF7DEF9012805D005E000200DB0F0BD0220FBE70127204693
:404B400003A93830019100902346E17E34333A46E06903F09FF8291D2B1D07A8129A6D4607C5204603A924300C9A03F04FF802466846808B3080204601F00CF81046D9E7AD
:404B800070B50D460446FFF7AFF901280AD0E87AA97A00020143A07801F0C2FC012808D0002070BD00222421204602F0F1FC242070BD28214C200155204600F0B1FB282040
:404BC00070BD0000002801D0002000E003484030C07F012800D0002070470000BC1600200146002049070ED50021084B03E0002901D0002200E01A461279022A04D0491C96
:404C00000906090EF3D0704701207047BC1600200146002049070ED50021084B03E0002901D0002200E01A461279022A04D0491C0906090EF3D0704701207047BC16002063
:404C400010B5044680346068002803D00CF006FA0020606010BD4030417070474030817070474030017070470171704792001018C166704770B53C2501F09CF9040004D0D8
:404C800020460021433001F0FFFBFF222946204600F0E8FB002C02D0A07801F00DF970BD10B5002801D0002000E00348002802D0008903F043FD10BDBC16002010B50028A1
:404CC00001D0002000E00448002804D00179072901D100F047F810BDBC16002010B501F069F9002802D0807801F0E6F810BD00207047000070B50546008A00281ED010494B
:404D0000F122897A1140C90618D5294640314A8A098A521C4A4392B2D10800D10121540801E0621A94B2A042FBD9FEF7BDFE012804D1298AA878224601F0B8FC70BD00008E
:404D40005416002010B50023054C0B60248A944204D992001018C26E0A60C36610BD00008817002038B5044600200090A079002814D14020015D052901D00E290ED168460D
:404D80000CF0FEF8002809D12046009902F0DEFB03481021C28A2046FFF7C1FB38BD00005416002010B50B4604460146184602F04BF8002802D020460CF046F910BD13B56C
:404DC000044601AA11460620FDF7C2FF6846818861811CBD002800D10220704770470000F8B504462346401D543300909A1EA078911E01F0F5FA25464035A88A298A800019
:404E0000FCF706FE401E81B2688A884203D96982A07801F05DFF698A8C20015120460021433001F031FB27480088E88102F00EFFE989891C8AB26179FFF7A0FD01F074FC7A
:404E400002F004FF2A8A6179FFF798FD074601F05FFC688A002806D01B49088A032212021043088202E0002001F026FF1648803801886E8A002E0CD0304648431349FCF786
:404E8000B1FE0004000C01D0401C80B21049488002E00F4800214180288A704381B2A07801F080FEFF2228374932B9B21346204602F020FCE98AA07801F0F4FDA07801F0D0
:404EC00025FAF8BD80102E40E0112E4071020000560E00207FB504468034616805460E46183108226846FCF7BEFE31462031082202A8FCF7B8FE102168460BF0DBFF60685F
:404F0000102108300BF0D6FF60682B46083024331022694602F066FE7FBD10B504460821FFF708FB10212046FFF704FB207905281FD006281DD008281AD12189002003F098
:404F400075FB072020712046FEF7CEFF014620464030012913D00E21017000210176204600F0BCFF2046FFF76BFE2046FFF7C2FE10BD20890122002103F03CFBE1E70521BB
:404F8000EAE70000FFB581B01F4604460821FFF7D1FA10212046FFF7CDFA2079082803D0092804D0042203E00422012501E009220025204600F044FE2646002040363070ED
:404FC00022712046FFF73CFE0398002D02D0012808D00BE001280AD120890022029903F009FB04E02189029803F020FB012700203076012F04D0204600F070FF05B0F0BD52
:4050000002983073204602F0EFFA054605480121C28A2046FFF783FA002DEFD109202071ECE700005416002070B50C460546FEF75BFF012809D108212846FFF77BFA0023D6
:40504000012221462846FFF79DFF70BD10B5044600F0F6FD2046FFF7F3FD00214034217010BD70B505461A24FEF73EFF012809D108212846FFF75EFA002301222146284665
:40508000FFF780FF70BD0000F8B50446002000900E4668460BF074FF002801D00D20F8BD8420005908212030009D00F02CFA20460421383000F027FA002E02D1204600F0D8
:4050C000FBFD2946204602F0D0F90E480821C28A2046FFF724FA204600F071FF25464035002808D0204600F023F8002801D0092028700020F8BD08202870204600F0DAFF4E
:40510000F7E7000054160020014610B540310A460978082906D0092907D00A2901D100F091F810BD0B20107010BD00F001F810BD70B50446007925464035052805D0062838
:4051400003D008280FD00C2070BD03220621204602F01EFA0D480821C28A2046FFF7DFF91120287010E006202873204602F03CFA0646AA8A0A20424301212046FFF7CFF9BD
:40518000002E01D109202071002070BD5416002038B504460020009068460BF0F1FE002801D00D2038BD2046009D00F0C3F908202071204600F080FD2946204602F088F941
:4051C00000213D2001550F2040210855204600F071FF002038BD00B5024600F031FD10214032117000BD10B50446FEF77DFE012809D04020005D112805D100231A46062120
:405200002046FFF7BFFE10BD10B5FFF786FE10BD38B504460021684600910BF0B1FE00280CD12046009902F0D4F905480821C28A2046FFF774F90D204034207038BD0000C7
:405240005416002038B504460021684600910BF097FE002801D00D2038BD2046009902F0ADF905480821C28A2046FFF758F90C2040342070002038BD54160020007870475E
:40528000F8B5002569460D70002801D0002400E01F4C002C18D0204600F0DBFC002813D0207903280BD005280CD026464036B18AA07801F081FCB078012806D01DE00420A9
:4052C00020711DE006202071F8BD0021204601F0D8FD274680373868002802D00BF0BEFE3D600020B0702079072802D12046FFF701FD0221204600F0F7FE20790428E3D139
:40530000207A694608703420FEF7B6FCF8BD0000BC16002010B54C22115400F052F810BD10B50446FF21FFF705F909202071A07801F068FC10BD000038B5FF216A46118006
:40534000002801D0002400E00B4C002C12D011460620FDF7FDFC684601882046FFF72FFD204600F087FC002804D104480068C1692046884738BD0000BC160020980E00200C
:4053800010B504468079002809D022214C200155FF212046FFF7CEF8204600F012F810BD10B5037902464032002B03D01173092B02D003E0002100E02221117300F001F859
:4053C00010BDFEB504460089002700902781207926464036002817D0012815D002280AD112E002AA01A9204601F01CFD002807D101980BF029FE204601F03CFD0028F0D073
:405400002046FEF7C1FCB776254680352868002802D00BF023FE2F606868002802D00BF01DFE6F60317B002919D0009800F064F8A078002100F086FF2046FFF795FAA078D0
:4054400001F058F8A07800F037FDFF212046FFF771F80B20FFF732F800F068FCFEBD1F213173E2E7F8B517460E46054602F0EAFB04003CD020460C3000F0F6FF204606221E
:4054800000211830FCF7F8FB2046062200211230FCF7F2FB1648224600683946436A28469847074626702846FEF71EFD012148406070002D10D02889608028464030C17895
:4054C0002171002E0FD169796171018AE180418A2181808A608106E00648008BC005C00F2071002060803946204603F022F8F8BD7C0E002000102E400A4610B501460020E5
:4055000003F034F910BD10B50BF0B0FA10BD000000B50146FFF702FA002801D0002000E00348002802D002898A4200D0002000BDBC16002038B5044680346068002806D173
:4055400068460BF02DFD002801D100986060606838BD000010B5014600F086FB0128887802D0FEF7CBFC10BD90214843024940186030007F10BD00009C16002070B505464B
:4055800004464035A87F012811D1A1789020084A484380186030067F3046FEF77DFE002805D10220A877A078314601F04DF870BD9C16002010B50C4CA07A002813D0FEF787
:4055C00017FF0A48027F417F408B00F0B7FB012809D10020A07200F0FDFE05498989090B01D000F03BFA10BD6C1700209C160020A0102E4070477047490510B5490F0B00C7
:40560000FCF740FD060704080C0C0F073E21FFF781FE10BD0821FFF7C3FE10BDFFF7D1FE10BDFFF7ADFE10BDF8B507460025002D01D0002600E0204E00F09AFE30464030A6
:4056400044890021418100F09DFE304600F001FB01282BD1A00702D52846FFF711FEE00602D52846FFF768FEA00601D5FEF7C0FE600601D500F014FB200602D5284600F02B
:405680001DF8600702D5284600F02CFA380402D52846FFF713FB780402D52846FFF700FBE00703D021463046FFF7A6FF6D1C2D062D0EBCD0F8BD0000BC160020F8B50028AB
:4056C00001D0002400E0284C002C4BD025464035A878012846D1FF278820493700593E46002805D02149897A890601D5878AC68A2046FEF7F9FB012834D002F0A7FA2A8ABC
:405700006179FFF73BF9009001F002F800983346283081B23A46204601F0ECFFE98AA07801F0C0F912480188688A124E002810D048431149FCF756FA0004000C01D0401CB5
:4057400080B27080A07DC107C90F002001F086FA01E000207080288A698A484381B2A07801F020FAF8BD0000BC1600205416002060112E40560E0020710200000149096880
:4057800009680847980E002070B50D460026194A0146002801D0002401E014462034002C26D0204600F060FA01280AD19020484380186030007FFEF76FFD002801D101F06B
:4057C00093FE0D48006881692046884700280CD020464030817EA94202D3491B817600E086762089294602F062FF204600F062FC70BD00009C160020980E002070B503461A
:405800000088FFF785FE040013D000F022FA00280FD02079092819D02546997840352973204601F0E1FE0646A878012803D0AA8A02E0022070BDEA880A2042430121204681
:40584000FEF76DFE002E01D109202071002070BD0EB5002217216B460292198100905A810120029B00990BF099FC0EBDF8B518480024807A002822D1164E0025B089000B95
:4058800022E0204600F010FE1249A039401807882A462146384600F051FA012810D00E480122478305770A4944778A72002D01D0002000E02030002801D000F0FBFBF8BD23
:4058C000B089000B641CE4B20028DAD1F8BD00006C170020A0102E409C16002010B50088FFF716FE002809D0014640310C460978082905D00B2903D00C2010BD022010BD5B
:40590000FFF716FC002801D009202070002010BD70B503460088FFF7FBFD040008D0254640352878082805D00B2803D00C2070BD022070BD8420005910220830991CFCF7BE
:4059400092F92046FFF7C6FA2878082804D02046FFF778FC002801D00A202870204600F0A9FB002070BD000010B50C46002121700088FFF7CDFD03000BD000F06AF90028A0
:4059800007D00948F121807A0840C00603D4112010BD022010BD022020701A8A1889002102F000FF002010BD54160020F8B50F46002100910088FFF7ABFD040012D000F0B1
:4059C00048F900280ED0E079410641D4617E02264A07002A08DB8907402500291ADA2843E07135E00220F8BD02F02CF90021017021894180A1898180217E4170E189C18052
:405A00003E7005460178134802F0A6FB284602F06DFE1DE0204600F02DF9012806D068460BF0AEFA002803D00720F8BD2A20F8BDE07900992843E071204601F0FFFD607EBD
:405A40000421304360760448C28A2046FEF767FD0020F8BD1D040000541600203EB500220F236C460292238100910190628169460EC900200BF092FB3EBD0000F8B50F4680
:405A8000054600F097FA040025D003202071254600264035EE76E6702046FFF7A1F900F0EDFF0920FEF70AFDA07800F011FD0121204600F019FB2E706E70AE703A460021D9
:405AC0002046FFF7CFFC0649887B401C8873A078FFF754FEF8BD284601F094F8F8BD00009C16002010B5002801D0002000E0094800280DD0014640310A464978022901D175
:405B000000215170807DC107C90F002001F0A6F810BD0000BC16002070B503460D460088FFF7F6FC04000BD000F093F8002807D01248F121807A0840C00603D4112070BD45
:405B4000022070BD20464030418A008A491C41430804C10C5888884201D2122070BD20822079072802D12046FFF7C4F8022028702089002102F03EFE002070BD541600202F
:405B8000016A491C016204D1817E491C4906490E81767047C169491CC16104D1C17E491C4906490EC1767047F0B5074687B003A8009005A800260D460190002F01D0002428
:405BC00000E01B4C002C05D06846FCF7A7F8002803D00BE0022007B0F0BD68460089C00704D1902200212046FCF746F8114829460068826820469047050016D1A77066763E
:405C00002746267140373E70204600F019F8204601F02CF9084820820848BE77807AF121084000D001202075E682E8B2D3E70000BC160020980E0020B80B00005416002046
:405C4000002101628176C161C17620300177417770470079002805D0012803D0022801D001207047002070474030807F002800D00120704740300078002807D0012805D0D9
:405C8000052803D00E2801D0012070470020704710B5807801F06AF8002800D0012010BD10B500F097FB03498989090B01D0FFF7D5FE10BDA0102E4070B5054604464035CB
:405CC000A87F002825D1FF206075A0789021154A484380186030417F9023491CC9B24177A0785843104B8018DB896030994201D300214177A0789021484380186030467F22
:405D00000677A1783046FEF7C7FA002802D00120A87770BD0220A877A078314600F094FC70BD00009C160020881700200020401C0006000EFBD0002070470000F0B51546FA
:405D40008207920F85B0000A02926A469080002D01D0002400E0564C002C28D0084600F0A3FB07466846808800280BD00298012843D0022841D003280BD03D20005D0128C2
:405D800079D08FE04B48381801882046FFF717F888E00020029002A80BF0D2F8002807D03D20005D012802D12046FFF7E9FE7CE06846029E8388324600213846FCF7DAFE3C
:405DC0003C48381801882046FEF7F9FF284600F0A9FA01AA21463046FEF7E6FD002806D030460BF01DF93D204C21085531E0F5773146204601F0A2F957E000200090208970
:405E0000039068460BF08CF8002802D0002005B0F0BD6846009E8388321D00213846FCF7A9FE2448381801882046FEF7C8FF284600F078FA2046FFF70CFF002805D0254641
:405E40004035287E002810D107E030460BF0DEF82BE02046FFF764FA27E001AA21463046029BFEF7D9FD002806D030460BF0CEF83D202873EDE712E00298FEF7AFFF039948
:405E8000317003990001090A0143717068468088B070000AF0703046FFF7DAFC05E02046FFF76EFE284600F03DFA0120AFE70000BC16002000102E4010B5074A917B002936
:405EC00001D0491E91730021FFF76EFE002801D0002010BD012010BD9C160020F8B5074606464037B87F00282DD0B078902100904843234945186035287F0099FEF7E1F9C3
:405F000001281ED0287F401CC4B21E48C089A04200D800240020B877FF276F772F77A87702460146009800F0FBFC717DFF2903D0304600F05CFF777501F0D6FA0025114F3A
:405F400019E00320B877F8BD00200090224669463046FEF7F7FE0099002904D0FF231A463046FEF7C6F9641CF889E4B2A04200D800246D1CEDB2F889A842E5D8F8BD00003E
:405F80009C1600208817002010B502460021084B03E0002901D0002000E018460479944204D0491C0906090EF3D0002010BD0000BC16002000B50120FFF7E6FF00BD10B50D
:405FC000044601F03FFE2189018080346168416061682831816002F043FB10BDF7B50646087982B00C46092807D0A078F0770846FFF73AFE012806D010E030460BF024F864
:40600000022005B0F0BDA1789020294A484380186030007FFEF740F9012810D0A078FEF7D1FD01280BD037780121304601F008FA25462035062F38D00B2F0FD107E0684672
:40604000027C21463046FEF7ADFE0D20D9E72046FDF74AFF012801D1002028772046FFF779FA054604AA21463046FEF70AFD01205F2108556946097C002001910090A078AE
:4060800033463A46294600F089FA69460A7CA0780323294600F0CAFDA0782946FDF752FE30460AF0D1FF0020ABE70120D5E700009C16002010B502464032937F0021002B23
:4060C00003D1927E002A00D00121064A927A002A00D000210279092A00D10121807800F0DDFD10BD6C17002070B50C460546FDF7FBFE00280BD1012C06D92879092806D0EF
:406100002846FFF7C5FD0446002C02D004E0012402E0A87DC007FAD1A87DC107C90F204600F09CFD70BD0000012807D0082804D104480282034808300180704701488038DD
:40614000FAE70000A0102E40014908817047000000102E4010B50446FF20F130012C01D1FF20D530002200F0CBFD044A108A044980B2A0430880108210BD000000102E401D
:406180005A0E0020034B198A034A89B2814311801982704700102E405A0E002010B50446012802D0082C07D102E0FF20D53001E0FF20F13000F09CFD0348018A034A89B20D
:4061C00021431180018210BD00102E405A0E0020034B198A034A89B2014311801982704700102E405A0E0020F8B505460120A84086B214460F46012231467C2000F080FD23
:406200003A463146782000F07BFD6078267800020643E078A2780002024360792379000203430C2045430D2080010549281844182680001D44182280001D40180380F8BD76
:4062400000102E40CB065B0E0343480901021943D00108430121C902084301490881704780142E404278037812021343084A1382C37880781B021843908248780B78000208
:4062800003431383C8788978000201439183704700142E40024A1080000C90801181704700142E40044A002180180288491C89B21029FAD37047000000102E40024A108221
:4062C0000148803081817047A0102E4010B5054A1082084600F038FD024A0021A03A8018018010BDA0102E4010B50B46044600F005F819462046FFF7E1FF10BD024A1082D7
:406300000148803001817047A0102E4010B504490882FF20002220211D3000F0F1FC10BDA0102E40000202494D3008807047000000102E400249888A04229043888270473C
:40634000C0112E4010B5084B074C0202A03B0029208202D075321A8010BD04490020088088807632F7E70000A0102E40201A2E4000B5034908884880FFF704FF00BD000091
:406380005A0E002000B502484088FFF721FF00BD5A0E002010B5FCF7A3FD10BD014952200880704700102E4000210170704700000748808806492039098B884201D8081AF4
:4063C00003E00022D243101A401880B27047000020112E400148008AC0B27047A0102E4070B5084C049D2082074804890548603006880E8001891180808818806007400F5D
:40640000287070BDA0102E40E0112E400148008970470000C0102E4000280FD00D4A108B0870000A4870908B8870000AC8700948203000880871000A48717047064A1088C7
:406440000870000A487090888870000AC8701089F0E7000040102E40C0112E400148008A70470000001A2E40064B1A8999891B8A0270120A42708170090AC1700371190A4A
:406480004171704760102E40012904D00549098BC90B017070470349403109898907C90FF7E7000000102E40014840897047000088170020044A10820448028980894843D3
:4064C000101880B270470000A0102E40881700209021074B414300B5C918FF2260314A770A7700228A77114600F01AFA00BD00009C16002090225043074A10B58018FF217D
:40650000603041770177002181770448418EFF201D3000F0EDFB10BD9C1600205416002000B5044A1082034880308088022200F003F800BDA0102E4010B50023884201D8ED
:40654000081A03E00024E443201A4018044980B2884201D8824200D90123184610BD0000FF7F000070B55478157824022543D47888232602947834435679127936023243F8
:40658000002900D09823044908820348A038181805808480028170BDA0102E40FFB581B014460D4607460A9E0B9BFFF783FF002E0AD0009333460021049AFCF76BFB054888
:4065C0004019C45505B0F0BD0021049AFCF748FBF5E700005E0E002070B502460448054D808808242C800B460021FCF739FB70BD88170020A0142E4010B521240246640121
:40660000044953200880102300212046FCF728FB10BD000000102E40417802780902044B0A431A83C1788078090208439883704760142E40034A1082802001430148803089
:4066400001817047A0102E40054A1082044A6032908B0009000108439115084390837047A0102E4030B500210F4B0A46012809D0032802D005280AD107E0402119810221FD
:406680000A2204E004210C2201E004210D221882054C20342088C0B205460D42FAD022800021198230BD000080142E4010B5044607480482074801808280032189030820AA
:4066C000FFF76CFD200202497530A039088010BDA0102E40201A2E40054A1082044A60321183000202494B30A039088070470000A0102E40054A491E1082044A6032118326
:40670000000202494C30A03908807047A0102E400349884200D908460249088070470000FF0F000060112E400349884200D908460249888070470000FF0F000060112E4072
:406740008823002900D09823084908820748A038191808881070000A507088889070000AD07008891071000A50717047A0102E4010B51446024606480B46C0880021FCF73F
:4067800055FA012C02D103495420088010BD00008817002000102E40064A11880170090A417091888170090AC1700349542008807047000080142E4000102E40012181406A
:4067C00010B589B200227C2000F09AFA10BD0000FEB5FF210120FFF7BDFCFF210820FFF7B9FC3020FFF7CEFC3F48802101803F483F4D00784007400F02286FD001286BD14C
:4068000000202880002211460320FCF7A1FA394E3949B08D8882384F002420373248A0300482308F38822046FFF764FE641C2406240EF3D0B08F38832E48103000F052F983
:40684000716930690191009069464879C021084369464871684600F06DF900F055F82548214C40304188A03421838188A1831E49C088C0318880708E388020480026068212
:406880003920FFF7A5FC184F532038801C490720088354203880E020FFF704FDE820FFF701FDF020FFF7FEFC0020FEF75DF813488682282101838015A0810F484030868102
:4068C0005B203880094800784007400F022807D0012801D10B482880FEBDFFE7032090E70848C01CF7E7000000102E4088170020001F2E4054160020C0112E40001A2E40AF
:4069000080142E40E0230000044800218183018302497420603908807047000060102E40074B1882064B6033988B00090001084399158843002A01D1102148409883704780
:40694000A0102E40F3B50D2284B0920100924A780B78120213430393CA788B78120213434A790979FF20120211431A4A8C46918B9E460291118B01911649742260390A80FA
:40698000154900220F7821E00121124B9140009C603BE3181D8889B21C881B88039E6E407546654064462E435C4026430CD1029B194209D00199D140CB070499DB0F8B42D8
:4069C00002D1104606B0F0BD521CD2B29742DBD8F8E7000060102E409416002030B50949FF208C8B084A00210125137805E02A468A40224204D0491CC9B28B42F7D830BDB5
:406A0000084630BD60102E409416002010B50446E020FFF747FC20782246401CC3B20021E020FCF7C3F810BD42790021012A02D901214171090342790A430179042914D069
:406A400049001143827B032A01D8D2001143427B52010A43817909021143012252031143054A118300889083704711460122920211430222E5E7000000102E4000B50120F3
:406A8000FFF780FB01494120088000BD00102E4000B50120FFF79CFB01494020088000BD00102E40024A10820148603081817047A0102E4010B5044C208204488180028112
:406AC00083815143018210BDA0102E40A0132E40034B1882024820388180028070470000A0102E404178027809020A4306490A80C2788378120213438B8042790079120237
:406B00001043088170470000C0112E404178027809020A4306490A81C2788378120213438B81427900791202104308827047000060102E40417802780902084B0A431A833E
:406B4000C178827809020A439A8341790079090208430249203108807047000040102E404178027809020A4306498A80C2788378120213430B814279007912021043888198
:406B800070470000001F2E4010B50446E820FFF789FB20782246401CC3B20021E820FCF705F810BD024A10820248818370470000A0102E40001A2E40024A10820148603009
:406BC00081807047A0102E4010B5044688000521FAF71EFF04490C8204498880200202497230A039088010BDA0102E40001A2E4003490882000202497330A0390880704703
:406C0000A0102E4003490882000202497030A03908807047A0102E4003490882000202497130A03908807047A0102E40F8B505461C4617460E46084600F086F8054AB90074
:406C400021431582034AA03A80180180024880194455F8BDA0102E40630E002030B50E4C238A01251A46012804D0022804D000290BD00CE02A430AE0002908D12A43228232
:406C80005008400020821A4601E05A0852009A4200D0228230BD0000001A2E40054A1082044A6032908B4023984389010143918370470000A0102E40044A118A02230028D9
:406CC00001D0194300E0994311827047001A2E4000B5064A1082054860300181002901D0012000E00020FFF7E7FF00BDA0102E40024A801802880A430280704700102E409F
:406D000070B5084BC5182C880023080003D104E040085B1C9BB2C607FAD08C439A4022432A8070BD00102E40024A1018405C8007800F7047630E0020024908820148803025
:406D400080897047A0102E408000FF3041307047044B02461B8AFF208B4202D902484018805C7047881700205E0E0020024908820148803000897047A0102E401749024607
:406D80000B680020002B08D10A605207520F012A04D0022A10D0086012207047112292018A80CA80032252020A810122D2024A8140228A8105220DE0092252028A80CA8088
:406DC000012252030A810322D2024A81012252028A810422CA810A8270470000881700200A4600B501461046FFF7B2FF00BD38B50C4605460021684600910AF0C1F800280C
:406E000004D1009928464C7000F00AFC38BD10B5044680780021FFF745FE01212046FFF763F910BD436E002B0CD00B60014660318B781370826E4266CA788A70002181666A
:406E400008467047FF20704710B50346446E6033002C04D0846E002C04D0FF2010BD41669A7001E08166DA70002010BD0021416681667047406E002801D000207047FF2053
:406E8000704770B50446C0790D46810610D5DF210840E07100F0D6FE0570218941804034218A8180618AC180A18A018101F014FB70BD000010B50446FEF7D6FE01280AD175
:406EC000A1789020054A484380186030007FFDF7E3F9012801D000F007FB10BD9C160020F8B50E460446FCF7FFFF01282BD02079042801D0072825D1F079B77900020743ED
:406F0000A0783946FFF70CFB25464035012820D03A46711C204600F094FA02212046FDF79AFEA07DC107C90F0220FFF797FE688A002807D0E87E002804D1032109020820A9
:406F4000FFF72CF9F8BD01222421204600F020FBF8BD282028732046FEF7E2F9F8BD70B50D460646FDF70CFE002852D120213046FDF7E0FA3446687840346073E878202210
:406F80000002E081A9780843E0816879010228790843218A814203D0F1791143F1712082E8790102A8790843618A814203D0F1791143F1716082687A0102287A0843A18A7E
:406FC000E180814203D0F1791143F171A082A08A218A8000FAF71CFD401E618A80B2814200D9608201213046FDF738FEE87AA97A000201430022304600F03AFB608A0028A4
:4070000007D0E07E002804D1032109020820FFF7C5F870BDF8B50C4605460027FCF764FF012847D0284EB07AC00709D02846403000900078002806D0102803D01F212CE065
:407040001A212AE001272846FEF774FA002823D02E4680360822611C7068FAF704FE7068617A20300172A17A417270682146183008220B31FAF7F7FD2146284604221331C6
:407080003430FAF7F0FD39462846FDF7FDFF002810D1002F0FD012E007210322284600F077FAF28A08212846FDF739FA11212846FDF7D7FDF8BD06212846FDF7D5FD009842
:4070C00001210176F8BD00005416002010B5FEF71BF810BD38B504460020009020790D46032803D0042801D007281BD12046FCF7FBFE012817D0684609F042FF002811D1E1
:407100000C486A78807A00991040F12210402075607E082210436076204600F0C1F92046FDF7E5FD38BD08222421204600F030FA38BD00005416002070470000F3B581B0CE
:4071400004460298FEF79AF806462046FEF781FD00282FD0162E04D32046029900F003F928E025464035287800270300FAF78AFF0E1B1B1B08081B1B1B0808080808081B19
:407180000298194A01780020135C8B4201D1012702E0401C0728F7D3E87E002801D1072901D0002F0AD01049B00008310A58204602999047029809F033FFFEBDA078FFF758
:4071C00021FD002301223D212046FDF7DBFE3D2028732046FFF71BFE029809F021FF2046FEF7EFF8FEBD0000AC35010070B50D460021002801D0002400E00C4C002C14D09D
:4072000020464030C177807F032802D12046FEF765FE2046FFF74EFE162D04D20449A800095820468847FEF781FD70BDBC1600200C36010010B5014640310C4609780E29DD
