:4000000000800020ED320100616E0000616E000000000000000000000000000000000000000000000000000000000000000000000000000000000000000000000000000062
:400040000000000000000000000000000000000000000000000000000000000000000000000000000000000000000000000000000000000000000000000000000000000080
:400080000000000000000000000000000000000000000000000000000000000000000000000000000000000000000000000000000000000000000000000000000000000040
:4000C0000000000000000000000000000000000000000000000000000000000000000000000000000000000000000000000000000000000000000000000000000000000000
:4001000080B512206149086006F064FF604800F01FF9012006F06AFF302002F0C7FA5D485D4908608020C0055C4908605C480068022101435A4801605A485B490860002051
:400140005A4908605A4800680821884358490860FA20C00002F02AFB564802F0BDFBBE20C001554908605548554908608820800154490860544852490860802000065349DD
:4001800008608020C002524908604120514908604020514908605149082002F055FB082002F06CFB8020C0053C49086001BD000038B572B600203E490860002411E048484F
:4001C0002100C9B2062251434018057941790906090C0D4306F0E0FFADB2290006F086FE641C2000C0B20228E9D33E493E4806F084FE3E483E490860C02080023D4908608A
:40020000992000043C490860992000043B490860992000043A4908608020400439490860992000043849086038480078C3210140142008433549087035480078162101434D
:4002400033480170202033490860334833490860202033490860334833490860122033490860334833490860082033490860102032490860324833490860802080003249FF
:400280000860FFF73DFF06F056FE31BD30001040001BB7000600008004010B400C020B4078002E40555500007C002E4064F02E406CF02E40DC0500000403014041FF0080FC
:4002C000000001400003014040FF008008010B4000010B402C01014004010140C9700000280D0000800C00006C0C0000000099EE000002400002024000500F4010500F4099
:4003000020500F4028500F4030500F4001700F4000700F40000004400010DB000800044018000440D8860100080104400002044010600000080204400C02044000030440C9
:4003400036200300080304400C03044000000000801C800803D0401EFDD100BF00BF7047EFF3108072B6704780F3108870473F0071F200001B3401009336010071F20000F8
:400380001B3401009336010071F200001B3401009336010071F200001B3401009336010071F200001B3401009336010071F200001B3401009336010071F200001B3401007C
:4003C0009336010071F200001B3401009336010071F200001B3401009336010071F200001B3401009336010071F200001B3401009336010071F200001B34010093360100C2
:4004000071F200001B3401009336010071F200001B34010093360100175C0000D771000025390100293901004B110100F138010021390100D368000085E50000F734010092
:40044000F7340100F7340100F7340100A9E8000049E90000F7340100F7340100F7340100F7340100F7340100F7340100F7340100F7340100F7340100F7340100A9E60000EE
:40048000EDE6000009E2000051E40000B9E90000795C00008F3601008F3601008F36010041380100393801008F3601008F3701007F380100973701009336010093360100EC
:4004C00093360100933601008337010021360100738600008737010093360100933601007737010093360100293601008F36010093360100D3360100973601008F36010002
:400500009336010093360100933601009336010093360100E340000071F2000071F2000071F20000C33501008535010071F200006F350100D33501000F400000B74B000067
:400540002B4600009B34000071F2000071F2000071F200000735010059350100CB3300001342000043390000133C00001D35010071F20000E93501003B350100CF350000DE
:4005800071F200000B3D00007F4E000071F2000071F2000071F20000AB3401001B3401001B3401001B340100D3340100633401001B340100973100009731000043220000E5
:4005C000DB340100D73401001B3401001B3401005F3401001734010021880000218800001B340100CF3401004B3401001B3401001F3401001B3401001B3401003734010089
:40060000233401001B340100C7210000E3340100DF3401001B3401001B3401003139010039390100353901005F760000FD380100A7740000E3710000F5380100F938010037
:400640003D3901002D390100AF71000041390100413901002B540000B52F0100E33E01003130010003040506020D11004F3B0100A53A01000D3D01007D1601004B110100C5
:400680004B110100ED3C01007D1B0100591701007D1B0100893C0100A13C0100773D0100CB3C01004B1101004B1101004B1101004B11010061180100C13C01006516010047
:4006C000711601002385000023850000593D010023850000813C0100E53C0100FD3C01002385000023850000A380000023850000B13C01007B860000DD3C010023850000FD
:4007000023850000238500002385000023850000238500002385000023850000B1D3000000000000B80700005807000008000000E92D010000000000C4080000100800007C
:400740000F0000000000000000000000000000000000000000000000810000000000000000000000820000000100000001000000010000000200000002000000020000005E
:400780000400000003000000030000000600000005000000F10000000700000007000000F20000000900000008000000FF0000000A0000000A00000002000000251F0100C8
:4007C00001000000251F01000E000000D11D010002000000651E01000C000000B91D010002000000A51E01000C000000B91D01000E000000251F01000C000000611F0100C4
:4008000002000000B91D01000E000000CD2D0100010000000100000000000000020000000400000002000000030000000700000005000000040000000A00000008000000A7
:40084000050000000C0000000B000000060000000E0000000D00000007000000100000000F0000000800000013000000110000000900000016000000140000000A000000AC
:400880001700000017000000FF00000018000000180000000B0000001B000000190000000C0000001D0000001C0000000D0000001F0000001E0000000E00000021000000DE
:4008C00020000000010000004D240100FEFFFFFF35220100010000004D240100060000003D260100F8FFFFFF35220100180012003D220100A000000C5D3E010047FFEDFBE8
:4009000035220100E0000C008D21010000012000D52001001FFED3FF35220100A000000C4D2B01005FFFFFFB3522010000020000752A0100FFFDFFFF35220100000C000091
:40094000A91F0100FFF3FFFF3522010000080000953E010001000000A53E0100FEF7FFFF35220100002000003D20010000400000B12A0100FF9FFFFF35220100FFFFFFFFD0
:40098000CF3E0100FFFFFFFFA11F010000800000C5D0000000000100A9D00000FF7FFEFF352201000080010071D00000FF7FFEFF3522010000008003B1A80000FFFF7FFC20
:4009C0003522010000801F0A8DD00000FF7FE0F535220100240003003000010028000200240001002400010044657669636520646973636F6E6E65637465640A0D000000A8
:400A000044657669636520636F6E6E65637465640A0D000049742773206E6F7420352121210A0D005468652066697273742076616C75652069733A20257820616E64207465
:400A40006865207365636F6E642076616C75652069733A2025780A0D00000000010003000500070009000B000C000E000F000000AF317A569AE01C8AFE45D299A96DED8672
:400A800000220F18E8B1B18326451561F7A0C7EFB58780261EEB7AAB9C4C25F048E1671701000028010000000B0000000018000000000000020003280100020003000000BE
:400AC000002A0000000000000300002A010002010300000002000000A4010020040003280100020005000000012A0000000000000500012A01000201050000000200000034
:400B0000AC010020060003280100020007000000042A0000000000000700042A010002010700000008000000B4010020080003280100020009000000A62A00000000000053
:400B40000900A62A010002010900000001000000BC0100200A000328010002000B000000C92A0000000000000B00C92A010002010B00000001000000C40100200C00002854
:400B8000010000000F00000001180000000000000D000328010020000F000000052A0000000000000E00052A000020010F00000004000000CC0100200F00022901010A01D0
:400BC0000F00000002000000D401002010000028010000081700000010000000DC01002011000328010008001300000010000000E40100201200F7A000010809130000004F
:400C000004000000EC01002013000129010002011300000019000000F40100201400032801001A001700000010000000FC010020150048E101011A09170000000200000007
:400C400004020020160001290100020116000000380000000C0200201700022901010A0117000000020000001402002001000F402E300F401F310F4003420F4002600F400F
:400C8000800F06040701120813011C012607300132043301340836023F044020410545D146054720482749FF4AFF4BFF4DA04F04501852805407580459045A045B045F0166
:400CC000604062C06440654066C068C06AC06CC06EC09001AE03B002B201D804DF01000409020A010E801020158018041A411B081E90220430023804400448224902500220
:400D0000514059025A5871028708C004C219C484CC01CE02D004D208D60FE4025F028702D60101011001000000300F40000400400F400004030405060708090A0B0C0E0FC4
:400D4000101112131415161718191B1C1D1E1F2021222325262728292A2B2E2F303132333435000020555020636F6D6D616E642072656365697665640A0D000020444F579F
:400D80004E20636F6D6D616E642072656365697665640A0D0000000020494E20636F6D6D616E642072656365697665640A0D0000204F555420636F6D6D616E6420726563C3
:400DC00065697665640A0D002053544F505F555020636F6D6D616E642072656365697665640A0D002053544F505F444F574E20636F6D6D616E642072656365697665640A7B
:400E00000D0000002053544F505F494E20636F6D6D616E642072656365697665640A0D002053544F505F4F555420636F6D6D616E642072656365697665640A0D0000000092
:400E40002055505F414E445F494E20636F6D6D616E642072656365697665640A0D000000204F55545F414E445F444F574E20636F6D6D616E642072656365697665640A0DAA
:400E8000000000002053544F505F414C4C20636F6D6D616E642072656365697665640A0D000000004F75744265666F7265446F776E2070696E20696E74657272757074651B
:400EC000640A0D0055704265666F7265496E2070696E20696E7465727275707465640A0D0000000030313233343536373839616263646566000000002A2A2A2A2A2A2A2AA2
:400F00002A2A2A2A2A2A2A2A2A2A2A2A2A2A0A0D000000004170706C69636174696F6E2073746172742066726F6D204941522121210A0D46572076657273696F6E205631D8
:400F40002E302E300A0D000080B500203649087000203649087000203549087000F007F800203449087000205849087001BD80B500F0DCF801BD30B58BB00500002406A87C
:400F80002D49142200F0E8F82C480078002804D1FFF7DAFF012029490870280000283ED027480560200000B2002818D16846049001A80390002003A908811B206946888018
:400FC0001B2001A94880042001A9087100206946087000A9891C03A800F0D8F80400200000B200281CD13A4802903A4801900520009006ABAE2212013749384800F03AF97F
:401000000400200000B200280AD101203449087038221721334800F0D7F9040000E00124200000B20BB030BD091700200A1700200B17002005170020D4090000571400200A
:40104000CC16002080B50100C9B2032901D301203AE023490978042934D12E490978490730D40100C9B200290BD11E212A4A11822021294A526811803021274A5268518004
:4010800010E00100C9B201290CD19621224A1182C821C900204A526811808021C9011E4A526851801D4908701B4800F0A5F9010009B2002908D11749097804220A43154903
:4010C0000A7001E0FF20001D00B202BD04170020790200000043010018170020F55500000C170020A00A000010B5002100290FD082790A70002207E01300DBB2C35C140029
:40110000E4B20C196370521C1300DBB2062BF3D310BD000009170020100100200B170020017840780002084380B2704770477047124207D08B0706D00B78491C0370401C7D
:40114000521EF7D87047830706D00B78491C0370401C521EF9D1704770B4103A03D378C9103A78C0FBD2530701D318C918C001D508C908C0D20704D30B880380891C801C40
:40118000002A01D50B78037070BC7047F8B5054636480F460078002802D002242046F8BD002F60D000243249002D16D02A89D0070DD02868002808D003881B3BE12B04D20D
:4011C0004088FB2801D81B2801D2012409E0900707D56868002804D1F7E70020088108604860002CDAD122482E8906811F481B21801D01804180042101711C490020891C6E
:401200000870F00705D019480622801D296800F0A3F91749B00703D56A68144812788270124D0E46AD1D281F0D60486000F09AF9284600F0A3F9308900F0AEF9308900F03F
:40124000B1F9288800F0B4F9308900F0BFF90346103300F0C9F91F21C018890140183880A91F88809AE7012498E70000E804002040160020FFB585B0002768460E9D0773CC
:401280004F481C460078002802D0082009B0F0BD10990F9801900095029105A807C800F0CFF90028F2D16946264603AB84460873002C19D0002115E08A00B75A082F09D920
:4012C00090198078002805D0083FB7521878401C187005E0002914D00027B75290198770491CC9B2A942E7D360460028CED10F98002809D0109900F01DFA002804D0012063
:40130000C4E701208446EFE700F024FA2D480021416081600599016021888180022D07D3A1798171A17AC171A1890181218A418100211EE0481C19E082008B00A75AE65A2D
:40134000BE46BE4211D26F463E80B4461E190296B678BE7001967646E6521719029EBB78B3706646A652019EBE70401CA842E3D3491CA942DED3134822460C300090684692
:40138000037B0799069800F0EDF90028B8D168460B4C007B60700B480C3000F069FA0028AED1084907480C3100F082FA0028A7D100F09CFA0028A3D10121217066E7000006
:4013C000E80400203416002010B500240346002801D0002900D10124054843600180428040220021034800F0A3FA204610BD00003C0200202C150020F0B50446012085B068
:4014000000250190002C58D06068002855D02178002904D1007901284FD003284DD8E06800280DD0C67F002E0AD020220021464800F07EFA4448C677E168CA7F00F08CF823
:40144000A268002A53D0D37F002B50D00020694608700126EC460CE0115C00290BD0401CC0B2175CB74202D16146087003E04018C0B29842F0D360460278A668B35C012B9C
:4014800007D060680079002817D0012815D0042813D02178022910D8012B10D1521CB05CFB221040814208D1012808D1208A002803D0B42801D8012901D0012541E0002DE1
:4014C0003FD12249208A88801F4820220021203800F02EFA1C49F07F2039C877A1681A48CA7F203800F038F80198012829D160686E468179857B437BC21D2EC643790279F3
:401500004188008800F01EFA00F05EFA050018D160684079022802D0032803D011E000210B480CE0012069468871684600F0BEFA06226946074800F00FF80021054800F0B6
:40154000C7FA284605B0F0BD1813002028020020580300206403002010B50400FFF7E8FD200010BD01460120002903D00878024908700020704700006A020020014610B59C
:401580000120002904D006220248FFF7E5FF002010BD0000740200200149488070470000280300200149088170470000400300200549002803D01B2802D2012070471B20CA
:4015C000488100207047000040030020014610B50020490707D500F08FFA0446F43400F08EFA001980B210BD134A1088810703D08107890F401A001D11791030484381B2A6
:401600005088820703D08207920F801A001D800040180A494030098980B2CA0701D0503080B2890706D504495422091F09785143081880B270470000EE04002040160020E6
:40164000FFB58446384F1C460020BB883F78054602460646002F11D100290ED0029999420BD36146002908D0002C06D00A99002906D02E4B0B99994202D2012004B0F0BD04
:40168000002144E0AB001F19BF78002F3BD0E35A002B38D07B43591889B22B0000F032FA050410161C253100A7782388BC46FF27233BEB37BB4222D26346032B1FD322E0A1
:4016C000A388002B1FD0302B19D31CE02389002B19D0282B13D316E0A289002A13D01346134F233BBB420AD20DE0268A002A0AD033460F4F233BBB4201D2964203D90120CE
:401700000EE0002001E000280AD16D1CEDB2099B9D42B7D31C2463435B1802998B42ACD89642AAD8AAE70000E804002079020000BAFF0000002802D0044A914201D2FF2005
:40174000704703494A6108610020704779020000F002002010B500F0E3F900F023FA00F027FA10BDFFB583B0002469460C801F4606468C80002806D00598002803D004983D
:401780003043800701D0012466E0002FFBD03449049809888842F6D300F0ACFA00F09CFA00F000FB002855D100F00EFB002851D12C49084600F030FB05042D0C4AD12A4877
:4017C0000499066081800021C18007810C98007AC00704D0684600F051FB040007D10C98007A800703D501A800F050FB0446BF1DFEB2002C20D13146059800F055FB0400D0
:401800001AD100F0C7FB040016D16A461088928808368518144AF1B29088D288AEB29319984207D3401B801A80B200F0EBFB050007D000E0FF25012400F006FC002D04D0BB
:4018400008E0F8B200F014FCF6E700F029FC07490120087000F03AFC204607B0F0BD0000EC040020CF1A0000AC1600206E05002010B502460D49FE2048700324104600F0F7
:4018800029FC002810D100F097FC00280CD100F0A1FC002808D100F0BFFC002804D100F0CBFC002800D10024204610BD6802002070B504000ED0206800280BD00A4DA860BA
:4018C0000420687000F0C4FC204600F0DFFC002802D006E0012070BD00F0A8FD204600F0BBFD0021297070BD4402002010B5002422460A490A4800F0BFFD0A49884200D15D
:4019000008240949884205D00849884202D0491C884200D10324204610BD000025850000E1D0000011100000052000001111000010B50400080011000200200000F0CCFDC3
:40194000200010BDF0B585B004460B980A9D002832D027461A4E203F1A48B7422AD20F46203FB74226D2042A24D8032B22D8012D20D80C9E761E072E1CD20D9E032E19D80C
:4019800068460470240A44708170090AC1700271437185710622C01D0B99FFF7DDFD68460C9941730D99817306486A460F210C3800F0BAFD05B0F0BD0248401CFAE70000B5
:4019C000E13F00001220000000B5FF210206120E11D02F4BC21A984251D028DC12284AD010DC07284FD008DC012848D0022844D003284BD13DE0002148E00C283FD0112848
:401A000044D13EE0234BC21A984238D007DC23283BD03B282FD0204A801837D12FE0FF3AFF3A013A2BD0FF3A013A2FD123E01B48131A824223D011DC194BD01A9A421AD02C
:401A400007DC012A19D0022A15D0164810181DD119E001280FD0052818D10EE012481818030000F04FF809080A130C130C13130C13002A210AE0012108E0072106E0022113
:401A800004E02B2102E0032100E02D21084600BD1314000012110000EFEEFFFF070C0000FF0B00000EF4FFFF09F2FFFF70B50446002500F061FD002C06D0A079012803D87B
:401AC000214600F05DFD00E00125284670BD704710B50C46014606220648FFF73DFD002C05D0044806222146801FFFF735FD002010BD0000DA100020FF2051307047FF20C9
:401B00000930704730B47446641E2578641CAB4200D21D46635D5B00E31830BC1847704738B51E4C00F03EF8042813D0052811D0062812D003282AD007280AD10020694696
:401B400008700246012000F03DFD00F02BF80128FBD138BD00F054FD38BD00F067FD00F04FFD00F067FD8007800F0228F4D10C4841880029F0D05B21095D0029ECD101214E
:401B80000170A07D0140022000F05AFD38BD00F077FD012000F07AFD38BD0000C40F00204205002001480078704700003905002000B50300FFF7A6FF080D050D0B0705074F
:401BC000090D012000BD032000BD042000BD022000BDFF2000BD704789B20160704789B20160704700B547480078C0B2010246480078C0B2084345490978C9B20A02444901
:401C00000978C9B21143434A914204D1072802D14149042006E0D4221201914202D1042800D13D493D4A11603D4908603D480078C0B201023C480078C0B20843802189011B
:401C4000884201D0002800D138483949086039480078C0B2010238480078C0B208433749884204D03649884201D0052800D135483549086035480068000935490968AA29FA
:401C80001CD102281AD32B480078C0B20E2815D130480078C0B200022F490978C9B2084380B22E4908602E480078C0B200022D490978C9B2084380B22B49086000BD80B554
:401CC00080B200F009FE01BD80B500F0EDFD01BD80B500F03DFE01BD80B500F03EFE01BD80B500F03AFE214800F01DFE032000F01DFE01BD80B51D4800F008FE01BD1C4884
:401D00007047000059F1FF0F58F1FF0F5FF1FF0F5EF1FF0F580B0000580D00006C002E4074002E405BF1FF0F5AF1FF0F0220000078002E405DF1FF0F5CF1FF0F0F0F00006E
:401D400005050000050F000080002E40EC0F00F0E00F00F06DF2FF0F6CF2FF0F84002E406FF2FF0F6EF2FF0F94002E40E5320100010200002B2070472B2070472B207047C2
:401D80002B2070472B2070472B2070472B2070472B2070472B2070472B2070472B2070477047704710B5FFF79BFF482204490548FFF7D2FB03490120C870002010BD0000F7
:401DC0000C4001005814002010B5FF2000F05EFC0F49FF2048700E481021801D41800121417001700A490020C91C487000F0C2FD04000AD100F072FE07210648FFF7ECFE30
:401E0000044807211830FFF7E7FE204610BD000036050020CC112E4010B50F4A002313600E4A13600E4B18600E4801600E49012008600E490860000290600E490C48086087
:401E40000D4914300860FF381538506000F0A0FE00F0BEFE002010BDBC040020B0040020D0040020D4040020C0040020DC040020740F0020E0040020C80400200146012086
:401E8000002902D0502008800020704701460120002905D0034854220078504308800020704700006A020020F0B587B007460D460020890000900691684600F0B1FE8446D8
:401EC00000285DD1304800990160002117E02E4B88001A680629115406D22C4C0419667882185670628805E0C419203CA67A8218567022891B68C018491C4280C9B2A94225
:401F0000E5D300242DE0601CC2B2059025E01E4FA30039689600581840887118039604904E88B04217D938466F46FE80B6464F786E4677710297049F4F800168039F5E18A5
:401F4000767879184E700168764659184E800068029F18184770521CD2B2AA42D7D30598C4B2AC42CFD36046002809D16846069900F056FE8446002802D105490098086059
:401F8000604607B0F0BD00007C020020BC320100800200203EB5002400F056FEFFF716FB002829D00020009001900290F421684600F036FE04001FD1104C0098F12200218F
:401FC0006060FFF7B5FC0E496068C865FFF794FD014601A800F024FE04000DD1019800F039FEFFF78CFD014602A800F019FE040002D1029800F034FE20463EBD3003002045
:402000009C110020F8B50F46002400F035FE002817D10C4900220B460C334A600EE021011D680E466A501D680C36AA53B61C1D680F31AA551D68641C6A54E4B2BC42EED3B4
:402040001A71F8BD5804002030B50020074C05460423020111190B72A5504D60401C4D81C0B2CD600428F4D330BD00006C15002070B506460948002504680BE06178002904
:4020800005D062882078121D002300F019FE241D6D1CEDB2B542F1D370BD00007C0200201CB5002469460C70142001902346054A054800F023FE04480068401C00D1FF2482
:4020C00020461CBD2D3301006C04002010B5FFF7FFFD10BD70B5040068D02068344D0078287620688078E876206800796876FFF706FEC0B2022806D1687E042803D1206814
:402100000079401E6876287E81070BD08107890F401A0C3082B2697E264800F007FE002844D101E00830F5E7E87E81070CD08107890F401A0C3082B21E480421001D00F02F
:40214000F5FD002832D101E00830F4E7194820220421083000F0EAFD002827D11548202203210C3000F0E2FD00281FD1114850220121103000F0DAFD002817D10D484822AE
:402180000121143000F0D2FD00280FD1094830220421183000F0CAFD002807D10548402202211C3000F0C2FD002800D0FF2070BD58140020FC03002010B500F01FFE00F0AD
:4021C0004BFE002010BD0078272801D9122070470020704710B50B4B0B4A0C490C4800F049FE0C480021017241728172C172017402468182403A116641828173C17308464D
:4022000010BD0000C1330100A31D0000C5B30000B5330100D412002010B5FFF770FD00F02FFE044800F05EFE00F076FE012000F00FFF10BD6814002010B500F069FF0020AF
:4022400010BD0078012801D9122070470020704710B50D4C2078002814D1606000F08EFF00F098FF00F09EFF00F0C2FF00F0CAFF00F0D0FF00F0D0FF00F0D4FF00F0DAFFCE
:402280000120207010BD0000D4030020F8B56349074600240C701E20C870B8790326002800D101208870F879002800D1012048703A89002A02D0121F8A8000E08C807A8955
:4022C000002A02D0121FCA8000E0CC801C21484300F0B6FF5249002808607DD04F4D14216878484300F0ACFF4E490028086073D0284680782421484300F0A2FF4A4D00288F
:40230000286078D0002600F0B9FF444B009432E0242041432868242244500099514308184460009829685043401884600098296850434018C46000982968504340180461FE
:4023400000982421484329684018446100982421484329684018846100982421484329684018848300982421484329684018C4830098401C0090987800998142C8D3284846
:402380002146009425E01C225143026889188C6000991C225143026889188C8100991C22514302688918CC8100991C225143026889180C6100991C225143026889188C82A7
:4023C00000991C22514302688918CC820099491C00915A78914200E00DE0D4D31D462046009405E0684600F073FF0098401C009069788842F6D3384600F0E2FF00F020FFC9
:4024000006490028886007D0002E03D000F036FF00F0DCFF3046F8BD0326F7E7DC030020C8030020A8030020A403002010B5084C0420A070202200210648FFF779FA054813
:40244000202200212030FFF773FA0020207010BD28020020F812002010B50446054817210180A188091F418000F0CAFF204600F0CBFF10BDF404002070B5154D04462878FF
:40248000012801D0134870BD02202870696000F0CFFF00F0D3FF00F0DFFF00F0FBFF00F0FAFF00F0F9FF204600F0F8FF040003D101F002F8040002D00120287005E001F099
:4024C00037F801F077F801F07BF8204670BD0000D4030020111000001206130A1A43130C1A4300BF094205D0830705D00270401C491EF9D170470000130030B4140015001C
:40250000103902D310393CC0FCD2490700D30CC000D504C0890002D30280801C002900D5027030BC70470000F8B5064617460D46C81C00F085FE040018D02670300A6070C7
:40254000E01CA570002F03D02A463946FFF704F8ED1CABB222460649012001F03FF8050002D0204601F080F82846F8BD0148F8BD99DD00000520000010B5FFF7EBF810BD34
:4025800000280FD00D4A108B0870000A4870908B8870000AC8700948203000880871000A48717047064A10880870000A487090888870000AC8701089F0E7000040102E40D5
:4025C000C0112E4010B50B46062812D006DC01280CD0032801D101F04DF810BD0A28FCD00B28FAD105480078107010BDFFF7ECFB10BD1146184601F059F810BD3C050020B2
:4026000010B5FDF7ADFE0446FFF7CCFA012809D0FFF7C8FA022805D001F070F82046FDF7A3FEEEE72046FDF79FFE10BD10B501F075F810BD0148008A70470000001A2E4088
:4026400030B50E4C238A01251A46012804D0022804D000290BD00CE02A430AE0002908D12A4322825008400020821A4601E05A0852009A4200D0228230BD0000001A2E409F
:40268000014952200880704700102E4010B50446FFF722FB072C01D9FF2C01D102480470FFF716FB10BD000039050020F8B50400FDF756FE694648702000C01E2E2870D28F
:4026C0004F480078C0B2A04204D34E4805784E48067821E04D480078C0B2A04204D34C4805784C48067817E04B480078C0B2A04204D34A4805784A4806780DE049480078DB
:40270000C0B2A04204D3594805785948067803E0584805785848067868465C490919C91E097801706846007830280AD32B2C08D35648407D5A4908600520FDF709FE192772
:4027400003E0574800688706BF0E684600783900C9B2884208D24D480019C01E0078504908600520FDF7F4FD49480019C01E007848490860EDB248480560F6B2474806605E
:40278000052000F0A9F868460078FFB2874208D23E480019C01E0078414908600520FDF7D7FD68464078FDF7DFFDF1BD38B5040000253C480068012101433A48016044485A
:4027C000444908604948006880210902014347480160002C0CD0102500E0641E002C07D0012000F079F800F005F80028F5D00025280032BD3E4801680800C007C00F70478D
:4028000040F3FF0F41F3FF0F42F3FF0F43F3FF0F44F3FF0F45F3FF0F46F3FF0F47F3FF0F48F3FF0F49F3FF0F10B40A0080239B050100C9B2042461435958C0B2042460439A
:402840001A50080010BC704710B4020080239B051000C0B2042460431818006CD2B2042462439A18116410BC704700004AF3FF0F4BF3FF0F4CF3FF0F4DF3FF0F0121C0065C
:40288000C00E81401B48016070470000340D000050F3FF0F28FF0B401CFF0B4020FF0B402CFF0B4060F02E4010B5040005E012480068FDF74DFD1148241811488442F6D2DC
:4028C0001048006844432000FDF742FD10BD00000220000078002E4080B5010089B20A4800784843FDF734FD01BD000010002E400C002E4000E100E0240200200080FFFF43
:4029000001800000200200205405002010B5040000F023F8200000F006F8032000F006F800F016F810BD0F490867704738B504000625FDF715FD0C490968C0229143E4B2EB
:40294000AC400C4308490C60C0B2FDF70DFD31BD8020400105490860704780204001044908607047000000200CE400E000E100E080E100E010B54B490868002802DA4A4B12
:4029800001221A70022290430860484800694549C00B4031096A0246C907C90F0A4259D00120FFF773FE3F480E216C30FFF717F93E4820218430FFF712F93C4814219C308F
:4029C000FFF70DF93948FF21C131A430FFF707F93648FF212F31B030FFF701F933483449BC30FFF7FCF831483249AC30FFF7F7F830492E48491CB430FFF7F1F82B482E492C
:402A0000B830FFF7ECF829482C49CC30FFF7E7F826482B490830FFF7E2F824482949A830FFF7DDF8214828498830FFF7D8F81F4826498C30FFF7D3F81C481921C9029030DE
:402A4000FFF7CDF8FFF7CEF8FFF759F9C0B2022812D01FE000290BD0002101420AD0114801216030FFF7BBF80120FFF72DF997E70121F2E7FF2010BD15491648FFF7AFF829
:402A800014481549001DFFF7AAF8124800210830FFF7A5F854200449C043891C0870002010BD000000F02E403605002000002E40320300002F3F0000310200001052000034
:402AC000EC160000FA12000031D000003AE300009956000080012E40F80F000010B503212348FFF77CF80120FFF7E9F820483038406A204C80076178800F890001431C4809
:402B00000C38FFF76CF86078002808D0401E02218140182000F02EFEC000083800E0B82081B21548FFF75BF81348032109021438FFF755F810481149B830FFF750F8612185
:402B400089010F48FFF74BF80D480321001FFFF746F80C490C48FFF742F80B480B496038FFF73DF8084801218838FFF738F810BD70F02E403C050020D8102E409089000069
:402B8000041E2E40FF0F000058122E4020900000F0B500200D4A451E0346171F50600FE014260146714314680E1DA3510C461668083433511668083435511468401C635027
:402BC00039688842ECD30020F0BD0000E0040020F0B50021114A4D1E174611710C3F0B46BD6016E008461C2460431668041D355114680646235014680836A3551468361DAE
:402C0000A353044616680A34335318301468491C255078688142E5D30020F0BDC804002070B5084B0446DA889E8803205518B54206D8186880182060D8884018D8800020E9
:402C400070BD0000AC16002001484088704700002803002001490860704700000C030020044988604130C86035300861413048617047000078040020F8B5064600200F4D1C
:402C8000009029700C0121466846FFF7C9FF00280CD129460C3100980860301B001F84B221466846FFF7BCFF002801D0FF20F8BD6C800098A8600020F8BD0000580400204A
:402CC000F8B516460D46044600F0AEFDC0B2801DA04203D20020C0430090F8BDB2B2E9B2684600F023F80099481C03D0024AA000526811500098F8BD7C02002038B50024DA
:402D0000E443054600290AD0052000904B68097804A000F08FFD2860401C00D00024204638BD00007461736B00000000F7B582B0002502986E1E06602E48D21C024017469D
:402D40002D4A2C4610460C380178106805E02301C358002B0FD0641CE4B28C42F7D3711C28D03401211D40180191039900F0A6FD00281FD101E02646F1E71F48016820467F
:402D80000C300F521C480399026820460E30115419480399026820460F3011540398784300F09EFD144900280968085102D00024009011E001251AE00F4801680198081852
:402DC000009900F0A1FD002801D0012502E00098C0190090641CE4B203988442ECD3002D05D10298066004480179491C0171284605B0F0BDFCFF00006404002010B5114863
:402E0000002101704160C0220F48FEF791FD0E4890220021C030FEF78BFD182200210B48FEF786FD0948102181700C21817306494160C0310161064981600649416100F0FF
:402E40007EFD10BD70040020C00B0020100D0020FB3D0100EB33010010B5054802780121002A017002D1012000F072FD002010BD7004002010B50846194600F091FD10BD1C
:402E8000174902460B680020002B08D10A605207520F012A04D0022A10D0086012207047112292018A80CA80032252020A810122D2024A8140228A8105220DE00922520273
:402EC0008A80CA80012252030A810322D2024A81012252028A810422CA810A82704700004C16002010B50B4C094923460833A160002142189278002A00D05A54491CC9B2DF
:402F00000429F6D3FF21A0689A314843A06010BD04030201A40F0020FEB5FF21012000F045FDFF21082000F041FD302000F056FD3F48802101803F483F4D00784007400F7A
:402F400002286FD001286BD100202880002211460320FFF737FB394E3949B08D8882384F002420373248A0300482308F3882204600F040FD641C2406240EF3D0B08F388330
:402F80002E48103000F04CFD716930690191009069464879C021084369464871684600F053FD00F067FD2548214C40304188A03421838188A1831E49C088C0318880708EE9
:402FC0003880204800260682392000F05FFD184F532038801C490720088354203880E02000F060FDE82000F05DFDF02000F05AFD002000F063FD134886822821018380155E
:40300000A0810F48403086815B203880094800784007400F022807D0012801D10B482880FEBDFFE7032090E70848C01CF7E7000000102E404C160020001F2E4058140020BA
:40304000C0112E40001A2E4080142E40E0230000F1B586B003A8009005A8019028489F22817A11408172684600F032FD002845D169460989C90705D0224806990068C26833
:403080006846904769460989890706D5002835D11D480068816A0698884700282ED11B4E0025757075737571F575357675767575B570F570B5713746F5730120D0373873D2
:4030C0001F20F880FF2130467972A0300176457600F01AFD00242046069900F04DFD002803D1641C2406240EF5D0FD720749BD72B573C0310D704D704D600D7207B0F0BDBE
:40310000581400209403002038040020A40F002010B5184C207A002827D100F079FD164900208875C8752039888620726072A072A08210BDA07A00280DD0401EA0720D4A69
:403140000006410D403A8818515C4068022907D0042907D101E00920F0E700F05BFD01E000F06CFDE07A401EE072E07A0128E1D810BD0000D4120020CC150020002004499B
:4031800002468300401CC0B2CA500428F9D3704770160020704700781F2801D9122070470020704710B51048002404704460242221460E48FEF7BCFB0C48242200212430E0
:4031C000FEF7B6FB0948032184640465483081708172064941602431C1600470047244704472002010BD0000CC030020B413002010B50021024A084600F04EFD10BD000002
:40320000A1D70000024800214160018041807047A004002070477047014900204861704740030020024800218180C180704700009803002010B500F05BFD00F065FD10BD67
:40324000F8B5074600F0F0FA801DC6B20A49002005460C680DE06178002907D06188B94202D3207800F054FD002804D1241D6D1CEDB2B542EFD3F8BD7C02002010B510484C
:40328000104C0068002805D062781C214A430021FEF74EFB0C480068002805D0627814214A430021FEF744FB08480068002805D0A27824214A430021FEF73AFB10BD0000E7
:4032C000C8030020DC030020A8030020A4030020F8B5394F04463A68002A6AD0374E3168002966D02078142343439A1892880025402A1CD31C22504341188868002816D089
:403300008989002913D000F0AFF920781C21484331684018856020781C21484331684018858120781C21484331684018C58120781C214843316840180069002813D000F0FE
:4033400093F920781C21484331684018056120781C21484331684018858220781C21484331684018C5822178142041433868012242542178142251430818858020783968AF
:4033800050434018C580207839685043401805812078396850434018056120781421484339684018C5602078142148433968401885700020F8BD0000A8030020C803002062
:4033C0008088452800D845207047704710B509480068002801D000F047F907480068002801D000F041F905480068002801D000F03BF910BDC8030020A8030020A403002010
:4034000010B500F09FFC10BD10B5002400F0D0FC05480088FFF714FF04490028C86000D10324204610BD0000F6040020500200200149002008607047EC02002010B50548EF
:40344000012102780170002A02D1042000F080FA002010BDCC030020F8B505240B4F0026641E0E206043C519062200212846FEF75FFAAE71E81D06220021FEF759FA6E73B6
:40348000002CEDDC02480670F8BD00008E1000205B05002070477047704770470100044805D004480268002A00D1016000207047132000005403002070B5184800240460C6
:4034C00084800C300460154D84800120183D28706C70E87028461E3000F078FCAC81EC810F4AAC700020C100545089188C80401C8C710228F7D32C716C710020AC71C04318
:4035000028820848417E0848008800F071FC02202871064800F082FC70BD00005803002060160020581400208C030020030C000010B500211C48C9430180FF2101711B4AD0
:4035400017201080184A00201832142343439B18401C19740A28F8D314490A200839486100220A700320886107200A62C8610E488A704A70E0300260C2728280501E4862C3
:40358000094B88621046F033C400401C1A510328FAD307480123827343600281042303704274CA6210BD0000280D0020A0030020300E002010B500F037FC00F075FC10BD6E
:4035C00010B500F08DFC002000F0A2FC10BD427812020A80007802430A807047F8B51F4E9C463378012B03D0022B01D01C48F8BDC3001C481B18581C9F785D785C680C2352
:403600005D436359002B06D00121042000F0B0FC1348401CF8BD615103780C256B431B1961461981002A04D001780C23594309194A600178491CC9B20170B94201D1002198
:4036400001707068401C70603078012804D102203070042000F07CF90020F8BDCC03002011110000FC13002010B5002801D000F091FC10BD10B50B4900204870FFF72EFAB8
:40368000002000F097FC002000F0B0FC07210648FEF7A2FA044807211830FEF79DFA002010BD000039050020CC112E4070B50C460546FEF724FBC0B202280E49287804D089
:4036C000FF2810D04C280CD810E0FF2809D10A4AD0680004800F032801D0087807E09069000A553803E00878207070BD4F382070087070BD3805002000002E4080B5FCF799
:403700002FFE0549096804229143034A116030BFC0B2FCF729FE01BD10ED00E00848017806290BD140780749002803D1486B400840004863C86A01221043C8627047000088
:403740003905002040F02E40F446002804D4494200F013F8404260474042002905D45FD000F00BF8404249426047494200F005F84942604703460B43E6D40022030A8B4213
:403780000BD203098B4219D243088B422ED2411A00D20146524110467047FF2209023FD012068B4205D3121209028B4201D31212090203098B4219D300E0090AC3098B42F4
:4037C00001D3CB01C01A524183098B4201D38B01C01A524143098B4201D34B01C01A524103098B4201D30B01C01A5241C3088B4201D3CB00C01A524183088B4201D38B006F
:40380000C01A524143088B4201D34B00C01A5241884200D3401A5241CFD201461046704708B500F0F3FB08BD0148008970470000AC160020FEB504460D4600201E49089EB0
:403840000860471E009001900290002C11D0486885420ED2002A0CD0002E0AD0642E08D808460C3001681C2068430C18207A002801D03846FEBD012022602072184600F097
:40388000C9FB6060401C13D06681A6810A4827610C3067610179A94200D205710021684601810A462846029B00F0E6FB2846FEBD00202072DDE70000BC04002030B50D4678
:4038C00004000BD0A80000F00BF86060002805D000202570C0436080002030BD012030BD00280BD0C01C074A81085068890053884118994203D89368516018187047002047
:40390000704700005804002070B50D46040007D0002D05D002212078615E401E814201DB012070BDFEF7D8F96088401C00B26080616880000D50FEF7CBF9002070BD0020D2
:403940007047427812020A80007802430A8070473EB5124A0146FF2000230124126800290DD0012914D0042908D104206946009308814B81104600F085FB80B23EBD68464D
:403980000093048143816946104600F080FBF4E768460093048143816946EBE76C040020014AD16090607047A004002010B50446FF20F130012C01D1FF20D530002200F0DA
:4039C0006BFB044A108A044980B2A0430880108210BD000000102E4046050020034B198A034A89B2814311801982704700102E404605002090225043074A10B58018FF212B
:403A0000603041770177002181770448418EFF201D3000F055FB10BDA40F0020581400204178027809020A4306490A80C2788378120213438B804279007912021043088188
:403A400070470000C0112E40417802780902084B0A431A83C178827809020A439A8341790079090208430249203108807047000040102E4004480021818301830249742037
:403A8000603908807047000060102E40034B198A034A89B2014311801982704700102E4046050020044A002180180288491C89B21029FAD37047000000102E4010B500F0A6
:403AC00007FB0222002100F015FB00F029FB10BD70B504460120002C12D02368002B0FD0616800290CD0074D06222889208118462968FDF731FD6968606809780170002013
:403B000070BD00004016002038B5684600F014FB002801D01F2038BD01210098C90201804180002505714571857107214173857300F012FB009C202200212046FDF7F8FEED
:403B400025702A460021601CFDF7F2FE204600F02DFB204600F038FB009800F043FB062200210448FDF7E4FE02480C388560002038BD0000F4030020F0B5074687B003A814
:403B8000009005A800260D460190002F01D0002400E01B4C002C05D06846FFF799FF002803D00BE0022007B0F0BD68460089C00704D1902200212046FDF7BAFE114829462A
:403BC0000068826820469047050016D1A77066762746267140373E70204600F00DFB204600F013FB084820820848BE77807AF121084000D001202075E682E8B2D3E700005F
:403C0000C40F002094030020B80B0000581400207047704770B5084C05460146A06900F0F9FA002806D02946606900F0F3FA002800D0FF2070BD0000FC030020FEB5144C9D
:403C40000025E17D204610300D54E07D26468000203E305800F030FBE07D401CC0B2E075042800D3E575B08E401EB0860948807A00280CD00095019511206A460295108142
:403C8000558129460A460020029B00F01FFBFEBDCC15002074100020FEB5140008460DD001AA694600F018FB0100104808D169460B79FF2202AE0021009D0AE00B48401E6A
:403CC000FEBDFF2A03D18F00EF59002F0CD0491CC9B29942F5D38B42F2D06846007A009980000C500020FEBD3170F4E712A1000010B5044A00210120FFF7CEFF00F0FAFA75
:403D000010BD0000F73E0100704700780870704710B50446FFF788FDC0B2801DA0420CD307484068002808D0A100405800F0F6FA002801D00470001D10BD002010BD000074
:403D40007C02002070B5164D0024A878012804D1AC700021562000F007FBFF20287011486C70048010220021FDF7E2FD6C612C716C710C48EC802C814C3004810460848083
:403D80000949818106480E30048041800548263004804480848004750448046370BD00001003002058130020FFFF00006012002004490020887008700861486102490863A3
:403DC00070470000500200202C12002010B5FF2101710021054B02248A00835212189470491CF9D00021417110BD0000FFFF0000074B084A18801180002801D0002902D133
:403E0000002010801880044910880880704700009E0300209C0300204005002010B500221146FEF781FB10BDF8B50424194E1A4F00252046A421484335548019002147802B
:403E4000C9434160014603460E3180331961103159610A3199611031D961C91D1962083088220021FDF764FD641EE2D5002000F085FA0A4C0A4A41210620656000F096FAF6
:403E80000849FF200870143108762146087005206070F8BD74050020FFFF000028030020D5300100A808002010B50A4800210160094804224270012282601722C280428012
:403EC000828001734173054A1721042000F06EFA10BD0000D8040020901600208DD4000070B500F079FA084C064A216907480D46FDF732FB0549284600F076FA00F0B6FA70
:403F0000207070BD79020000F0020020FC0800207CB5054601AA694600F0DEF9134C00280CD10121284600F0BFFA002806D1284600F0C8FA401C01D000240CE020467CBDDE
:403F40000099A0000B58002B03D001222946FF209847641CE4B2684600798442F0D30121284600F0C5FA00207CBD000012A10000012909D80C2807D20122054B8240186839
:403F8000012902D09043186070471043FBE70000EC02002010B5002809D005494A68002A05D0011F08788000105800F033F910BD7C02002010B50A4A141D012808D009494F
:403FC0001046FDF70CFE08492046FDF708FE10BD04491046891CFDF702FE0349491DF3E788002E4031D000003AE3000010B5064A012805D01921C9021046FDF7F0FD10BDF7
:404000001D21C902F8E7000090002E407047007808707047F8B50024164E671E321F3D463168136806E01422624310328A58521C1BD0641C9C42F6D36A1C14D02C46142223
:40404000544322460C3288500C21484300F052FA3168002808510AD031680020103408517068401C70602846F8BD2546E4E73846F8BD0000E004002038B50024009400F0C4
:4040800053FA38BD10B50EC9FFF7F6FF10BD10B50EC900F067FA10BD70B5084BC5182C880023080003D104E040085B1C9BB2C607FAD08C439A4022432A8070BD00102E40BE
:4040C000024A801802880A430280704700102E4008B56A4600210B20FEF774FA6846007808BD0022835C0B70521C491CD2B2082AF8D3704710B5094B40074907000F090FE9
:40410000185A595A40185043C0086421FFF735FB002800D1012080B210BD0000D43201000349884200D908460249888070470000FF0F000060112E4010B5044605480068E4
:4041400000F0ECF82060002801D0002010BDFF2010BD0000FC03002042790021012A02D901214171090342790A430179042914D049001143827B032A01D8D2001143427B22
:4041800052010A43817909021143012252031143054A118300889083704711460122920211430222E5E7000000102E4010B50446E020FFF777FC20782246401CC3B20021CB
:4041C000E02000F0D5F910BD10B50446E820FFF769FC20782246401CC3B20021E82000F0C7F910BD014610B50248006800F012F810BD0000FC030020002101628176C1610A
:40420000C176203001774177704700214166816670477047F8B50D4600216A468C461180002839DB23490978884235DA214B04010C3319680A59002A2ED020460C300B5AFA
:40424000801C0E5C184670438018954224D3854222D2002006E007465F43BF18AF4206D0401CC0B2B042F6D36046002814D0114E271DC8190C366A46294600F091F90028B1
:404280000AD168460088012808D030682946C019FFF73AFB002803D00120F8BD0020F8BDFDF71AFD30680F34015D491C0155FDF70FFDF3E758040020014610B502484068E8
:4042C000FFF7A8FF10BD0000FC0300201FB501A900F07EF904B010BD002801D00348704704201070024808600020704711A100007016002010B5002406484B222146FDF750
:4043000017FB0548072144708170102101710830047010BD0C1400208402002038B500210091002811DB0F49097888420DDA0D4D04010C3529680859002807D0201D081824
:40434000694600F04AF9002801D0002038BDFDF7C3FC28680F34015D491E0155FDF7B8FC009838BD58040020002804D0024A9268002A00D01047704744020020F8B5054653
:404380009020094F4543EC19204690220021E66DFDF7CEFAFF20E66578557F2160600855042040342076F8BD9C110020002A02D0031F032B01D306487047C3000548181817
:4043C0000346203B99804038026200207047000012230000180E0020024800218160C16070470000F0020020F0B50122002834D0002932D00424420600D005247923420630
:404400005B06D21800D0641C034600221EE00C2516466E43124D00277519AF72104F002ABB51696007D0661EB24209D10D4E86197606760E05E05E06760E8027BE1B00E057
:4044400080269B198919521C2E81D2B2A242DED303480549006B002288611046F0BD0000780B002079020000F002002018B50020694608700A48006900280ED01321490175
:404480004018047E684604704F21C900054800F0BFF8A04201D0012018BD002018BD0000F0020020FC0800200020054A002902D0012902D002E0906000E0D06000207047E0
:4044C000F00200203EB50A22694600F0AFF8044606480A220068694600F0BCF8002802D00020C0433EBD20463EBD0000F402002000207047014610B50020002910D0094BD7
:404500001A689C685118A14209D25868196080188A0704D08A07920F891A091D196010BD002010BDB00400201FB500220C49541E0A60002811DB496888420ED808491C226B
:404540000C31096850430818406801A900F096F8401C02D0002004B010BD2046FBE70000BC04002038B501240094FFF7DDFF38BD30B50A4C002100195B1E07E05418647889
:404580002502545C2C430480891C89B29942F5DB994201D1515C018030BD000000102E40F0B500231D46002802D00224045F0AE00120F0BD46689F00F6598E4201D1012596
:4045C00003E05B1CDBB29C42F4DA15700020F0BD10B5002200F098F810BD70B50D46040005D0002D03D00220205E002801DA012070BDFDF771FB0221615E60688900405835
:4046000028606088401E6080FDF762FB002070BD034610B50020024604E09C5C2018521CC0B292B28A42F8D310BD704770B5084C154608460549E26889182A46FCF78CFF1C
:40464000E0684019E06028B270BD0000FC080020F002002010B402E0401C491C521E002A09D00B7804789C42F6D002D20020C04302E0012000E0002010BC7047F3B5002654
:40468000F64381B000281BDB1E490968884217D80299002914D01B4F142204463F1D54432546396810354859401C09D0FDF714FB38682F1F4159C359994203DBFDF708FBDE
:4046C0003046FEBD214608310091465801590C20704308180C220299FCF73EFF0948761C001D0068C159B14200D100260549009A091D865008684159491C4151FDF7E8FA41
:404700000020FEBDDC040020F8B5204D0F4629781646012904D02978022901D01120F8BD0C2148431A494418E078A178884201D31220F8BDFDF7D0FA62780C2361685A4317
:4047400051188CCF8CC1E178601C491CE1706178491CC9B20170A278914201D1002101706868401C68602878012803D0FDF7B0FA0020F8BD02202870FDF7AAFA002E03D0CC
:404780000020FFF7E5F8F3E70120FAE770040020100D002080B501280ED0262814D027282AD028280CD0412816D0422820D04C282AD0522827D052E00020FCF743FC4EE03C
:4047C0000020FCF73FFC4AE02A480078042802D10020FCF737FC42E027480A7802704A784270264800F05EF801202549087036E0244800F0A9F832E0234800F0A5F8012020
:4048000000F02EF82BE02AE0888912281DD1486800781E4A1070486840781C4948701B480078052804D11948407800F031F905E0002000F01BF8164800F086F81348427886
:4048400012480178134800F07FF8684612490A7802704A784270009800F0A6F9FFE701BD0E49087070470D48007870470C490870704700000C170020FC160020141600201A
:4048800006170020E8090000000A0000FE160020140A0000240A000000170020071700200817002070B5002586B004462E4603950495002810D01D220021FDF739F86846E2
:4048C00006702078C100081A0119491C684600F073F9002802D023E0012528E020780622C100081A0119491C03A8FFF7B3FE002816D02078C100081A0119491C05A800F0FA
:404900007DF900280CD101A905A800F0AFF9002806D168464079012802D12078401C207069460878401CC0B208700428C9D9284606B070BD80B5C0B200F0C8F901BD014933
:4049400008187047E40E00000FB4F8B58CB00020012512AE06E012980078FFF7EBFF1298401C129012980078002800D18BE0129800782528EFD11298401C129012980078AD
:4049800073280FD10420684334586D1C03E02078FFF7D0FF641C20780028F8D11298401C1290DFE712980078642825D10420684337586D1C002438000A21FEF7DEFE684650
:4049C000042262438150641C38000A21FEF7D5FE0700002FEFD1002C0AD0641E6846042161434058FFF7ABFF0078FFF7A3FFF2E71298401C1290B5E71298007863280AD18E
:404A00000420684330586D1CC0B2FFF793FF1298401C1290A6E71298007878282FD10420684330586D1C00240107090F6A4604236343D150641C00090028F5D1E00705D5AB
:404A400000206946042262438850641C022C10D200206946042262438850641C09E0641E6846042161434058FFF769FF0078FFF761FF002CF3D11298401C129072E7129801
:404A8000002800D06EE70DB00498F0BC05B0004710B50024C0B200280FD002281BD013D3042826D01ED3062831D029D308283CD034D30A2841D03CD34FE02E48FFF744FF9A
:404AC000012000F011F948E02B48FFF73DFF012000F018F941E02948FFF736FF012000F01FF93AE02648FFF72FFF012000F026F933E02448FFF728FF002000F0F5F82CE045
:404B00002148FFF721FF002000F0FCF825E01F48FFF71AFF002000F003F91EE01C48FFF713FF002000F00AF917E01A48FFF70CFF13E01948FFF708FF0FE01848FFF704FFFB
:404B4000002000F0D1F8002000F0EAF8002000F0D9F8002000F0F2F8FFE72000C0B210BD80B50F48FFF7F0FE01BD80B50D48FFF7EBFE01BD640D00007C0D0000980D000056
:404B8000B00D0000C80D0000E40D0000040E0000200E0000400E0000600E0000840E0000A40E0000C40E000001B500221321684600F0D2F808BD70470B0010B50D4906D074
:404BC000002804D00278052A03D3081D10BD084610BD0E214A430849521892799A7100780E225043411806221846FCF7B5FC002010BD0000111400008E100020F3B583B037
:404C0000054604981749002818D0002D16D005248E1C2C7000206946009088808871641E0E2021464143104809180F46049800F0D9F8002805D000262C7010E0084605B0C3
:404C4000F0BD2878052808D13946684600F0CAF8002802D0034E2C70F61C002CDFDC3046EDE70000111400008E10002070B50C4600281FD00178FF291CD0002C1AD00021A3
:404C8000104DC94300F0BCF8052818D0A42148430D494518687A0107090FE170890701D4C0060AD5E87A214600F0CAF8287BA070002504E00348401E70BD024D2D1D28465E
:404CC00070BD0000122E00007405002000B504490968C906C90E0829F9D00249086000BD080224404002244005490A68F7211140C000082210400843C0B20149086070478E
:404D00000001044005490A68DF2111404001202210400843C0B20149086070470001044005490A68FD2111404000022210400843C0B20149086070470001044005490A68D1
:404D4000FB2111408000042210400843C0B20149086070470001044070B5002416460D4600281BD0522D03D0D22D01D01B2D03D119490978012925D0294600F087F8002814
:404D80000ED01649884209D0491E884206D0091D884203D011490D3188420FD1012418E00F49032D02D0022D06D012E030880A8890420ED208800CE03088FBE70749491CDA
:404DC000884201D1022404E004490E39884200D10324204670BD0000DC030020132F0000F404002010B582798B799A4204D10622FFF730FC002801D0002010BD012010BD38
:404E000030B505460D4C0020A4224243A35C9B070ED04B1C03D013195B688B420CD0002D06D02B78FF2B03D01219527B9A4203D0401CC0B20528E7D330BD000074050020A8
:404E400000220A718207920F012A00D000224A70020701D5032204E0420701D5022200E001220A70020709D5420701D501220A71C00603D508790222104308717047027808
:404E80000A7042784A70807888707047F7B586B0069815460E4600280AD0152E05D01E2E09D9D22E07D0522E05D0FC4809B0F0BDFA48401EFAE700200090069869464078DA
:404EC0000490FF200873069800F06AFA07002DD11B2E0CD01D2E0AD0F0070BD0012E06D004980101EE480818007BB0421CD1F00703D010E01E2EF3D0F9E71E2E17D00498A6
:404F00000101E7480818407B002804D0522E0ED0D22E09D10BE01D2E09D104980101E0480818407B002802D0DC4FBF1CCEE0012E1CD004980101DA480818C088001DFEF77D
:404F40007FF9040014D0D5490120091D0F2E70D011DCD44A3300FCF7D5FD0F292BF745F653F56FF47CF38FF283F129000920E6E7CA4F0D3FAAE0182E71D009DC3246103A0C
:404F80001300FCF7BFFD08DEB2F92C1313E2E2131E2E24D006DC192E21D01B2E01D01D2E04D1E9E0522EFCD0D22E7DD0BB4F8AE0E87804280BD00498A9780201B8481018BC
:404FC000007B401E814202D0B44FBF1C7BE0A87860712888A071000AE071E878F7E06946488154E028881738904201D30F466AE003206946488128886071000AA07146E079
:405000002879012816D0102702206B46588128796071EA885889BF1C231D7A43C0182968FCF79AFA6B46E88859897843081858812DE04FE00227E7E769464881A88829682D
:405040008200601DFCF788FA69464889A9888900F3E002206B465881A888801C5CE08EE12968002902D0A988002905D1012100916946488100200190012221462846049B5D
:4050800000F0A2F9070023D0009800281BD0267100206A4690735673304600F0B7F96A46107306990B7800E035E113724978517201945189091D5181014601AA002000F0BA
:4050C000B5F9070002D02046FEF7CEFA3846EDE6E88817E169464881AA88601D2968FCF73BFA69464889A988A7E0E888002800D17CE7A8880028FBD0049A1301684A9A1830
:40510000D288521E9042F3DA28680028F0D002206B465881A888001DA8806071AA88E8885B894243201D18182968FCF715FAA888E9886B4648435989401878E7D9E0BEE0C4
:40514000B5E0E1E046E034E021E02A89002ACFD06B4658812989221D81545B89090A671DD9556B465889801C81B25981A88988545989000AC85552E0012221462846049B0F
:4051800000F0A4F907009ED1E888C01C27E7288817389042ACD203206946488128886071000AA0710498298802013D48101841806DE7288800289BD06A88002A98D0904261
:4051C00096D86071000AA0716888E071000A2072052004E72A89002A8AD06B89002B87D09A4285D86B4658812A89211D4254100A5B89621D98546B465F896889A31DF85472
:405200006B465B89000AE71DD8556B465889001D87B25F81A88978545989000A885458892146801C82B25A812846049B00F0CCF80700A8D169464889E9884018CFE69A4203
:40524000BED86B4658812A88211D4254100A5B89621D98546B465F896888A31DF8546B465B89000AE71DD8556B465889001D87B25F81287D012805D078181022291DFCF754
:405280006BF904E0A88878545989000A885468464189287D012807D0102006E0122F000090160020F90100000220081897E62888002891D06071000AA07103208FE62A8880
:4052C000002A89D06A46508128886071000AA0715089801C81B251816888221D88546A46010A5289601D11546A465089801C5081CDE621462846049A00F00CF9070098D190
:40530000E8884000401C6AE62A88002AD1D06B88002B94D16AE62989002900D1D3E6694648812989271DC1550A0A69464989601D0A5469464889801C488104980101174886
:405340000818C0880F3880B2E880A988884200D9E9806B465889EA88C0192968FCF7FCF86B465889E9880C22401880B25881C019A918FCF7F1F86B4658890C3057E62A789B
:40538000002A01D0012AC5D1694648812978221D815469464889401C22E600009016002001464A780648002A09D1064A137ADB439B0704D409781278914200D10020704704
:4053C000132F000090160020F8B50D4684880168002C01D0002909D01F010A4BA618FB18DB889E4204D99B1AC38002E00648F8BDC480C388A818001D1A46FCF7ADF800206A
:40540000F8BD000090160020112F0000032809D9C10704D01B2804D01D2802D003E01E2801D0F1207047F22070477047F7B5002614225043234B0F46C41882B0354631463A
:405440008446227C12E00C20E3684843185CB8420AD108460C256843054608355D5B001D185AAEB285B203E0491C89B28A42EAD814488A4202D1144805B0F0BD61464258EC
:405480006946049890470746009916E0A068F200805808420FD0F000A168001D095800290DD00498884762680746002A07D001460498904703E0761CB6B2AE42E6D938462F
:4054C000DAE700001C07000011130000F8B505899C468E46002D16D08188961C8F1919010B4B0A4CCB18DB889F420AD8714689180D712A0A4A71B2B263467146FFF764FF8C
:4055000004462046F8BD01480A38F8BD202F000090160020F0B5838801240568002B15D00B4E12019719FA88A61CB24209D32A880C192271120A5B1EAD1C6271B4B2002B03
:40554000F1D18188C91AC1800020F0BD0148F0BD90160020162F00001CB50400200000F013FA15490978C9071DD40100C9B2002911D012216A469170A1896A461180694658
:40558000C87001A821780170617841706946019800F030FA07E001A821780170617841700198FFF701FB13BD704700200349487000200249087070470917002000170020A9
:4055C0007047704700B5010000208A79002A0CD1002200E0521C1300DBB2062B05D21300DBB2CB5C002BF5D00120C0B200BD7047704700007FB505000C00C24800780121E7
:405600000143C04801702800C0B201283CD0022800D1A5E0052800D1A6E0062800D1A7E0212800D1BDE0242800D1DDE0262800D1EDE0272800D1DFE0282800D1E3E02A28C2
:4056400000D1D5E0412800D11DE1422800D132E1432800D132E14C2800D13FE14E2800D140E14F2800D13EE1502800D13CE1542800D13AE1572800D13BE1712800D1FEE019
:40568000FA2800D136E13FE1082069460870002069464870684600F0B7F9082069460870012069464870684600F0AEF9A0484089002801D000F0ECF99E480068FFF782FF3C
:4056C00000280ED09B48006800F0E6F9002199480068FBF709FD012196480068FBF704FD30E095480078C0B28106890E93480078C0B28201FC20000110400843904909787E
:40570000C9B20A03F8214902114001438D480078C0B24204FE2000041040084301008A4A1170010A884A5170000C87498870864800F0B2F900218448FBF7D6FC0121824858
:40574000FBF7D2FC002000F0B9F901A87F490A88028001A800F0D0F904207D490870D3E02000FFF72DFFCFE020787A490870CBE020000178002913D1417800290AD10421B4
:40578000754AD1803821744A91807449724A1160714941605B480078FE21014059480170B2E05848007880061DD46D480078102802D105206A49C87069496A48007800F0AA
:4057C000A6F96946488000980014002805D000A9891C3620644A126890474A48007801210143484801708FE06078604908708BE02000FFF7FDFE87E02000FFF7F9FE02205C
:405800005349087080E00420514908707CE050480078022832D03B480078C0072ED539480078400709D503204949087035480078FB2101403348017020E0324800780007DF
:4058400009D50420424908702E480078F72101402C48017012E03E48007803280ED104203B49087042480078002807D10120FBF7E9FB002802D103203549087044E0208804
:40588000FFF7B5FE40E037482178017061784170002030490870042236483249097804235943401834494118344E3000FBF740FCFFF787FE28E0FFF778FE25E0608817286F
:4058C00001D2618800E0172102A8227802706278427089B2029800F057F915E02000FFF73BFE11E010E00FE00EE02000FFF75CFE0AE009E022480078012101432048017017
:4059000002E000BF091700201E4800781121014000290BD01B480078FE210140194801702100EDB22800104A126890477FBD00005C0A00002C0100207CF2FF0F7DF2FF0FA9
:405940007BF2FF0F78F2FF0F240100206E0300000C1700200A170020C4160020F82100203001002000170020CC160020041700200B1700200043010079020000D0160020FB
:40598000051700200917002038B504000025A08915498988884222D1402322000021201D00F002F905002800C0B2002811D16068FBF7B6FB800706D52100822040000B4A64
:4059C0001268904705E02100FF20801D074A1268904707480078FE210140054801702800C0B232BD00000000680A0000CC1600200917002013B50120002904D00A46012178
:405A00006846FFF7A9F91CBDF8B504460120002C26D06178012902D92278092A20D8002905D0FF25E5352078092803D004E0FF25CD35F8E708202070FCF79EFD2078114F6B
:405A4000114E08280DD00020FEF7B4FA70780128207810D00D4969180880FE2070700020F8BD0120FEF7A6FA0720B8810549203188800120F2E7B881024821782030818018
:405A8000EBE70000C0112E406802002000102E4010B500F0A3F810BD10B50749044609780220002907D1204600F09EF8002802D1204600F0B1F810BD2802002038B500249F
:405AC000042801D9012412E00A490870684600F0BDF8002805D100982B3000F0BDF8002801D0032403E00098002120308172204638BD000084020020024610B50120002A7D
:405B000004D00021104600F0B7F8002010BD33B500258BB00C46002911D0A078C01F0A280DD2E0780F280AD200F0B2F8002802D12078132803D06078012802D015E001254E
:405B40001FE002A8FEF7AEFE6846007A042800D3042569460BA8FFF789F8002803D168464078012801D0002D0BD1A07800F096F80523224681210BA800F096F8FBF724FF3F
:405B8000054628460DB030BD13B506496A46098892880120914204D301AA03216846FFF7DBF81CBDF6040020F8B51C4616460F46050003D0002E03D1002C01D00E20F8BD92
:405BC000288900F0B7F80028F9D102202346034332463946284600F0B9F8F8BD01480121417270476410002070B50025044600280ED0A07901280BD8FCF7BEFCA0790028C1
:405C0000204602D0FDF720FF03E0FDF709FF00E00125284670BD704710B5012100280FD08279002A02D0012A04D009E001460622044802E0014606220348FBF78DFC002122
:405C4000084610BD58030020640300200149016000207047A402002010B5002805D006220349FBF779FC002010BD024810BD00005803002013200000044A0178D1804078A0
:405C800000020143D1800020704700007410002010B5FCF7D9FF0421084010BD014908710020704784020020FFB583B015460E4600281FD00178FF291CD00021C943FFF76B
:405CC0009FF805281AD0832E1BD0174C002100F0B3F80746012824D0304600F0CDF8694688720020C872009506980881384600F0D3F815E00C48C01E07B0F0BD0A48801E33
:405D0000FAE7A4214843094940184088002D03D0294600F0E1F803E00146054800F0FEF804462046E8E70000142E0000740500201B200000002803D003490988884201D91A
:405D400001207047002070473C020020F0B585B00E4604460020694608801D4617462089FFF7E8FF00280FD1680606D520892A46394600F0E5F8002806D1208901A900F009
:405D800059F9002802D00A2005B0F0BD6946278989888F4210D0264B14225B687A43D218203AD289234B9A4206D003AB02AA384600F068F90028E7D1E90711D020896946D2
:405DC00000F0A6F968460088864201D9002805D120893246214600F0AFF9D5E70720D3E7A90701D46907CFD5218914220B4653430F4A104F52687F1C9B18203BDA89BA42A7
:405E0000C2D0FF1EBA42BFD07F1CBA42BCD0A2881B8B97199F4207D8AB07B5D513463246206800F0D7F9AFE7B342D7D90D20ABE73C0200200228000070B5012909D001467F
:405E40000B4C002522788A4210D12070FF2902D00AE0FF21F4E7FCF7F7FE400702D505484068E06501206060284670BD012070BD9C11002030030020064A10214B00D35CCB
:405E8000834203D14800801840787047491EF5D5FF207047569400000EB56A461070C3B2902253430A4A9B18029390235843105C6A465070A4225043064A80180190684613
:405EC0004860887A0A4601460120FFF7AFFA0EBD9C1100207405002000B585B0002905D00C4A904205D90C4805B000BD0A48401CFAE76A461070000A507000A81022023027
:405F0000FBF72AFB04486A4612210830FCF70CFBEAE70000FF0E000012200000064A08B5914201D9054808BD6A461170090A51700221FCF7F9FA08BDFF0E000012200000FB
:405F4000F7B5002684B0059935463746039600290ED0142148433449096840184038046B0698C10740070290002904D0E00605E00E2007B0F0BD800F01D0E004060F2B4893
:405F8000044204D0270FBF1D00F03EF903900698C00703D0E00708D1022543E00298800F40D0E00501D403253CE0002E3AD000200090019069460598FEF758FEF10722D088
:405FC000002813D16846C07800F024F9012801D00F2527E0B00703D568460078022805D3300705D568460078032801D2052519E0062F08D068468078B84202D30399884276
:4060000001D20C250EE00698C00701D0200704D40298800F06D0200504D505480078002800D108252846A4E740020020020200006D050020F0B50246012008800D460A234A
:406040001046FFF777FE002801D00120F0BD0521C9020B4C4E1C0DE0142027685043C0192038C089884201D0B04201D12A800023521E92B2002A01D00A2BEDD01846F0BD51
:4060800040020020FFB517460C4605460A223980FFF750FE002802D0012004B0F0BD142026464643184805230068DB0230182038C189994202D05B1C994220D18389AB4262
:4060C0001DD2808AA84211D219E01421614308182038C1890D48814206D121462846039A00F0A0F802000CD0641CA4B20648006831182039898AA14201D3A542E5D2104693
:40610000CBE73C80FBE70000400200200328000014225043074A126880184038C06B002804D04268002A01D0008800E0002008800020704740020020F8B50E2415460F463A
:406140000646002930D000F087F801282CD11420314641431C4800680818014620390246403A126BC989130101D5022201E05201D20F164B994208DA154BCC1A0BD0012C3A
:4061800009D0022C07D0032C10D02B463946304600F0A4F805E0002D05D13946304600F003F9044600E007242046F8BD002DFAD14068010101D5022201E04001C20F3946B9
:4061C000304600F06BF9ECE740020020012900000028000010B50C460146142044430948006820184038C06B002808D04068002805D080181A46FBF7AFF9002010BD0E204F
:4062000010BD0000400200200148007970470000840200200007800F022801D0002070470120704730B5142461430A4C0346246800200C19214620398D899D4202D8898AFD
:40624000994201D20A2030BD403C218EC906C90E117030BD40020020FEB50546C0081E4F6A070126385C520F31469140084209D00024002C2BD069462846FFF7DBFE00282E
:4062800002D024E00124F4E7684601888D421ED0C8084A07385C520F3346934018420AD00024002C13D002AB01AA2846FFF7EAFE002802D00BE00124F3E768468088C10844
:4062C0004007795C400F8640314202D000242046FEBD0124FBE700002C150020FFB585B00C46002569460D818D810D7400958D80206800F029F9064601A90598FFF708FF83
:40630000A58002A90598FFF795FE050045D1059869460989074614225743884210D02048204A006838182038C089904208D004AB03AA0598FFF7A6FE05002ED1012000908A
:40634000694689880898174B081A80B26946888013495B1C0968791840394A8B9A4206D0009A012A03D0B04205D90E2515E0B04201D968468680C86B002809D04068002867
:4063800006D008996A46411892882068FBF7E4F86946A08889884018A080284609B0F0BD4002002002280000F7B50E2016460C4600296DD0206800F0C7F800250146A58077
:4063C000009814225043334A05271268FF0280182038C389BB4202D07F1CBB421BD1022E05D0012E03D0002E0AD00A254FE010294CD32068009900F0BFF8A088103008E0AC
:40640000022903D32168008B087039E00E25A088801CA0803BE0204E1E4FB34237D1038B1426184670438218403A126B160101D5022201E05201D20F062927D321680B70EF
:40644000190AA68823689B195970A188891C8BB2A3803968266841182039898AF154A6882368090A9B195970A188891C89B2A180002A0CD13A68801820382268008B505497
:40648000A2882168000A89184870C0E70E252846FEBD00004002002002280000F8B507460E2015460C4600294BD0206800F04CF800260146A680022D27D0012D25D0052061
:4064C00088423CD83B46142043431E482168006818184038006B000C0870A088401C81B2A1802268781C5054A2882168000A89184870A088801C81B2A180022D07D0012D99
:4065000005D0002D0BD00A261AE01320D8E720684018394600F030F8A08810300DE009482268006818182038008B5054A2882168000A89184870A088801CA08000E00E268E
:406540003046F8BD4002002010B5002200280DD00749C968002909D0884207D3054B1B88CC18844202D3401A181A82B2104610BD50020020F60400201422514310B5074ABA
:40658000126889184039C96B002905D04968002902D01022FAF7E0FF10BD00004002002080B500F079F800201949087000201949087001BD80B500F00FF9134908601548A2
:4065C0000078012812D112480078012805D100200F49087000F060F808E00D480078002804D101200A49087000F016F801BD80B506490968044A1268801A814201D2FFF7D1
:40660000D9FF01BD00000000D4160020D81600200D1700200E17002080B533480078002804D100F006F801202F49087000F02DF801BD80B52D480178C02008400921014373
:406640002A4801702A4800780121014328480170FF2000F028F8FF2000F031F87F2000F031F83F2000F031F8002000F031F8F9F777FE1F49097810220A431D490A70C0B217
:40668000F9F772FE00F012F801BD1848007880210143164801707047144800784006400E12490870704713490870704780B501E000F015F800F00FF8C006F9D401BD0F494F
:4066C000087070470E49087070470E49087070470D49087070470D480078C0B2704706480078C0B2704700000F17002070000F4090000F4000000F4050000F4040000F4094
:4067000020000F4030000F4080000F4060000F40F0B5020052B2002A1CD4404A03005BB29B0804246343D258FF238407A40F08256C43A3409A438901C9B283079B0F082492
:40674000634399401143354A40B2800804235843115022E0324B020052B21207120F083A9208042462432E4C05006DB22D072D0F083DAD08042675436459FF258607B60FA5
:4067800008277E43B540AC438901C9B28007800F08256843814021439950F0BD80B5411E80225204914201D301200EE0401E1D49086003210020C043FFF7AAFF00201A4980
:4067C0000860072019490860002002BD18480068401C174908607047154800687047000080B500F060F81348FAF7C5FB12490F20FCF71AF81148FFF7D1FF00F06BF800F0C8
:40680000ADF862B600F038F80D48FEF79DF80D48FEF79AF80A48FEF797F801BD00E400E01CED00E014E000E018E000E010E000E0F816002095470000CD67000080BB00008A
:40684000F80E0000140F000080B5FFF7C9FF0121322000F0C5F802219620C00000F0C0F80021FA20C00000F0BBF800F095F900F097F9FDF7F8FFF8E780B5FFF7CDFEFFF748
:406880008FFE01BD80B500F095F901BD80B50C4800688021090601430948016000F014F800F013F801BD80B506480078002804D1FFF7E8FF012003490870FFF7E7FF01BD7C
:4068C0000000244016170020704780B500F0A7F901BD704780B500F02AF8194800F00EF8032000F00EF800F01EF801BD80B5FEF737F900F020F800F0CDF901BD114988645F
:40690000704738B504001625F9F72AFD0E4909680E4A0A40E4B2AC4014430B490C60C0B2F9F722FD31BD04200949086070470420084908607047042007490860704700002F
:40694000ED6800000000002000E400E0FFFF3FFF00E100E080E100E080E200E080B500F02AF8194800F00EF8032000F00EF800F01EF801BD80B5FEF7F8F800F020F800F0D1
:4069800097F901BD1149C864704738B504001E25F9F7E6FC0E49096889008908E4B2AC400C430B490C60C0B2F9F7DEFC31BD08200849086070470820074908607047082052
:4069C0000649086070470000756900000000002000E400E000E100E080E100E080E200E080B50A00D2B2002A0FD15F490860FFF7F3FE5E490860012000F068F901205C4918
:406A0000087001205B49087025E00A00D2B2012A0FD159490860FFF7DFFE58490860012000F062F901205649087001205549087011E0C9B202290ED153490860FFF7CCFE08
:406A400052490860012000F05DF901205049087001205049087001BD80B50100C9B200291DD1FFF7B9FE4149086042480078012857D13F480078012806D100203C490870B4
:406A8000002000F023F94CE039480078002848D1012037490870012000F018F941E00100C9B201291DD1FFF797FE3449086035480078012835D132480078012806D10020AE
:406AC0002F490870002000F00FF92AE02C480078002826D101202A490870012000F004F91FE0C0B202281CD1FFF776FE2749086028480078012814D125480078012806D1BA
:406B0000002023490870002000F0FCF809E020480078002805D101201D490870012000F0F1F801BD10B504001748006817490968611A884202D20220FFF78EFF0E480068F2
:406B40000E490968611A884202D20120FFF784FF0548006805490968611A884202D20020FFF77AFF10BD0000E4160020E01600201017002011170020F4160020F0160020A2
:406B80001417002015170020EC160020E8160020121700201317002010B500F0C1F810BD80B5FFF719FEFFF722FDFFF715FEFFF7B9FF01BD21482249086000202149086036
:406BC0002148224908602248224908600720224908600020214908600120214908601C482049086000202049086004201F49086000201F49086000201E49086000201E49BD
:406C0000086000201D49086000201D49086000201C4908601B4800681B49088070471B4800681B490140902000040843174908601548008813490860704700000B00000211
:406C4000000024404000244001000A00480024400700008000032440040324401003244044002440000224400402244050002440880E2440C80E2440480F2440080F2440EF
:406C8000C80F2440880F24400217002000000240FFFF0FFF05480068022108400100C9B2024A1160C0B24008704700001002044005480068102108400100C9B2024A116090
:406CC000C0B20009704700001003044005490A68FE2111400200D207D20F0A43D2B20148026070470003044005490A68DF2111404001202210400843C0B20149086070479B
:406D00000003044005490A68FD2111404000022210400843C0B20149086070470003044010B503480078012801D100F003F810BD6E050020FEB50027164EFF433D460024C7
:406D40000EE01C20316860430818017A002906D0406800F021F8002801D0254603E0641C3079A042EDDA681C12D01C2130684D434419FAF7B1FF6946606800F021F80546B5
:406D8000FAF7A6FF002DD9D1216868468847D5E7FEBD0000C8040020002803DB07490968884202D90020C043704704491422091D096850431030085870470000DC040020B3
:406DC000F3B50026F64381B0002841DB2349096888423DD8029900293AD0204F142204463F1D54432546396810354859401C2FD0FAF772FF3868415900292BD0211D0091CF
:406E000046580C21005971430F46C1190C220298FAF7A2FB11480021001D0068761C00590C34C0190160416081600C48001D00680159B14200D100260849009A091D86500B
:406E400008684159491E4151FAF742FF0020FEBD3046FEBDFAF73CFFFAE70000DC04002000B5FEE780B500F02DF800F002F8002002BD80B50F480068012188430D49086078
:406E800000200CE00C4905E03028FBD20B490422424389580A4A04234343D150401C3028F2D3F9F785F903480068012101430148016001BD00001040616E000000000000DE
:406EC0000000002010B5074979441831064C7C44163404E0081D0A68891888470100A142F8D110BDE4D0000000D1000010B5040000222000FBF7F0FA10BDF0B50022002373
:406F00000FE0022656438E5DAE1902275743CF197F783770521C641E2600F6B2002EF0D15B1C052B06D204245C4305592C00FF26B543F1E7F0BD032004490860032004493F
:406F40000860002003490860704700003000304030003140000E3F401C480068012188431A4908601948006802218843174908601748006830218843102101431448016038
:406F80001348006807218843012101431048016070470E480068022188430C4908600C480068072188430221014309480160084800683021884320210143054801600348C2
:406FC00000680121014301480160704700F02E4000FF2E4080B5FFF7BFFF274800688021090601432448016001BD000010B5224909680C00E407E40F002802D0012803D0D7
:4070000005E0FFF7A9FF02E0FFF7C3FFFFE7200010BD80B5F9F7A4F918490968C02212020A4316490A60C0B2F9F79EF901BD00B512480068C02109020140002901D001204A
:4070400000E0002000BD80B5F9F78AF90B4909681C4A0A408021C9011143084A116007490968184A0A40802109021143034A1160C0B2F9F779F901BD00F02E4000010B404D
:4070800070B50600F9F76CF90400FFF7D0FF002803D00125FFF7D7FF00E000253848304036490968374A0A4002433448026033480068012D01D1FFF7ACFF2000C0B2F9F7C1
:4070C00053F970BDFF3FFFFF80B52C48006840071CD52F480068400715D52C4800682C4909680422104081432948016027480068042188432549086023480068002802D04A
:407100002148006880470420FFF7BAFF1B48006840051ED51E480068400516D51B4800681B4909688022D200104081431848016016480068174901401448016012484068D4
:40714000002802D01048406880478020C000FFF797FF0A48006840030ED50D480068400306D509488068002802D00748806880478020C002FFF784FF01BD000010020B4080
:4071800004040400FBFBFBFFA0160020DC1600201C020020FFFBFFFFC3788278417800781B021A43090212040843104370477047FFF758FE002801D0FFF784FE00BF00BF6D
:4071C000002000BF00BFFFF73FFB00F000F880B500F002F801BD70470746384600F002F8FBE7704780B500BF00BF024A11001820ABBEFBE72600020030B5054608480C00B0
:407200000CD0002D0AD02846FEF7CAF8002805D16978044A09018918C988218030BD0000112F0000901600200849002809D00068002806D006490A68002A04D00348C01CEB
